:020000040800F2
:10000000000B00200101000887280008D525000802
:1000100085280008950800088D37000800000000BA
:10002000000000000000000000000000F9290008A6
:10003000970800080000000089280008B93100086E
:100040001B0100081B0100081B0100081B01000820
:100050001B0100081B0100081B010008990800088B
:100060001B0100081B0100081B0100081B01000800
:100070001B0100081B0100081B0100081B010008F0
:100080001B0100081B0100081B0100081B010008E0
:100090001B0100081B0100081B0100081B010008D0
:1000A0001B0100081B0100081B0100081B010008C0
:1000B0001B0100081B0100081B0100081B010008B0
:1000C0001B0100081B0100081B0100081B010008A0
:1000D0001B010008613700081B0100081B01000814
:1000E0001B0100081B0100081B010008DFF80CD0F1
:1000F00000F022FB00480047CD410008000B002023
:100100000648804706480047FEE7FEE7FEE7FEE7B1
:10011000FEE7FEE7FEE7FEE7FEE7FEE71F32000828
:10012000ED000008202A04DB203A21FA02F0002129
:10013000704721FA02F3D040C2F1200291400843F7
:100140001946704740EA01039B0703D009E008C93C
:10015000121F08C0042AFAD203E011F8013B00F88C
:10016000013B521EF9D27047D2B201E000F8012BD8
:10017000491EFBD270470022F6E710B513460A4627
:1001800004461946FFF7F0FF204610BD421E12F844
:10019000013F002BFBD111F8013B02F8013B002B82
:1001A000F9D17047421C10F8011B0029FBD1801ABD
:1001B00070472DE9FE4F804681EA0300C00F0C46D0
:1001C000009021F0004123F00045B8EB0200A94166
:1001D00005D24046214690461C460B46024623F077
:1001E0000040104347D0270DC7F30A00C3F30A515C
:1001F0000290401A019040286BDAC3F3130040F4D8
:10020000801B0098924620B10023D2EB030A63EBD7
:100210000B0B01985946C0F14002504600F0F5F929
:1002200006460D4650465946019A00F0FDF910EB7E
:1002300008006141002487EA115284EAE7731A43F7
:1002400040D0009A62B3019A012A4FEA075215DCA6
:10025000001B61EB02014FF0004202EA0752CDE9B8
:100260000042001C41F5801132462B4600F0FDF99A
:1002700003B0BDE8F08F40462146F9E7001B61EB73
:100280000201001C41F5801300185B412018A2F503
:10029000001747EB030140EAD570B6196D4111E034
:1002A0006D084FEA360645EAC0754FEA0752001B53
:1002B00061EB0201001C41F5801149084FEA300052
:1002C0000019514132462B4603B0BDE8F04F00F013
:1002D000BDB90098012240000023D0EB020263EB7D
:1002E000E073009821464FEAE074B8EB000061EB40
:1002F0000401E9E783F000435BE781F0004158E740
:100300002DE9FE4F81EA030404F0004421F000418E
:1003100000944FF0000B23F0004350EA01045ED03C
:1003200052EA03045BD0C3F30A54C1F30A552C44C8
:10033000A4F2F3340194A0FB0254C1F3130141F47D
:100340008011C3F3130343F4801301FB024400FB49
:10035000034E840A970A44EA815447EA8357A4FB70
:10036000076802958D0A05FB07854FEA932C04FB6D
:100370000C542705029D4FEA065847EA1637B5EB9D
:1003800008056EEB070C870E920E47EA811742EACA
:100390008312A7FB0201B6EB0B0164EB00042B0DEB
:1003A00043EA0C335E1844EB1C50DA465146E7FB37
:1003B0000201C5F313044FEA0B3343EA14534FEA27
:1003C0000432019C43EA0603A4F10C040294009C4D
:1003D000CDE900B400F049F903B0BDE8F08F00208A
:1003E0000146F9E72DE9F04D81EA030404F0004BE2
:1003F00021F0004514464FF0000A23F0004150EA76
:10040000050220D054EA01021DD0C5F30A57024666
:10041000C5F31303C1F31300C1F30A5640F480156A
:1004200043F48013A7EB0608101BD64608F2FD38EC
:1004300073EB050002D308F1010801E092185B415B
:10044000B8F1000F03DA00200146BDE8F08D00206E
:100450004FF48011064684460EE0171B73EB050728
:1004600005D3121B63EB050306434CEA010C490854
:100470004FEA300092185B4150EA0107EDD152EA91
:10048000030012D082EA040083EA0501084305D084
:10049000101BAB4106D20122002306E000224FF0E0
:1004A000004302E06FF0010253101AEB06004CEB20
:1004B000085110EB0A0041EB0B01BDE8F04D00F0D4
:1004C000C5B80EB540F2334102910021CDE90011CB
:1004D0000A460B4600F0C9F803B000BD70B5C1F381
:1004E0000A5201F000450024C1F3130140F2FF332A
:1004F00041F480119A4201DA002070BD40F233438A
:100500009A42A2F2334203DC5242FFF70BFE00E0B4
:1005100090402C43F1D0404270BDC1F30A5210B557
:10052000C1F3130140F2FF3341F480119A4201DA22
:10053000002010BD40F233439A42A2F2334203DC62
:100540005242FFF7EFFD10BD904010BD30B5041EC4
:1005500071F1000404DB4FF00044404264EB010100
:10056000141E73F1000405DB1C464FF00043524299
:1005700063EB0403994208BF904230BD30B50B468F
:10058000014600202022012409E021FA02F59D42C3
:1005900005D303FA02F5491B04FA02F52844151E97
:1005A000A2F10102F1DC30BD2DE9F05F054600202B
:1005B00092469B4688460646814640241BE02846D4
:1005C000414647462246FFF7ADFD53465A46C01AFC
:1005D000914110D311461846224600F016F82D1A04
:1005E00067EB01084F4622460120002100F00DF87C
:1005F00017EB00094E41201EA4F10104DFDC484640
:1006000031462A464346BDE8F09F202A04DB203AC3
:1006100000FA02F1002070479140C2F1200320FA55
:1006200003F3194390407047202A06DBCB17203A8A
:1006300041FA02F043EAE07306E041FA02F3D040E7
:10064000C2F12002914008431946704710B5141EAC
:1006500073F1000408DA401C41F1000192185B417B
:100660001A4301D120F0010010BD2DE9F04D924652
:100670009B4611B1B1FA81F202E0B0FA80F2203269
:100680009046FFF7C2FF04460F4640EA0A0041EADF
:100690000B0153465A46084313D0114653EA010052
:1006A00019D0C8F140025046FFF73CFD05460E4602
:1006B000504659464246FFF7A8FF084305D001209F
:1006C00004E020463946BDE8F08D0020054346EAA7
:1006D000E0762C4337430A986305E40AA0EB080050
:1006E0000022FD0A44EA47540A3002D500200146A0
:1006F000E9E7010510196941DDE90845001969417B
:10070000BDE8F04DA2E7C1F30A52C1F3130140F274
:10071000FF3341F480119A4202DA0020014670470B
:1007200040F233439A42A2F2334202DC5242FFF7D4
:10073000F9BCFFF76ABF0000064C074D06E0E06811
:1007400040F0010394E8070098471034AC42F6D318
:10075000FFF7D0FC98430008B843000870B58C1828
:1007600010F8015B15F0070301D110F8013B2A11C5
:1007700006D110F8012B03E010F8016B01F8016BB2
:100780005B1EF9D12B0705D40023521E0DD401F8AE
:10079000013BFAE710F8013BCB1A921C03E013F877
:1007A000015B01F8015B521EF9D5A142D8D30020AC
:1007B00070BD000070B5044600688168C943C90770
:1007C0001CD1816821F00101816000F063FD0546C4
:1007D0000FE000BF00F05EFD401B022809D9A06AAF
:1007E00040F01000A062E06A40F00100E0620120E9
:1007F00070BD20688068C043C007EBD0002070BD8A
:10080000F8B500260446009600688168C943C90708
:1008100028D0816841F001018160134813490068C4
:10082000B0FBF1F000E0401E00900028FBD100F08A
:1008300031FD054611E000BF00F02CFD401B0228F1
:100840000BD9A06A40F01000A062E06A40F00100FD
:10085000E06284F824600120F8BD20688068C0430D
:10086000C007E9D10020F8BD6001002040420F0020
:100870000649002001224870A1F8040181F8060110
:10088000A1F80201024801F0C5BD0000E402002009
:10089000BC040020FEE77047022000F0EDBB70476B
:1008A000024900EB80000968486370477404002027
:1008B0002DE9F041AAB0804602AE00244E4800F077
:1008C000F9FA32214C4800F05DFA4B4800F09AF9F1
:1008D000800504D5484800F097F946F82400641CC8
:1008E000022CEBDB444800F045FB029864214843AE
:1008F000A1EB10370398414E4843040B307808B100
:100900003F490D68A4F13C01282904D218B9632598
:100910002846FFF7C5FF601E3B2805D2307818B97E
:1009200001252846FFF7BCFF4FF40051354800F081
:100930009FFC00285ED00026022233A105A802F009
:1009400027FF012230A10AA802F022FF6C222EA16B
:100950000FA802F01DFF3A462BA11EA802F018FFB7
:10096000224629A114A802F013FF2A4626A119A89D
:1009700002F00EFF324624A123A802F009FF05A9C8
:100980004046FFF703FC21A14046FFF7FFFB0AA901
:100990004046FFF7FBFB1DA14046FFF7F7FB0FA901
:1009A0004046FFF7F3FB19A14046FFF7EFFB1EA9F6
:1009B0004046FFF7EBFB15A14046FFF7E7FB14A904
:1009C0004046FFF7E3FB11A14046FFF7DFFB19A903
:1009D0004046FFF7DBFB0DA14046FFF7D7FB23A9FD
:1009E0004046FFF7D3FB40F6B83000F029FB2AB0B1
:1009F000BDE8F08101269FE7EC0300202C010020D8
:100A00003401002000100140257500005F00000047
:100A100010B5322002F00EFF0446FFF749FF2046D2
:100A2000FFF7C0FB82B2FF232146044801F040FDDE
:100A30002046BDE8104002F0CFBE0000BC040020FC
:100A4000F8B500250446009590F82400012808D048
:100A5000012084F824002046FFF7ACFE060002D0F7
:100A60004BE00220F8BDA06A20F4885040F002005C
:100A7000A062022000F0ACFC22490968B1FBF0F052
:100A8000400000E0401E00900028FBD12046FFF708
:100A9000B7FE2068816841F00801816000F0FAFB30
:100AA000074604E000F0F6FBC01B0A2811D82068B6
:100AB00080680007F6D42068816841F004018160F5
:100AC00000F0E8FB07460EE000F0E4FBC01B0A283C
:100AD00009D9A06A20F0020040F01000A06284F85A
:100AE00024500120F8BD206880684007ECD4A06A3B
:100AF00020F0020040F00100A06284F8245030464B
:100B0000F8BD000060010020F8B50024009490F8C2
:100B100024202546012A12D0012280F824204A6888
:100B20001F23072A0DD20668776B521E02EB820242
:100B300093409F430B6893401F43776319E0022063
:100B4000F8BD06680D2A0AD2376BD21F02EB82026B
:100B500093409F430B6893401F43376309E0F76A54
:100B60000D3A02EB820293409F430B6893401F4370
:100B7000F7620A68072306680A2A0AD3F7680A3A5E
:100B800002EB420293409F438B6893401F43F76000
:100B900008E0376902EB420293409F438B68934021
:100BA0001F4337610A68102A01D0112A20D1124B45
:100BB00002689A4217D193681B0219D4936843F4D0
:100BC000000393600968102912D10C490C4A096886
:100BD000B1FBF2F101EB8101490000E0491E0091F7
:100BE0000029FBD104E0816A41F0200181620124E7
:100BF00080F824502046F8BD002401406001002008
:100C000040420F00806A70470068C06C7047000067
:100C10002DE9F0414FF0000704003D467ED0A06A68
:100C2000002628B9E66284F82460204600F07EF8A9
:100C30002046FFF7BFFDA16A01F01001014304D077
:100C4000A06A40F01000A06268E0A16A21F4885117
:100C500041F00201A1626268E169237B0A4347EA2D
:100C600043010A43A1684FF48077B94208D00129B3
:100C700006D0002194F814C0BCF1010F02D00AE0A4
:100C80003946F7E7F3B1A36A43F02003A362E36AAE
:100C900043F00103E3622368D3F804C02CF4694CE9
:100CA0004CEA010CC3F804C023689968DFF870C0EF
:100CB00001EA0C0111439960A168B9420BD00129E6
:100CC00009D00CE0DFF85CC0A3690CEB43330B43A5
:100CD00043F40061DFE7218A0D05A5F58015216841
:100CE000CB6A23F470032B43CB62216889680E4BD7
:100CF0001940914208D1E662A16A21F0020141F057
:100D00000101A162BDE8F081A06A20F0020040F07C
:100D10001000A062E06A40F00100E0620120F1E70B
:100D2000FDF7E1FF00E0FFFFFE0E1FFF00B585B0FD
:100D30000021009101910291039100680E498842BF
:100D400018D10E48816941F400718161816901F413
:100D500000710491816941F00401816180696946F3
:100D600000F0040004900520009003200190044846
:100D700000F08EF905B000BD0024014000100240D3
:100D8000000801402DE9F84300260D460446009670
:100D900000F080FA804620688168C90508D5A06AFD
:100DA00040F02000A06284F824600120BDE8F883B0
:100DB0004168C90503D4C06A10F4700F26D0022020
:100DC00000F006FB38490968B1FBF0F720680369B9
:100DD00036490B424FEA61014FEAA1121BD1C368A9
:100DE0004FEA611C13EA0C0F15D103690B4221D1A4
:100DF000C06810421ED114201FE0681C06D045B305
:100E000000F048FAA0EB0800A84222D82068006849
:100E10008007F2D52AE003690B4202D1C168114272
:100E200006D0026922490A4206D1C068084203D1AD
:100E3000542002E0292000E0FC204743009813E002
:100E4000681C0ED02DB100F025FAA0EB0800A842D6
:100E500007D9A06A40F00400A06284F8246003204F
:100E6000A4E70098401C0090B842E9D321686FF0D5
:100E700012000860A06A40F40070A06220688068D8
:100E8000C0F3424007280CD1207B50B9A06A20F45F
:100E90008070A062A06AC00403D4A06A40F0010080
:100EA000A062002082E70000600100202449922413
:100EB0004992240070B5044690F8240001280DD012
:100EC000012084F824002046FFF79AFC02004FF02E
:100ED000000005D084F82400104670BD022070BDCB
:100EE000A16A40F20123994341F48071A1621F4D30
:100EF00023681F49AB4218D10E6816F4702F14D026
:100F0000A66A46F48016A6620E68760505D5A66A1E
:100F100026F4005646F48056A662A66AF6040AD560
:100F2000E66A26F00606E66206E0A66A26F4801661
:100F3000A6625E68E9E7E06284F824006FF00200D0
:100F4000186020688368C3F34243072B05D1A84289
:100F500008D1096811F4702F04D0816841F4801120
:100F60008160B9E7816841F4A001F9E700280140F8
:100F70000424014010B5044690F82400012807D04D
:100F8000012084F824002046FFF714FC10B107E08C
:100F9000022010BDA16A21F4885141F00101A16233
:100FA000002184F8241010BD10B590F82110002401
:100FB000022903D00421816301243DE001680A680D
:100FC00022F00E020A6001680A6822F001020A603B
:100FD0001A4A0168914201D1012121E0174A1432D5
:100FE000914201D110211BE0144A2832914201D1D3
:100FF000891515E0114A3C32914201D189140FE064
:101000000E4A5032914202D14FF4803108E00B4A2F
:101010006432914202D14FF4801101E04FF08071AF
:10102000064A083A5160012180F82110002180F819
:101030002010416B01B18847204610BD08000240D6
:1010400070B5044600F026F90546601C02D004483D
:101050000078044400F01EF9401BA042FAD370BD92
:1010600054010020022804D102484068002800D022
:10107000004770474C010020044910B50A6802423D
:1010800002D00860FFF7EEFF10BD0000140401401D
:101090002DE9F84FDFF8B891002409F1040A0AF1AC
:1010A000040B23460F270BF1040EC9E00125A540D0
:1010B0002A40AA427DD1674ED1F804C0ACEB0608A5
:1010C000B44532D014DCBCF1030F3AD009DCBCF1DA
:1010D000000F2AD0BCF1010F1CD0BCF1020F31D19E
:1010E0001DE0BCF1110F17D0BCF1120F2AD119E08D
:1010F000B8F5881F19D006DCB8F5803F15D0B8F5D3
:10110000801F1FD111E0B8F5001F0ED0B8F5041FE5
:1011100018D10AE0CB6815E0CB681B1D12E0CB6844
:1011200008330FE0CB680C330CE08B682BB1012B3C
:101130004FF0080303D0456104E0042302E0056199
:1011400000E00023FF2A01D8064601E000F1040672
:101150004FEA840501D9A5F12005D6F8008007FAE9
:1011600005FC28EA0C0803FA05F548EA0508C6F864
:1011700000804D68ED0062D5374DAE6946F001063E
:10118000AE61AD6924F0030605F001050095334D0D
:1011900006EB050CDCF80850A607360F07FA06F830
:1011A00025EA0805DFF8B880404503D14FF0000874
:1011B00017E044E0DFF8AC80404502D14FF0010871
:1011C0000FE0DFF8A480404502D14FF0020808E0AC
:1011D000DFF89880404502D14FF0030801E04FF05E
:1011E000040808FA06F848EA0508CCF808804D68B3
:1011F000D9F80060ED034D4601D5164300E0964353
:101200002E604D68DAF80060AD03554601D51643EF
:1012100000E096432E604D68DBF80060ED025D460D
:1012200001D5164300E096432E604D68DEF800605D
:10123000AD02754601D5164300E096432E60641C4E
:101240000D682A46E5407FF431AFBDE8F88F000015
:101250000004014000001110001002400000014095
:1012600000080140000C0140001001400014014042
:101270008068084000D001207047C26821EA02035C
:101280000A4043EA0241016170470AB101617047B7
:101290000904FBE701488068704700005401002002
:1012A000024881680278114481607047540100202F
:1012B000074810B5016841F010010160032000F0FB
:1012C00075F8002000F006F800F024F8002010BDAA
:1012D0000020024070B50D4D04464FF47A71287815
:1012E000B1FBF0F00A490968B1FBF0F000F049FDEC
:1012F00048B9102C07D200222146501E00F036F8C3
:1013000000206C6070BD012070BD00005401002001
:10131000600100200C4808B5816941F0010181613C
:10132000816901F001010091C16941F08051C16101
:10133000C06900F0805000900448416821F0E061ED
:1013400041F08061416008BD001002400000014092
:10135000002809DB00F01F020121914040098000B4
:1013600000F1E020C0F8001170470000F0B40E4B0F
:101370001B680C46C3F30223C3F10705042D00D9F3
:101380000425191D072901D2002300E0DB1E0126D8
:1013900006FA05F1491E214099409E40761E1640EE
:1013A0003143F0BC02F008BA0CED00E0064900F051
:1013B000070208684FF6FF03184040EA0220034A7C
:1013C00010430860704700000CED00E00000FA05D3
:1013D00010B529A401461DCC86B08DE81D002AA0B9
:1013E0002A4C006804900020012923D002293AD019
:1013F00010291DD161682268D20119D5C1F3834239
:10140000C9031DF8020009D5616804AAC1F340416F
:10141000515C1F4AB2FBF1F1484301E01D494843CA
:101420006168490204D440005FF00301B0FBF1F0B1
:1014300006B010BD226AC2F30121012903D192072F
:1014400001D5C803F4E7022905D1626A920702D5E3
:1014500049F64040ECE70329EAD121688903E7D542
:101460004FF22440E4E700F033F96168C1F38131C1
:10147000491C4900DAE700000203040506070809D1
:101480000A0B0C0D0E0F101001020000001002409C
:1014900000127A0000093D002DE9F8430546007866
:1014A000354CC00754D0E0690026C00008D4E0697C
:1014B00040F08050E061E069012600F0805000902B
:1014C0002E480168C90512D40168804641F4807134
:1014D0000160FFF7DFFE074605E000BFFFF7DAFE19
:1014E000C01B642823D8D8F80000C005F6D5206AB0
:1014F00010F4407021D0A98801F4407181421CD0C1
:10150000206A1F49012220F440700A6000220A600C
:101510002062C00711D0FFF7BDFE074641F28838B0
:1015200008E000BFFFF7B6FEC11B414502D903200A
:10153000BDE8F883206A8007F4D5206A696820F442
:101540004070084320621EB1E06920F08050E061E5
:101550002878800705D56068A96820F440400843D2
:1015600060602878C00605D56068E96820F48000CE
:10157000084360600020DBE700100240007000407C
:10158000400442422DE9F0470F46050061D0434E2A
:10159000306800F00700B84209D2306820F0070038
:1015A00038433060306800F00700B84251D12868F5
:1015B0003B4C810712D5400703D5606840F4E060DA
:1015C00060602878000703D5606840F46050606070
:1015D0006068A96820F0F000084360602878C007C0
:1015E00028D06868012810D02168022810D0890707
:1015F00000292EDA616821F0030101436160FFF7E1
:1016000049FE804641F288390DE021688903EFE701
:101610008901EDE7FFF73EFEA0EB0801494502D93D
:101620000320BDE8F0876068696800F00C00B0EB4B
:10163000810FEFD1306800F00700B8420BD9306855
:1016400020F0070038433060306800F00700B842EF
:1016500001D00120E5E72878400705D56068E968F2
:1016600020F4E060084360602878000706D56068D1
:10167000296920F4605040EAC100606000F038F849
:101680006168084AC1F30311515CC840064908600B
:1016900006480068FFF71EFE0020C2E70020024057
:1016A0000010024080430008600100205801002023
:1016B0000448054900684968044AC1F30221515CA5
:1016C000C8407047600100200010024090430008AD
:1016D0000448054900684968044AC1F3C221515CC5
:1016E000C84070476001002000100240904300088D
:1016F00012A185B00FC98DE80F0014A0144A00682C
:1017000004905168134801F00C03042B10D0082BEF
:101710000ED1C1F38343C9031DF803000AD55168F4
:1017200004AAC1F34041515C0A4A5043B0FBF1F0B6
:1017300005B0704708494843FAE700000203040572
:10174000060708090A0B0C0D0E0F1010010200000D
:101750000010024000127A0000093D002DE9F84F08
:10176000040070D02078C04DC00749D06868C0F32D
:101770008100012807D06868C0F38100022809D1E0
:101780006868C00306D52868800339D560680028DA
:10179000E7D035E06068B0F5803F0BD010B1B0F510
:1017A000A02F11D0286820F480302860286820F409
:1017B000802002E0286840F480302860606890B1A2
:1017C000FFF768FD06460AE0286840F4802028609C
:1017D000F0E700BFFFF75EFD801B642873D8286820
:1017E0008003F7D50CE0FFF755FD064605E000BF86
:1017F000FFF750FD801B6428F0D828688003F7D4D9
:1018000020789A4E80074FF001094FF0000839D533
:10181000686810F00C0F07D06868C0F381000228D8
:1018200009D16868C00306D42868800714D52069E8
:10183000012808D110E02069B0B1C6F80090FFF788
:1018400029FD074605E00AE1FFF724FDC01B022839
:10185000C4D828688007F7D52868616920F0F800A7
:1018600040EAC10028600DE0C6F80080FFF712FDD5
:10187000074604E0FFF70EFDC01B022823D82868A6
:101880008007F7D4207800072CD57948A169D9B111
:10189000C0F80090FFF7FEFC074604E0FFF7FAFCF3
:1018A000C01B02280FD8686A8007F7D571484FF42B
:1018B000FA510068B0FBF1F0009000BF0098411EA3
:1018C0000091FAD20EE080E0C0F80080FFF7E2FC61
:1018D000074604E0FFF7DEFCC01B022875D8686AE3
:1018E0008007F7D42078400760D5E8690027C0005A
:1018F00008D4E86940F08050E861E869012700F009
:10190000805000905C480168C90513D40168834683
:1019100041F480710160FFF7BDFC824606E000BF24
:10192000FFF7B8FCA0EB0A0064284ED8DBF80000F3
:10193000C005F5D5E06801280AD008B1052813D004
:10194000286A20F001002862286A20F0040002E0E2
:10195000286A40F001002862E06841F2883B98B1B3
:10196000FFF798FC82460BE0286A40F004002862EA
:10197000EEE700BFFFF78EFCA0EB0A0159455AD8ED
:10198000286A8007F6D50CE0FFF784FC824605E064
:10199000FFF780FCA0EB0A0159454CD8286A800764
:1019A000F6D41FB1E86920F08050E861E06988B39F
:1019B0006968C1F38101022944D00228C6F8608019
:1019C00004D0FFF767FC044638E034E0FFF762FC20
:1019D000074604E0FFF75EFCC01B02282BD82868EE
:1019E0008001F7D4206AB0F5803F05D16868A1680E
:1019F00020F4003008436860D4E9080108436968AE
:101A000021F4741108436860C6F86090FFF742FC47
:101A1000044606E025E000BFFFF73CFC001B02285F
:101A200009D828688001F7D51BE000BFFFF732FC1A
:101A3000001B022802D90320BDE8F88F2868800126
:101A4000F4D40EE00128F7D06868226A00F48031EF
:101A5000914204D1616A00F47010884201D00120E3
:101A6000EAE70020E8E700000010024000004242E0
:101A700080044242600100200070004070B5040004
:101A800009D0606A002540B125616561A56294F8BE
:101A9000510040B10CE0012070BD6068B0F5827F5C
:101AA000F4D0E561F2E784F85050204600F040F8A9
:101AB000022084F851002068016821F04001016093
:101AC000A088218900F4827001F404410843A189AF
:101AD00001F400610843217C01F002010843217DEB
:101AE00001F001010843218B01F400710843217FBB
:101AF00001F03801084394F8201001F080010843F8
:101B0000218D01F40051084321680860A069042177
:101B100001EA1040216848602068C16921F4006131
:101B2000C1616565012084F85100002070BD00008E
:101B300030B585B0002400940194029403940068A9
:101B40001449884223D11448816941F4805181614C
:101B5000816901F480510491816941F0040181613E
:101B600080690E4D00F004000490A0200090022037
:101B700001900320039069462846FFF789FA402028
:101B8000CDE90004694628460294FFF781FA05B0C2
:101B900030BD00000030014000100240000801404C
:101BA0002DE9F84F044690F8500000270A9E1D4684
:101BB00092468B464FF0010901280ED0012084F88F
:101BC0005000FFF767FB804694F8510061680128D8
:101BD0000CD0B1F5827F07D102E00220BDE8F88F7A
:101BE000A16809B9042801D00227C2E0BBF1000FA7
:101BF00027D0BAF1000F24D01DB394F85100042867
:101C000002D0052084F8510000206065C4F838A097
:101C1000E587A587C4F830B0E586A58620646064B2
:101C200020680168490603D4016841F04001016061
:101C3000E068B0F5006F606805D0E8B3012D46D0CC
:101C40007FE0012795E008B1012D39D1206B216893
:101C50000088C860206B801C2063E08E401EE086F8
:101C60002EE02068816889070FD5E18E69B1B9F14E
:101C7000010F0AD1216B0988C160206B801C206391
:101C8000E08E401EE0864FF0000920688168C90799
:101C90000CD0E18F51B1C068A16B0880A06B801C93
:101CA000A063E08F401EE0874FF00109FFF7F2FAD2
:101CB000A0EB0800B04200E009E001D3701C50D155
:101CC000E08E0028CDD1E08F0028CAD13FE0206B04
:101CD000216800780873206B401C2063E08E401E52
:101CE000E0862EE02068816889070FD5E18E69B112
:101CF000B9F1010F0AD1216B09780173206B401CE7
:101D00002063E08E401EE0864FF000092068816865
:101D1000C9070CD0E18F51B1C068A16B0870A06BEE
:101D2000401CA063E08F401EE0874FF00109FFF7E1
:101D3000B1FAA0EB0800B04202D3701C01D010E051
:101D40007EB1E08E0028CDD1E08F0028CAD1424676
:101D50003146204600F0E4FD28B1012720206065CF
:101D600007E0032705E0A06818B92068C16880680B
:101D70000090012084F85100002084F8500038467B
:101D80002CE710B5401EB0F1807F01D3012010BDBB
:101D90004FF0E02460610F21601701F00DFD00207D
:101DA000A06107202061002010BD10B590F83C20F4
:101DB000012A22D0012280F83C20CA688C6822F4D3
:101DC000407222434C6822F4806222430C6822F461
:101DD000006222430C6922F4805222434C6922F4AF
:101DE00000522243C969002322F480420A43016859
:101DF0004A6480F83C30002010BD022010BD000075
:101E000070B590F83C20012A26D0012480F83C408F
:101E1000022280F83D2003685A689D6822F070060F
:101E20000A6832435A600D4B02689A4208D0B2F1F8
:101E3000804F05D00A4B9A4202D00A4B9A4204D1F5
:101E4000496825F080031943916080F83D400021E6
:101E500080F83C10084670BD022070BD002C014087
:101E6000000400400008004010B5040003D094F8BE
:101E70003D0010B107E0012010BD002084F83C00B7
:101E8000204600F01FF8022084F83D00211D206844
:101E900001F0C6F9012084F8460084F83E0084F879
:101EA0003F0084F8400084F8410084F8420084F840
:101EB000430084F8440084F8450084F83D00002085
:101EC00010BD000008B500680649884208D10648E0
:101ED000816941F400618161806900F400600090D3
:101EE00008BD0000002C01400010024070B50446FF
:101EF00090F83C00012817D0012584F83C500220BE
:101F000084F83D002068826822F0770222F47F4244
:101F100082600868502830D00DDC20284DD005DCC8
:101F200098B310283BD148E0022070BD302844D03F
:101F3000402834D139E0602828D0702806D0B0F588
:101F4000805F2CD0B0F5005F29D10AE0CB68D1E9E1
:101F50000121206801F0A7F92068816841F077012C
:101F600009E0CB68D1E90121206801F09CF92068E3
:101F7000816841F48041816011E0CA684968206845
:101F800001F046FA5021206807E016E0CA68496867
:101F9000206801F04EFA6021206801F08EF984F883
:101FA0003D50002084F83C0070BDCA684968206834
:101FB00001F02EFA40212068EFE722680146104622
:101FC000EBE7000000B585B000210091019102917E
:101FD000039100680B49884212D10B48816941F096
:101FE000040181618069694600F0040004904FF4A7
:101FF000807000900220019003900448FFF748F899
:1020000005B000BD002C0140001002400008014056
:1020100070B5044690F83C000D4601280AD0012016
:1020200084F83C0042B1042A18D0082A2AD00C2A8D
:102030004DD139E0022070BD206801F047F92068D9
:10204000816941F0080181612068816921F0040102
:102050008161206881692A69114311E0206801F0DB
:102060005DF92068816941F40061816120688169BE
:1020700021F480618161206881692A6941EA022135
:10208000816124E0206801F075F92068C16941F0A0
:102090000801C1612068C16921F00401C1612068A3
:1020A000C1692A69114311E0206801F08FF92068A5
:1020B000C16941F40061C1612068C16921F4806196
:1020C000C1612068C1692A6941EA0221C161002019
:1020D00084F83C0070BD10B5040003D094F83D00B6
:1020E00010B107E0012010BD002084F83C0020461C
:1020F00000F01EF8022084F83D00211D206801F048
:102100008FF8012084F8460084F83E0084F83F00F0
:1021100084F8400084F8410084F8420084F84300C9
:1021200084F8440084F8450084F83D00002010BD88
:102130007047000010B50446022249B104290ED0B0
:10214000082913D094F84100012816D0012010BDB1
:1021500094F83E000128F9D184F83E200FE094F86D
:102160003F000128F2D184F83F2008E094F84000B5
:102170000128EBD184F8402001E084F841200122BD
:10218000206801F083F80F492068884203D1426C2F
:1021900042F4004242642068884208D0B0F1804F87
:1021A00005D00949884202D00849884204D1816893
:1021B00001F00701062903D0016841F00101016027
:1021C000002010BD002C0140000400400008004029
:1021D0007047000070B5026804461068D168536902
:1021E00010F00F0F53D003F0010501F490762E4349
:1021F0005FD0C20705D0CA0503D5E26B42F00102E9
:10220000E263420705D5DA0703D0E26B42F002022F
:10221000E263820705D5DA0703D0E26B42F00402DD
:10222000E263020707D501F020022A4303D0E26BE4
:1022300042F00802E263E26B002A34D0800604D543
:10224000880602D5204601F0B7F920684069E16BA5
:10225000C0F3801001F008010143204624D001F0B2
:102260009DF92068416949061AD5416921F040016C
:102270004161606BA0B12D494163606BFEF794FE34
:10228000002810D0606B416BBDE8704008478306A2
:102290000FD58B060DD52046BDE8704001F08CB9F6
:1022A0002046FFF795FF70BDFFF792FF0020E06327
:1022B00070BD03062BD50B0629D594F839002128CB
:1022C000F6D1A068B0F5805F01D12069B0B1206A75
:1022D000411C2162216800784860E08C401E0004A7
:1022E000000CE084E4D12068C16821F08001C16065
:1022F0002068C16841F04001C16070BD206A00885B
:10230000C0F308005060206A801C2062E5E74006A8
:10231000F3D54806F1D5D168204621F04001D160BF
:10232000202184F8391000F01CF970BD8D350008AB
:1023300070B5040004D094F83900002510B106E00F
:10234000012070BD84F83850204600F023F8242086
:1023500084F839002068C16821F40051C16020462A
:1023600001F070F92068016921F490410161206851
:10237000416921F02A0141612068C16841F400519E
:10238000C160E563202084F8390084F83A00002019
:1023900070BD000030B585B0002400940194029413
:1023A00003940068184988422CD11848816941F487
:1023B00080418161816901F480410491816941F02A
:1023C000040181618069124D00F0040004904FF413
:1023D0000070009002200190032003906946284677
:1023E000FEF756FE2815CDE90004694628460294FA
:1023F000FEF74EFE002201212520FEF7B7FF252023
:10240000FEF7A6FF05B030BD0038014000100240C5
:102410000008014090F83A30202B22D1F9B1F2B1F6
:1024200090F83830012B1CD081628285C285002152
:10243000C163222280F83A2080F838100168CA6807
:1024400042F48072CA6001684A6942F001024A613E
:102450000068C16841F02001C16000207047012080
:1024600070470220704700000F4910B5884219D10B
:102470000E4801460278B1F804110D2A0DD0431C14
:10248000CA54B0F80411491CA0F80411BDE810406A
:10249000012206490448FFF7BDBFA0F8021101F070
:1024A0006BF9F3E710BD0000BC040020E40200203B
:1024B0002DE9F843044690F839001F4616460D46AC
:1024C00020284CD1C5B1BEB194F83800012846D0BF
:1024D000012084F838004FF00008C4F83C80212027
:1024E00084F83900FEF7D6FEA6848146E684A0680B
:1024F000B0F5805F03D004E00120BDE8F8832069D7
:1025000028B12E465FF0000584F838800EE00026E2
:10251000FAE78021204601F0F1F8A0B9AEB116F833
:10252000010B21684860E08C401EE084E08C4B4643
:102530004FF0000200970028EBD14FF040012046F9
:1025400001F0DCF830B10320D7E735F8020BC0F317
:102550000800E6E7202084F839000020CDE70220BB
:10256000CBE770470EB501238DF8080000208DF8E9
:1025700004006420009001AA02A90348FFF710FBA1
:102580009DF804000EBD00001C040020044B20B187
:10259000012210211846FEF778BE0022F9E700005C
:1025A00000080140044B20B1012201211846FEF72A
:1025B0006CBE0022F9E70000000C0140044B20B182
:1025C000012204211846FEF760BE0022F9E7000050
:1025D000000C0140FEE70000FEB500241648009400
:1025E00001941449029401608915816004730125E6
:1025F0000575022606614FF460214460C0E906516A
:10260000FEF706FB08B1FEF74AF9CDE90045694639
:1026100009480294FEF778FA08B1FEF740F90096EF
:10262000694605480196FEF76FFA002801D0FEF7CB
:1026300036F9FEBD00240140EC0300202DE9F043F3
:1026400085B0002438480094019402940394816971
:1026500041F010018161816901F0100104918169EB
:1026600041F020018161816901F0200104918169BB
:1026700041F004018161816901F0040104918169E3
:1026800041F0080181618069284F00F008004FF493
:1026900000550490002229463846FEF7F6FDDFF883
:1026A0009090002210214846FEF7EFFDDFF884806D
:1026B000002215214046FEF7E8FD0126CDE900562F
:1026C000022569463846CDE90245FEF7E1FC1A4885
:1026D0000095CDE9010469464846FEF7D9FC102073
:1026E000CDE9000669464846CDE90245FEF7D0FC33
:1026F0001520CDE9000669464046CDE90245FEF7C2
:10270000C7FCA803CDE90004694648460294FEF7D9
:10271000BFFC002211460720FEF728FE0720FEF727
:1027200017FE05B0BDE8F083001002400010014024
:1027300000080140000C0140000011100F4810B5C6
:102740000D4901604FF48271416000218160C160D8
:102750004FF400720161C0E90512C161016241627A
:1027600081620A21C162FFF789F9002803D0BDE820
:102770001040FEF794B810BD003001401C0400204A
:1027800010B596B000240F941094119412941394E1
:102790001C2108A81494FDF7EEFC20216846FDF7E3
:1027A000EAFC2948274901604721C0E9011440F2A9
:1027B000F311C0E903148021C0E90541FFF754FB80
:1027C00008B1FEF76CF84FF480500F900FA91E4827
:1027D000FFF78CFB08B1FEF762F81B48FFF77BFCA4
:1027E00008B1FEF75CF8139413A917481494FFF787
:1027F00007FB08B1FEF753F86020CDE908040A94FE
:102800000B940C940D94002208A90F480E94FFF726
:10281000FFFB08B1FEF743F800944FF40050CDE9F8
:102820000440029401940394694607480794FFF713
:10283000BCFA08B1FEF733F80348FFF7C3FB16B044
:1028400010BD0000002C0140740400200C4810B59D
:102850000A4901604FF4E1314160002181600C229E
:10286000C160C0E904128161C161FFF761FD002808
:1028700003D0BDE81040FEF712B810BD003801408B
:10288000BC040020FEE770477047000070B50920C7
:1028900000F060FB0546062000F05CFB0404072006
:1028A00000F058FB44EA0024082000F053FB2043CA
:1028B000FDF707FE0022184BFDF722FDFDF72DFE68
:1028C00004460021092000F04FFC3B2000F042FBB1
:1028D00040F040013B2000F047FC3B2000F03AFB79
:1028E0008006FAD40D4800F075FB3B2000F032FB67
:1028F00040F040013B2000F037FC3B2000F02AFB79
:102900008006FAD42946092000F02EFC2046BDE8B6
:10291000704000F05FBB000080844E4000A1BC33DB
:1029200038B50B46009204460022802100F008F8DA
:10293000002804D0606D40F020006065032038BDA1
:102940002DE9F8431E46914688460446089DFEF749
:10295000A1FC401B351AFEF79DFC07462548006880
:10296000C0F3CB30684338E0701C37D0FEF792FCE0
:10297000C01BA84203D215B1009860B32CE02068B8
:10298000416821F0E00141606068B0F5827F0BD1C1
:10299000A068B0F5004F02D0B0F5806F04D1206878
:1029A000016821F040010160A06AB0F5005F09D123
:1029B0002068016821F4005101602068016841F439
:1029C00000510160012084F85100002084F850007B
:1029D0000320BDE8F8830025401E00902068816830
:1029E00038EA010004D000214945BDD10020F0E7BC
:1029F0000121F9E760010020704700002DE9F8434C
:102A000000258DF800509D4C9D4F9E4E207D012845
:102A100014D0022872D003285AD1122000F09AFA5A
:102A2000C0076CD00521122000F09EFB3068002802
:102A30004ED0816900294BD001201BE1607DB8B1E7
:102A4000012845D14021122000F08EFB122000F019
:102A500081FA8DF800009DF8000080067ED52021C7
:102A6000122000F081FB94F86600002877D088E0FF
:102A700094F83400012832D13F2000F06BFA8DF831
:102A800000009DF80000800729D40B213E2000F0B3
:102A90006BFB10213F2000F067FBF968022088479C
:102AA00094F83600B0B10D2000F054FA40F0400127
:102AB0000D2000F059FBB96803208847306810B139
:102AC000006900B1804704F8405F6570A5816581A9
:102AD000BDE8F883F968032088472575EEE7B4F868
:102AE0004A10DFF8A48111B9B4F84C0040B1B4F831
:102AF0004C00091AC9B240444A340FE09AE0AEE0F3
:102B000094F8320060B3322000F024FAA4F84A00AE
:102B100014F84A1F6088091AC9B2404400F03CFA10
:102B200034F8020B24F84C09F9680220884794F81D
:102B3000360010B30D2000F00DFA40F040010D20DA
:102B400000F012FBB9680320884730680028BAD02B
:102B50008668002EB7D094F9422002E019E00FE019
:102B600005E0B4F84A1000234748B047ABE74348B4
:102B700001214A3000F010FACAE72575F968E2E74A
:102B80002575F9680220884730680028A0D00069C0
:102B90005FE0192000F0DEF940B2A04684F8700032
:102BA000010605D5C043401CC0F38500444201E046
:102BB000C0F385041A2000F0CDF9344AD8F8183053
:102BC000002C06DA00EB20109342204405D99D38F2
:102BD00004E0934200EB2010F9D8A438A8F8720062
:102BE000132000F0B7F988F87400102008F166048B
:102BF00000F0B0F901460D2000F0B6FAA17B2248A2
:102C000000F0CAF914F8660900B92575F9680220C0
:102C1000884730680028B9D08568002DB6D014F9EF
:102C2000703FAC46B4F90220217901B01648BDE8E6
:102C3000F0436047F96801208847607D012803D18F
:102C40000821122000F090FA2575306800289DD0E8
:102C5000006800289AD001B0BDE8F0430047042185
:102C6000122000F081FA306800288FD08169002995
:102C70008CD0002001B0BDE8F04308476C02002072
:102C800068430008000100206C01002040DD4A1F5D
:102C900001490120087070470401002070B5324CD2
:102CA0002046237D427DB0F84A10B0F84C00A4F5D0
:102CB0008075012B15D0022B12D1002A10D10A1ACF
:102CC000234694F84F10B3F84C30284618448A42F3
:102CD00043DD00F068FA34F84C0FE17808442080B6
:102CE00070BDAAB1012AFBD12048C16802208847E3
:102CF0008021122000F038FA002020751C4800685E
:102D00000028EDD0C0680028EAD0BDE87040004738
:102D100041B938B994F83200A0B1322000F01AF964
:102D2000A4F84A00B4F84A10B4F84C000A1A94F80F
:102D30004E108A420CDD284400F02EF934F84C0F76
:102D4000A178CBE7084801214A3000F025F9E9E7EE
:102D5000D1B2284400F020F902E0D1B200F023FA09
:102D600034F84A0F608070BD6C0200206843000890
:102D70000001002001490120487070470401002033
:102D800070B52C4C2C4D2046227D417D90F863007F
:102D9000012A03D0022A00D109B970BDB9B10129B5
:102DA000FBD10128F9D10221122000F0DDF92868B9
:102DB0000028F2D040690028EFD01C2000F0CAF8AB
:102DC000296800F03F004969BDE870400847608904
:102DD000012560B394F840000128DED194F8410049
:102DE0000028DAD11548C1680320884704F8415FFC
:102DF000112000F0AFF84008404260701C2000F045
:102E0000A9F805461B2000F0A5F845EA0020FDF7CB
:102E100058FB00220A4BFDF773FAFDF75FFBC4F87D
:102E200003000C2000F096F84009E07170BD84F8B2
:102E30004050D3E76C0200200001002068430008E6
:102E400080844E40014901208870704704010020B1
:102E500001490120C8707047040100200548417DE8
:102E6000002906D190F84010002902D1012180F8F4
:102E7000401070476C0200202DE9F047314CDFF81C
:102E8000C8904FF00008207D01282CD0022857D18F
:102E900000F026F9FFF7FAFC002000F0F5F82B4EC1
:102EA000002500BF05EB4507F05D00F0B3F8B81949
:102EB0008178407800F058F96D1CEDB2102DF1D3F7
:102EC000002000F0A7F894F86C0000F0F5F884F802
:102ED0001480D9F80000002832D0406800282FD094
:102EE000BDE8F0470047607DD0B984F8408084F8A1
:102EF0004180A4F84C80A4F84A8045460B213E202E
:102F0000363400F031F910213F2000F02DF914F88B
:102F100036090F4E012809D02575F168032088472E
:102F2000D9F8000000280BD0C068D7E70D2000F0CA
:102F300011F840F040010D2000F016F9B168EDE7FE
:102F4000BDE8F0876C0200200001002088420008E4
:102F50006843000808B50122694600F003F89DF8AF
:102F6000000008BD70B5044615460E46002000F06E
:102F70001FF904F07F0000F01DF9002405E0002097
:102F800000F018F93055641CE4B2AC42F7D3BDE848
:102F90007040012000F00CB90A4601460020FFF7FE
:102FA000E1BF0000032803D05FF00100FFF706BB7C
:102FB0000020FBE706490A78824207D0087018B162
:102FC0005FF00000FFF7FABA0120FBE7704700004E
:102FD0004C0100200D4910B58861FDF772FA0022FE
:102FE0000B4BFDF7FFF9FDF798FA0446C0F30741D4
:102FF000062000F0B9F8C4F30721072000F0B4F868
:10300000E1B2BDE81040082000F0AEB86C0200202C
:1030100080844E4010B504460120FFF79BFF1949FC
:10302000000601D5012000E000204875C0B2A04292
:1030300026D04C75012C0FD000F062F80120FFF76C
:1030400089FF00F07F01012000F08EF80021402070
:1030500000F08AF830210EE000F052F80120FFF76E
:1030600079FF40F08001012000F07EF8002140202F
:1030700000F07AF80021BDE81040412000F074B85B
:1030800010BD00006C02002010B5040010D000201C
:10309000FFF790FF2046FFF785FF0120FFF75AFF5B
:1030A00000F0F8012143BDE81040012000F05CB8B9
:1030B0000120FFF77FFFF0E710B504460120FFF77E
:1030C000A9FF064880F86C400CB1342100E01221C1
:1030D000BDE81040392000F047B800006C02002025
:1030E00010B50020FFF75EFA012001F044F801203E
:1030F000FFF758FABDE81040062001F03CB8000088
:1031000010B5074C0220E1688847E1680120884734
:103110000020FFF7B9FF03490020087510BD00002B
:10312000684300086C02002070B50E4C2078002522
:1031300010B12570FFF762FC607810B16570FFF781
:10314000ADFDA07810B1A570FFF71AFEE07800B1D0
:10315000E570A079002804D0A571BDE87040FFF7A4
:103160008BBE70BD0401002013B5012201A900F03F
:1031700001F81CBD70B5044615460E46002000F04F
:1031800017F844F0800000F015F8002404E0305DEA
:1031900000F010F8641CE4B2AC42F8D3BDE8704013
:1031A000012000F005B80A4601460020FFF7E2BF03
:1031B000FFF7ECB9FFF7D6B9FEF772B830B593B0A8
:1031C00028216846FCF7D7FF14210AA8FCF7D3FF93
:1031D000002401210F9410940804CDE900101194EB
:1031E0001294029402250491CDE907504FF4E010A7
:1031F00009906846FEF7B2FA0F20CDE90A05680289
:10320000CDE90C400E9002210AA8FEF7BBF9680335
:1032100011900F950FA8FEF73FF913B030BD70471E
:10322000F0B50268164B174C174D4FF08047984287
:1032300005D0B84203D0A04201D0A84203D122F069
:1032400070064A683243984205D0B84203D0A04283
:1032500001D0A84203D122F44074CA6822434C69C9
:1032600022F08002224302608A68C2620A68826297
:10327000984201D10969016301214161F0BD00005B
:10328000002C0140000400400008004010B501F08F
:103290001F030121046A99408C430462016A9A4029
:1032A0001143016210BD10B5846842EA032224F480
:1032B0007F440A432243826010BD826822F070027C
:1032C0000A4342F0070181607047000030B5026A8E
:1032D00022F001020262026A4368846924F07305E5
:1032E0000C682C4322F002058A682A430A4DA84242
:1032F0000BD122F00805CA6823F440732A434D69B4
:1033000022F004021D438B692B43436084614968AA
:103310004163026230BD0000002C014030B5026AFA
:1033200022F010020262026A436884690D6824F484
:10333000E64444EA05248D6822F0200242EA0512A0
:103340000B4DA8420ED1CD6822F0800242EA051250
:103350004D6923F4406343EA85038D6922F04002FE
:1033600043EA85034360846149688163026230BD3A
:10337000002C014030B5026A22F480720262036AB6
:103380004268C46923F4007324F073050C682C436D
:103390008D6843EA05230C4DA8420ED1CD6823F475
:1033A000006343EA05234D6922F4405242EA0512C4
:1033B0008D6923F4806342EA05124260C461496862
:1033C000C163036230BD0000002C014030B5026AC9
:1033D00022F480520262046A4268C3690D6823F4D1
:1033E000E64343EA05238D6824F4005444EA053497
:1033F000064DA84204D14D6922F4804242EA85126A
:103400004260C36149680164046230BD002C014020
:1034100010B5036A046A24F001040462846924F08C
:10342000F00444EA021423F00A020A4384610262AF
:1034300010BD10B5036A23F0100303628369046AA8
:1034400023F4704343EA023224F0A00343EA01115B
:103450008261016210BD0000054A526803E01378E2
:10346000834200D151605269002AF8D170470000B0
:1034700024010020064900224968496904E00B78CC
:10348000834200D1CA6049690029F8D17047000021
:103490002401002070B50D48002645686C690FE0D6
:1034A000607A60B1E068401CE0606168884206D3E1
:1034B000E660206900B18047207A00B166726469D5
:1034C000002C01D0002DEBD170BD000024010020A4
:1034D0002DE9F047194D884607462978012099467D
:1034E0001646002431B92870182000F0A3F968604E
:1034F00000B14461182000F09DF900281BD007702E
:10350000C0F8048006724472C0E9034944616B68E4
:1035100059690A4604E01578FEB2B5420BD05269EB
:10352000002AF8D111B9586104E011464A69002A0D
:10353000FBD148614461BDE8F08700002401002010
:10354000FFF798BF10B50446FFF794FF06484068A0
:103550004169012004E00A78A24200D14872496919
:103560000029F8D110BD00002401002006490022E6
:103570004968496904E00B78834200D14A7249697D
:103580000029F8D1704700002401002010B5406ADE
:103590000021C185C184FEF71BFE10BD0168CA6809
:1035A00022F49072CA6001684A6922F001024A61FD
:1035B000202180F83A10704710B590F83A1022296F
:1035C00001D0022010BD82684FF480539A4201D18D
:1035D000016921B1816A9A421BD04AB10AE00268AE
:1035E000816A5268C2F308020A80816A891C08E075
:1035F000026972B10268526802F07F020A70816A41
:10360000491C8162C18D491E0904090CC18503D082
:1036100016E002685268F1E70168CA6822F02002E9
:10362000CA600168CA6822F48072CA6001684A6987
:1036300022F001024A61202180F83A10FEF714FFBF
:10364000002010BD70B5044600680169E26821F4ED
:103650004051114301612169A06808436169084331
:103660002168CA6841F20C639A430243CA60206829
:103670004169A26921F44071114341611E492068EA
:10368000884202D1FEF724F801E0FEF711F800EBC2
:10369000C00101EB0012606864218000B2FBF0F30E
:1036A000B3FBF1F36FF018067343B2FBF0F5B2FB16
:1036B000F0F605EB8305322303EB0515B5FBF1F5B9
:1036C000B6FBF1F605F0F00505EB0615B2FBF0F6DA
:1036D000B2FBF0F0B0FBF1F06FF01802504306EBD4
:1036E000800003EB0010B0FBF1F0216800F00F0048
:1036F0002844886070BD0000003801402DE9F04189
:10370000984617460E460446069D1DE0681C1BD0D1
:103710002DB1FDF7BFFDA0EB0800A84214D9206829
:10372000C16821F4D071C1602068416921F00101B4
:103730004161202084F8390084F83A00002084F8A0
:1037400038000320BDE8F0812068006836EA0000F8
:1037500004D00020B842D9D00020F3E70120F9E7D7
:103760000148FEF737BD0000BC040020014890F876
:1037700006017047E402002003480021A0F804116C
:10378000012180F806117047E4020020FEE70000E6
:103790000FB4084B10B504A902AA039800F034F93D
:1037A000044602A9002000F0C6FC204610BC5DF8CB
:1037B00014FB0000374100080907090E002804DB4C
:1037C00000F1E02080F80014704700F00F0000F1D5
:1037D000E02080F8141D704730B528B1144C031F49
:1037E000002021680A4605E0084630BD9A4203D809
:1037F00010465268002AF9D1002800D041680BD049
:103800000468A3EB0005A54204D11B681C440346D1
:10381000046002E0436000E023603AB11C68D51AFE
:10382000A54203D115682C441C6052685A6030BD13
:10383000640100202DE9F04782460F4C10480D4EE0
:103840000E4F001B4FF0000820F007054FF0010954
:1038500000221146504600F091FC002802D1306849
:1038600010B10020BDE8F0873C60C4E90058C6F8FC
:103870000090EDE7680100200405002064010020AD
:103880000007002002E008C8121F08C1002AFAD170
:1038900070477047002001E001C1121F002AFBD1D0
:1038A000704700002DE9FF5FDDE90220010DDDF822
:1038B00038B0024318D044F61050A1F2FF31414312
:1038C0000D140F98012820D0A5EB0B00401C5FEAD7
:1038D000000A4FF00004474EDFF81C91A046504606
:1038E00016D5CAF1000728E00F98012443A2012849
:1038F00008D0002100980F9BC0E90021C0E90243D5
:10390000BDE8FF9F6FEA0B01F4E7CBF10000DEE7B3
:10391000074612E0F80707D022463346404649469C
:10392000FCF7EEFC8046894622463346104619468F
:10393000FCF7E6FC04460E467F10002FEAD1DDE9D5
:103940000201BAF1000F42464B4602DAFCF7D8FCFE
:1039500001E0FCF747FD04460E460022284BFCF729
:10396000F5FD03D84FF0FF30014607E00022254B5C
:1039700020463146FCF71DFCFCF7C5FE102409E08B
:10398000002C0ADB0A220023FCF70EFE019B3032DA
:103990001A55641E50EA0102F2D1641C019AC4F166
:1039A000110314440F9A012A03D0012208430DD1B8
:1039B0000AE0084304D000204FF0110B0F9080E77D
:1039C000A3EB0B056D1E0DE05B4504DD4FF000021F
:1039D00005F1010504E003DA4FF00002A5F101054D
:1039E000002AECD000980F99C0E90231C0E90045E7
:1039F00086E70000000024400000F03F3000000097
:103A00000000F0430000E03F2DE9FF4F95B09B46DA
:103A10008946064600250FE2252877D1002427464F
:103A2000F84A0121059400E0044316F8013F203BC9
:103A300001FA03F01042F7D130782A2811D06FF044
:103A40002F033078A0F13002092A16D8059A44F0E5
:103A5000020402EB820203EB42021044761C059042
:103A6000EFE759F8042B0592002A03DA504244F498
:103A70000054059044F00204761C30782E2816D1AC
:103A800016F8010F44F004042A280DD06FF02F021D
:103A90003078A0F13003092B09D807EB870302EB3C
:103AA0004303C718761CF3E759F8047B761C30787B
:103AB0006C280FD006DC4C2817D068280DD06A2857
:103AC00014D104E0742810D07A280FD10DE044F40A
:103AD00000140AE044F4801401E044F440147278C5
:103AE000824202D104F58014761C761C3078662858
:103AF0000BD013DC582877D009DC002875D0452876
:103B0000F6D04628F4D047281AD19DE118E0632862
:103B100035D0642879D0652812D195E1702873D00A
:103B200008DC6728F1D069286FD06E280DD06F2887
:103B300006D1B5E073282CD0752875D0782874D0BC
:103B40005A46179990476D1C75E1C4F3025002283C
:103B500009D003280DD0D9F8001004280DD00D602D
:103B600009F1040967E1D9F80010EA17C1E9005228
:103B7000F6E7D9F800100D80F2E70D70F0E719F8BC
:103B8000041B8DF8001000208DF80100EA4601208A
:103B900003E059F804AB4FF0FF3061074FF000012C
:103BA00002D40DE008F101018846B9420FDA8045E0
:103BB000F8DB1AF808100029F4D108E008F1010137
:103BC00088468142FADB1AF808100029F6D10598D8
:103BD0005B46A0EB080721463846179A00F094FA96
:103BE000284400EB080507E04DE029E10DE01AF854
:103BF000010B5A4617999047B8F10108F7D25B4676
:103C000021463846179A13E142E00A220092C4F393
:103C100002524FF0000A022A08D059F804CB032AB6
:103C20004FEAEC710AD00DE029E02AE009F1070122
:103C300021F00702F2E802C1914609E00FFA8CFC7C
:103C40004FEAEC71042A03D14FFA8CFC4FEAEC7175
:103C5000002907DA0A460021DCF1000C61EB0201C1
:103C60002D2202E0220504D52B228DF8042001220A
:103C700003E0E20701D02022F7E7904659E00A214D
:103C800002E010220DE010214FF0000A00910BE03D
:103C900010224FF0000A44F004040827009203E0C9
:103CA00008224FF0000A0092C4F30252022A05D003
:103CB00059F804CB0021032A08D009E009F10701D3
:103CC00021F00702F2E802C1914605E01FFA8CFCE0
:103CD000042A01D10CF0FF0C4FF00008220728D570
:103CE000702806D0009B83F0100353EA0A0305D026
:103CF0000EE040228DF80420012208E05CEA010277
:103D000006D030228DF804208DF80500022290465E
:103D1000009B83F0080353EA0A030AD15CEA01021C
:103D200001D1620705D530228DF804204FF001083B
:103D30007F1E582804D034A003900EA802900DE0F6
:103D400036A0F9E753466046009AFCF72DFC8446FE
:103D50000398825C0298401E029002705CEA0100A7
:103D6000F0D1029806A9081A00F1200A600702D5CE
:103D700024F4803400E00127574502DDA7EB0A0058
:103D800000E0002000EB0A01009005984144401A31
:103D90000590E00306D45B462146179A059800F08B
:103DA000B3F90544002706E001A85A46C05D1799FB
:103DB00090476D1C7F1C4745F6DBE0030CD55B4646
:103DC0002146179A059800F09FF9054404E0302039
:103DD0005A46179990476D1C0099481E009000297B
:103DE000F5DC08E0029802995A460078491C0291D5
:103DF000179990476D1CBAF10001AAF1010AF1DC94
:103E000065E100000928010030313233343536379E
:103E10003839616263646566000000003031323316
:103E200034353637383941424344454600000000B6
:103E300000F058F90544761C307800287FF4ECAD8A
:103E400019B02846BDE8F08F620700D4062709F1B3
:103E5000070222F0070CFCE80223E14603F00048C9
:103E60005FEA080C02D00FF2702C0DE05FEA045CF0
:103E700002D50FF2682C07E05FEAC47C02D00FF293
:103E8000602C01E0AFF2700C4FF0FF3823F00043DC
:103E9000CDF850C065280CD006DC452809D046284E
:103EA0001DD047283DD13DE0662818D067287ED137
:103EB00038E00021112F01DB112000E0781CCDE952
:103EC000000106A90EA8FFF7EDFCDDE90F010E9A2F
:103ED00003910021009207F1010A04914DE04FF097
:103EE00000400097CDE9011006A90EA8FFF7DAFC03
:103EF000DDE90F0203920E9B11990022DDF80CA060
:103F00000093049211B9791C00EB010AB7EB0A0087
:103F100004D4C0F1FF3007F1010A0490AAEB0700B6
:103F2000019044E0012F00DA01270021112F01DD6B
:103F3000112000E03846CDE9000106A90EA8FFF7E0
:103F4000B1FCDDE90F010E9A03910021049100926A
:103F5000BA4621070CD40399514500DA8A46BAF1D2
:103F6000010F05DD009AAAF10101515C302908D04A
:103F7000B84202DA10F1040F06DA0121CDE901108E
:103F800015E0AAF10101E9E7002805DC04990144E4
:103F90000491AAEB000102E0411C514500DD8A4674
:103FA0000499401A401C01904FF0004002902007F5
:103FB00004D40198504501DBCDF8048000208DF831
:103FC0004F0002980DF14F07B0F1004F25D02B2084
:103FD0000E9002984FF0020800280CDA404202903E
:103FE0002D200E9007E00A210298FCF7C7FA303125
:103FF000029007F8011DB8F10001A8F10108F2DCF8
:1040000002980028EFD1791E0E980870307800F0E1
:10401000200040F0450007F8020D12A8C01B00F177
:1040200007081498007800B1012000EB0A010198FC
:1040300001EBE07105984144401A401E0590E003F1
:1040400006D45B462146179A059800F05DF80544B2
:104050001498007818B15A46179990476D1CE003E0
:1040600024D55B462146179A059800F04DF8054483
:104070001CE00498002807DBDDE90301884203DD2A
:104080000098405C179901E0179930205A469047F4
:10409000049805F10105401C04900198401E019010
:1040A00004D12E205A46179990476D1CBAF1000191
:1040B000AAF1010ADDDC05E017F8010B5A46179951
:1040C00090476D1CB8F10001A8F10108F4DC5B46D3
:1040D0002146179A0598ABE62D0000002B00000042
:1040E000200000002DE9F041044600251E46174639
:1040F000880404D405E039462020B0476D1C641EB6
:10410000F9D52846BDE8F0812DE9F04104460025A7
:104110001E469046C80301D5302700E020278804BA
:1041200004D505E041463846B0476D1C641EF9D5FC
:104130002846BDE8F0810A68531C0B601070704778
:104140007047FEF7F1BFFFF711BBFCF761BC002021
:1041500000F074B870477047704700004FF400518A
:104160000148FDF78AB80000001001407047704711
:104170007047FFF701BBFCF763BF00002DE9F0417A
:104180000B3020F00706104D19E02068B04215D31F
:10419000B0420AD9871B201DD4F80480FBF7D2FF58
:1041A000A019C0E90078286004E060682860201D3C
:1041B000FBF7C8FF201D2660BDE8F081251D2C6897
:1041C000002CE2D10020F7E764010020FDF770F831
:1041D000FEF7F4FFFEF732FAFEF7B0FAFEF736FB11
:1041E000FEF7CEFAFEF7F8F90648FCF729FCFCF7D3
:1041F0003FFB00210448FDF79DFF00BF00F006F8DB
:10420000FCE70000EC0300207404002070B50A4DA8
:10421000002400BF04EB440005EB8001487830B176
:10422000FF2801D000204870D1E901018847641CB3
:10423000E4B2052CEED370BD000000202DE9F04162
:104240000025104F2E4600BF05EB450007EBC004CC
:104250006078012810D1A08960B1A0F57F41FF39B5
:1042600001D0401EA0816670D4E904018847A0688F
:10427000606001E0667066606D1CEDB2082DE3D3EE
:10428000BDE8F08140000020000C23000D1E000E50
:10429000D2001A01001FAA0024070027120028C11B
:1042A000002994002AC10030D800358F003B02005D
:1042B00040000041300123FF280A000017000000E1
:1042C0001C0C00000F0000003C0F00000700000065
:1042D00050140000160000009C1800000E000000A2
:1042E000781E000006000000A02800001500000055
:1042F000D43000000D000000F03C0000050000007C
:104300004051000014000000A86100000C000000F3
:10431000447A000004000000E4A200001300000042
:1043200050C300000B00000024F400000300000054
:104330008545010012000000A08601000A0000006F
:1043400048E80100020000002C8B02001100000070
:10435000400D03000900000090D0030001000000A0
:10436000E093040000000000D13400085934000834
:10437000453500086D3500084135000895340008C2
:104380000000000000000000010203040607080905
:104390000000000001020304B843000800000020F0
:1043A0006C0100005C070008504400086C0100200C
:1043B00094090000943800081162FF134F415B0814
:1043C000010C1A410C5A020C1A470C5A030C1A43DE
:1043D0000C5A040C1A4B0C5122015AF404812A6D18
:1043E0004C19104BE80304812A595899305AFF4C54
:1043F0001A5D180A1105481A55180A1106181A6F7D
:10440000180A1107182A71AC1910320A29046960B8
:104410002A57B859142904816A73C47113912C1452
:1044200008752D1408452E1B0851041A5D04F12A45
:1044300001F041A813313233343536373839393841
:1044400037363534333231252182109324F400007D
:04000005080000ED02
:00000001FF
