:020000040800F2
:10000000300C002001010008332F0008812C00086B
:10001000312F0008E90E0008D94E0008000000004A
:10002000000000000000000000000000E5320008B1
:10003000EB0E00080000000075310008F5480008CC
:100040001B0100081B0100081B0100081B01000820
:100050001B0100081B0100081B010008ED0E000831
:100060001B0100081B0100081B0100081B01000800
:100070001B0100081B0100081B0100081B010008F0
:100080001B0100081B0100081B0100081B010008E0
:100090001B0100081B0100081B0100081B010008D0
:1000A0001B0100081B0100081B0100081B010008C0
:1000B0001B0100081B0100081B0100081B010008B0
:1000C0001B0100081B0100081B0100081B010008A0
:1000D0001B0100089D4E00081B0100081B010008C1
:1000E0001B0100081B0100081B010008DFF80CD0F1
:1000F00000F032FE00480047CD5D0008300C0020C3
:100100000648804706480047FEE7FEE7FEE7FEE7B1
:10011000FEE7FEE7FEE7FEE7FEE7FEE75B490008D5
:10012000ED000008202A04DB203A21FA02F0002129
:10013000704721FA02F3D040C2F1200291400843F7
:1001400019467047A0F14101192900D820307047A5
:1001500040EA01039B0703D009E008C9121F08C049
:10016000042AFAD203E011F8013B00F8013B521EC9
:10017000F9D27047D2B201E000F8012B491EFBD240
:1001800070470022F6E710B513460A4604461946A2
:10019000FFF7F0FF204610BD421E12F8013F002B72
:1001A000FBD111F8013B02F8013B002BF9D170475C
:1001B000421C10F8011B0029FBD1801A704710B5B2
:1001C000002200E0521C835C8C5CA34201D1002B16
:1001D000F8D1D8B2E1B2401A10BD30B505460020C2
:1001E000034600E05B1C934205D2EC5CC85C201A1D
:1001F00001D1002CF6D130BD2DE9FF4F087881B038
:100200009946FF2805D0491C2D2804D0002400233E
:1002100008E000230BE00124F9E703EB830300EB84
:100220004303491C0878FF28F7D104B15B42002042
:100230000090147801462D2C01D02B2C04D1521C97
:100240002D2C12D00024009400251678FF2E0ED0FD
:100250000A24A0FB04C801FB0481002700FB07114E
:10026000521C16EB0C006941EFE70124EBE79944BF
:1002700050EA01020ED00024AA4D2646DFF8A882DB
:1002800000F046FD82468B46B9F1000009DAC9F15B
:1002900000071BE001980021C0E9001105B0BDE88E
:1002A000F08F074612E0F80707D022462B4630466B
:1002B000414600F0E4F90646884622462B461046A1
:1002C000194600F0DCF904460D467F10002FEAD1F4
:1002D000B9F1000F324643465046594602DA00F063
:1002E00040FA01E000F0CBF9009A0AB181F0004138
:1002F000019AC2E90001D1E72DE9FF4F1F468DB0F9
:10030000D7E901464FF0FF382E2045464FF000094F
:100310000B90B9696D1C0E988847396A82468847E8
:100320000028F6D1BAF1FF3F0AD024F4D064002EA1
:1003300011DDBAF12B0F08D0BAF12D0F0BD102E06D
:10034000404611B0ABE744F48064B9696D1C0E9867
:1003500088478246761E6946600501D52D2000E05B
:100360002B208DF8000001F1010B0DF1200809E0B0
:10037000B9696D1C0E98884782460F9844F4007442
:10038000761E0560002E02DDBAF1300FF0D00B9919
:100390008A453ED144F0800406E00F99681CA9F11B
:1003A000010944F400740860B9696D1C761E0E984A
:1003B000884782463028F0D02BE00B998A4505D13A
:1003C000200603D444F08004761E18E0504604F062
:1003D000D1FE08B30DF11301761E44F400748B4571
:1003E00008D2AAF130000BF8010B200607D5A9F1BD
:1003F000010003E0200602D409F101008146A005B6
:1004000002D50F99681C0860B9696D1C0E98884761
:100410008246002ED1DC53E0002E51DDBAF1650F8B
:1004200002D0BAF1450F4BD1A00549D5B9696D1C71
:1004300024F44074761E0E9888478246002E0CDD08
:100440002B2804D0BAF12D0F07D144F48074B96978
:100450006D1C0E9888478246761EE00501D52D2139
:1004600000E02B2108F8011BCDF82C8021E00DF1D4
:100470002901761E44F4007488450CD2AAF130009C
:1004800010F0FF0088F8000002D10B99884509D9C7
:1004900008F1010806E0E00501D5244801E042F238
:1004A0000F708146B9696D1C0E98884782460F9877
:1004B0000560002E04DD504604F05CFE0028D6D115
:1004C000F9690E988847FF208BF8000088F8000033
:1004D0000020069007904B466A4608A906A8FFF739
:1004E0008BFEA00502D46FF001002AE714F0240F60
:1004F0000AD0E00714D1DDE906123868031D3B601D
:100500000068C0E900120BE0DDE9060100F036FAF0
:100510000146E00704D13868021D3A6000680160B6
:1005200028460EE7000024400000F03FF1D8FFFF0E
:100530002DE9FE4F804681EA0300C00F0C46009073
:1005400021F0004123F00045B8EB0200A94105D29B
:100550004046214690461C460B46024623F000408A
:10056000104347D0270DC7F30A00C3F30A51029086
:10057000401A019040286BDAC3F3130040F4801B4B
:100580000098924620B10023D2EB030A63EB0B0BD9
:1005900001985946C0F14002504600F052FA064612
:1005A0000D4650465946019A00F05AFA10EB0800E1
:1005B0006141002487EA115284EAE7731A4340D06C
:1005C000009A62B3019A012A4FEA075215DC001B18
:1005D00061EB02014FF0004202EA0752CDE900420E
:1005E000001C41F5801132462B4600F0FFFA03B0A3
:1005F000BDE8F08F40462146F9E7001B61EB0201A0
:10060000001C41F5801300185B412018A2F500176B
:1006100047EB030140EAD570B6196D4111E06D0852
:100620004FEA360645EAC0754FEA0752001B61EBF8
:100630000201001C41F5801149084FEA3000001901
:10064000514132462B4603B0BDE8F04F00F0BFBA2F
:100650000098012240000023D0EB020263EBE0731C
:10066000009821464FEAE074B8EB000061EB04010A
:10067000E9E783F000435BE781F0004158E72DE9AB
:10068000FE4F81EA030404F0004421F0004100948D
:100690004FF0000B23F0004350EA01045ED052EA11
:1006A00003045BD0C3F30A54C1F30A552C44A4F2EB
:1006B000F3340194A0FB0254C1F3130141F48011FF
:1006C000C3F3130343F4801301FB024400FB034E06
:1006D000840A970A44EA815447EA8357A4FB0768CF
:1006E00002958D0A05FB07854FEA932C04FB0C54F9
:1006F0002705029D4FEA065847EA1637B5EB08056D
:100700006EEB070C870E920E47EA811742EA8312BE
:10071000A7FB0201B6EB0B0164EB00042B0D43EACF
:100720000C335E1844EB1C50DA465146E7FB0201DD
:10073000C5F313044FEA0B3343EA14534FEA043270
:10074000019C43EA0603A4F10C040294009CCDE949
:1007500000B400F04BFA03B0BDE8F08F0020014672
:10076000F9E72DE9F04D81EA030404F0004B21F094
:10077000004514464FF0000A23F0004150EA0502FC
:1007800020D054EA01021DD0C5F30A570246C5F332
:100790001303C1F31300C1F30A5640F4801543F468
:1007A0008013A7EB0608101BD64608F2FD3873EB42
:1007B000050002D308F1010801E092185B41B8F18D
:1007C000000F03DA00200146BDE8F08D00204FF451
:1007D0008011064684460EE0171B73EB050705D310
:1007E000121B63EB050306434CEA010C49084FEA70
:1007F000300092185B4150EA0107EDD152EA030044
:1008000012D082EA040083EA0501084305D0101BD8
:10081000AB4106D20122002306E000224FF0004344
:1008200002E06FF0010253101AEB06004CEB085186
:1008300010EB0A0041EB0B01BDE8F04D00F0C7B929
:1008400070B521F0004303430CD0C1F30A550024D6
:10085000D5EB040564EB0403D617AD1AB34102DBF4
:100860000020014670BD201841EB025170BD0EB54D
:10087000C10F80EAE0700844CA07002140F2334308
:100880008DE80E000A460B4600F0B0F903B000BD3B
:100890000EB540F2334102910021CDE900110A4624
:1008A0000B4600F0A3F903B000BD70B5C1F30A52C6
:1008B00001F000450024C1F3130140F2FF3341F47D
:1008C00080119A4201DA002070BD40F233439A420F
:1008D000A2F2334203DC5242FFF724FC00E09040D6
:1008E0002C43F1D0404270BDC1F30A5210B5C1F3A0
:1008F000130140F2FF3341F480119A4201DA0020E3
:1009000010BD40F233439A42A2F2334203DC52421A
:10091000FFF708FC10BD904010BD000030B5041E6C
:1009200071F1000404DB4FF00044404264EB01012C
:10093000141E73F1000405DB1C464FF000435242C5
:1009400063EB04038B4208BF824230BD30B5041E06
:1009500071F1000404DB4FF00044404264EB0101FC
:10096000141E73F1000405DB1C464FF00043524295
:1009700063EB0403994208BF904230BD01F000438D
:1009800030B421F0004150EA010206D00A0DA2F570
:100990006072C1F31301002A02DC30BC00207047F2
:1009A000440F44EAC104C100E01830BC00EBC2505F
:1009B00000F0D6B830B50B460146002020220124B5
:1009C00009E021FA02F59D4205D303FA02F5491B1D
:1009D00004FA02F52844151EA2F10102F1DC30BD33
:1009E0002DE9F05F0546002092469B468846064664
:1009F000814640241BE02846414647462246FFF7F1
:100A000091FB53465A46C01A914110D311461846DD
:100A1000224600F016F82D1A67EB01084F462246D1
:100A20000120002100F00DF817EB00094E41201EB7
:100A3000A4F10104DFDC484631462A464346BDE8BE
:100A4000F09F202A04DB203A00FA02F100207047D0
:100A50009140C2F1200320FA03F3194390407047FC
:100A6000202A06DBCB17203A41FA02F043EAE07372
:100A700006E041FA02F3D040C2F12002914008435F
:100A800019467047426842B1016811F8013B23B131
:100A9000521EC0E90012184670470121C160881E2D
:100AA000704742685AB1C368016843B983688B4292
:100AB00005D0491E521CC0E90012002070474FF0BB
:100AC000FF3070470FB4002300B589B00CA9009126
:100AD0000B996FF00042CB601E4B06931E4B0793A1
:100AE0000423CDE901321D4A089202466B460020DC
:100AF000FFF702FC09B05DF814FB70B586B006463E
:100B00004FF0FF300091CDE90101002015460C4661
:100B100004903246694604A8FFF7D4FF03460498C0
:100B2000211825B108B10A4600E022462A600028B3
:100B30000DD0002B02DD0098884208D0081B0094DD
:100B4000CDE901043246694604A8FFF7BBFF06B0B1
:100B500070BD0000850A0008A30A00087D0D00088A
:100B60000029A8BF7047401C490008BF20F00100C1
:100B7000704710B4B0FA80FC00FA0CF050EA01049F
:100B800004BF10BC704749B1CCF1200421FA04F431
:100B900011FA0CF118BF012121430843A3EB0C010A
:100BA000CB1D4FEA00614FEA102042BF002010BC6D
:100BB000704700EBC35010440029A4BF10BC70471D
:100BC000401C490008BF20F0010010BC704710B560
:100BD000141E73F1000408DA401C41F10001921860
:100BE0005B411A4301D120F0010010BD2DE9F04D09
:100BF00092469B4611B1B1FA81F202E0B0FA80F25E
:100C000020329046FFF71DFF04460F4640EA0A00D7
:100C100041EA0B0153465A46084313D0114653EAA2
:100C2000010019D0C8F140025046FFF77BFA054693
:100C30000E46504659464246FFF703FF084305D08B
:100C4000012004E020463946BDE8F08D0020054330
:100C500046EAE0762C4337430A986305E40AA0EBA2
:100C600008000022FD0A44EA47540A3002D5002059
:100C70000146E9E7010510196941DDE90845001958
:100C80006941BDE8F04DA2E72DE9F041054621F0AC
:100C900000400C46284309D0C4F30A5040F23341C7
:100CA000884205DD28462146BDE8F0812846FBE75D
:100CB00040F2FE31884210DC0CDB4FEA043040EA9F
:100CC000155050EA053105D0104804F000410143A9
:100CD0000020E9E700200146E6E7A0F23340464263
:100CE000C6F1400228462146FFF7ABFE074688467C
:100CF000284621463246FFF715FA43463A46FFF7A3
:100D000066FF3246BDE8F041FFF79BBE0000F03FB2
:100D10000EB540F2334202920022CDE90022134682
:100D2000FFF764FF03B000BDC1F30A52C1F3130122
:100D300040F2FF3341F480119A4202DA002001466A
:100D4000704740F233439A42A2F2334202DC5242ED
:100D5000FFF7E8B9FFF775BE064C074D06E0E068FF
:100D600040F0010394E8070098471034AC42F6D3F2
:100D7000FFF7C0F990670008B0670008C0B24FF4F1
:100D8000F05100F001B800007F2801D9002208E0EE
:100D9000064A02EB5002C007127800D1120902F095
:100DA0000F02012090400840704700005067000883
:100DB00070B58C1810F8015B15F0070301D110F81D
:100DC000013B2A1106D110F8012B03E010F8016B4A
:100DD00001F8016B5B1EF9D12B0705D40023521ECD
:100DE0000DD401F8013BFAE710F8013BCB1A921C35
:100DF00003E013F8015B01F8015B521EF9D5A14233
:100E0000D8D3002070BD000070B50446006881682A
:100E1000C943C9071CD1816821F00101816000F03C
:100E200073FD05460FE000BF00F06EFD401B022879
:100E300009D9A06A40F01000A062E06A40F0010009
:100E4000E062012070BD20688068C043C007EBD01D
:100E5000002070BDF8B50026044600960068816841
:100E6000C943C90728D0816841F001018160134856
:100E700013490068B0FBF1F000E0401E009000282C
:100E8000FBD100F041FD054611E000BF00F03CFD44
:100E9000401B02280BD9A06A40F01000A062E06A53
:100EA00040F00100E06284F824600120F8BD206871
:100EB0008068C043C007E9D10020F8BD740200205B
:100EC00040420F000649002001224870A1F80401A9
:100ED00081F80601A1F80201024801F0E7BD000017
:100EE00018040020F0050020FEE77047022000F003
:100EF000FDBB7047024900EB8000096848637047FA
:100F0000A80500202DE9F041AAB0804602AE0024D9
:100F10004C4800F009FB32214A4800F06DFA49487C
:100F200000F0AAF9800504D5464800F0A7F946F874
:100F30002400641C022CEBDB424800F055FB0298B5
:100F400064214843A1EB103703983F4E4843040BFC
:100F5000307808B13D490D68A4F13C01282904D23C
:100F600018B963252846FFF7C5FF601E3B2805D248
:100F7000307818B901252846FFF7BCFF4FF400511F
:100F8000334800F0AFFC00285AD00026022231A1DD
:100F900005A803F0B3FF01222EA10AA803F0AEFFBB
:100FA0006C222CA10FA803F0A9FF3A4629A11EA884
:100FB00003F0A4FF224627A114A803F09FFF2A46AE
:100FC00024A119A803F09AFF324622A123A803F016
:100FD00095FF05A94046FFF7DFF81FA14046FFF740
:100FE000DBF80AA94046FFF7D7F81BA14046FFF7F8
:100FF000D3F80FA94046FFF7CFF817A14046FFF7F7
:10100000CBF81EA94046FFF7C7F813A14046FFF7EB
:10101000C3F814A94046FFF7BFF80FA14046FFF7F9
:10102000BBF819A94046FFF7B7F80BA14046FFF7F8
:10103000B3F823A94046FFF7AFF82AB0BDE8F08126
:101040000126A3E720050020300100203401002004
:1010500000100140257500005F00000010B532202F
:1010600003F09EFF0446FFF74DFF2046FFF7A0F870
:10107000C1B20448826A204690472046BDE810402D
:1010800003F060BFDC660008094A002152F83130E5
:10109000834208D802EBC1039B68834203D902EB69
:1010A000C10000797047491CC9B21529EED3FEE78B
:1010B00014660008F8B500250446009590F8240051
:1010C000012808D0012084F824002046FFF79CFE68
:1010D000060002D04BE00220F8BDA06A20F4885040
:1010E00040F00200A062022000F0BEFC2249096824
:1010F000B1FBF0F0400000E0401E00900028FBD162
:101100002046FFF7A7FE2068816841F00801816052
:1011100000F0FAFB074604E000F0F6FBC01B0A28CB
:1011200011D8206880680007F6D42068816841F0F3
:101130000401816000F0E8FB07460EE000F0E4FBEC
:10114000C01B0A2809D9A06A20F0020040F0100054
:10115000A06284F824500120F8BD20688068400710
:10116000ECD4A06A20F0020040F00100A06284F8F4
:1011700024503046F8BD000074020020F8B5002469
:10118000009490F824202546012A12D0012280F8EC
:1011900024204A681F23072A0DD20668776B521E47
:1011A00002EB820293409F430B6893401F43776397
:1011B00019E00220F8BD06680D2A0AD2376BD21F4B
:1011C00002EB820293409F430B6893401F433763B7
:1011D00009E0F76A0D3A02EB820293409F430B68E5
:1011E00093401F43F7620A68072306680A2A0AD356
:1011F000F7680A3A02EB420293409F438B689340A0
:101200001F43F76008E0376902EB420293409F43B7
:101210008B6893401F4337610A68102A01D0112A56
:1012200020D1124B02689A4217D193681B0219D43D
:10123000936843F4000393600968102912D10C49A4
:101240000C4A0968B1FBF2F101EB8101490000E0B1
:10125000491E00910029FBD104E0816A41F0200180
:101260008162012480F824502046F8BD002401400A
:101270007402002040420F00806A70470068C06C12
:10128000704700002DE9F0414FF0000704003D4693
:101290007ED0A06A002628B9E66284F82460204641
:1012A00000F07EF82046FFF7AFFDA16A01F01001C3
:1012B000014304D0A06A40F01000A06268E0A16A77
:1012C00021F4885141F00201A1626268E169237B47
:1012D0000A4347EA43010A43A1684FF48077B942C1
:1012E00008D0012906D0002194F814C0BCF1010FE8
:1012F00002D00AE03946F7E7F3B1A36A43F02003CE
:10130000A362E36A43F00103E3622368D3F804C0F5
:101310002CF4694C4CEA010CC3F804C023689968AA
:10132000DFF870C001EA0C0111439960A168B9426D
:101330000BD0012909D00CE0DFF85CC0A3690CEBED
:1013400043330B4343F40061DFE7218A0D05A5F524
:1013500080152168CB6A23F470032B43CB6221688C
:1013600089680E4B1940914208D1E662A16A21F0CA
:10137000020141F00101A162BDE8F081A06A20F004
:10138000020040F01000A062E06A40F00100E0625C
:101390000120F1E7FDF7E1FF00E0FFFFFE0E1FFF78
:1013A00000B585B000210091019102910391006880
:1013B0000E49884218D10E48816941F4007181615B
:1013C000816901F400710491816941F00401816136
:1013D0008069694600F00400049005200090032015
:1013E0000190044800F08EF905B000BD00240140D2
:1013F00000100240000801402DE9F84300260D4688
:101400000446009600F080FA804620688168C9058D
:1014100008D5A06A40F02000A06284F82460012072
:10142000BDE8F8834168C90503D4C06A10F4700FA1
:1014300026D0022000F018FB38490968B1FBF0F70C
:101440002068036936490B424FEA61014FEAA11255
:101450001BD1C3684FEA611C13EA0C0F15D1036955
:101460000B4221D1C06810421ED114201FE0681C1D
:1014700006D045B300F048FAA0EB0800A84222D8F5
:10148000206800688007F2D52AE003690B4202D188
:10149000C168114206D0026922490A4206D1C068D9
:1014A000084203D1542002E0292000E0FC204743F9
:1014B000009813E0681C0ED02DB100F025FAA0EBC7
:1014C0000800A84207D9A06A40F00400A06284F88E
:1014D00024600320A4E70098401C0090B842E9D3A0
:1014E00021686FF012000860A06A40F40070A062EA
:1014F00020688068C0F3424007280CD1207B50B997
:10150000A06A20F48070A062A06AC00403D4A06A1C
:1015100040F00100A062002082E700007402002079
:10152000244992244992240070B5044690F824007E
:1015300001280DD0012084F824002046FFF78AFC02
:1015400002004FF0000005D084F82400104670BD62
:10155000022070BDA16A40F20123994341F48071D9
:10156000A1621F4D23681F49AB4218D10E6816F4C3
:10157000702F14D0A66A46F48016A6620E6876050F
:1015800005D5A66A26F4005646F48056A662A66AD9
:10159000F6040AD5E66A26F00606E66206E0A66AC2
:1015A00026F48016A6625E68E9E7E06284F824000B
:1015B0006FF00200186020688368C3F34243072B72
:1015C00005D1A84208D1096811F4702F04D08168B0
:1015D00041F480118160B9E7816841F4A001F9E725
:1015E000002801400424014010B5044690F824006E
:1015F000012807D0012084F824002046FFF704FCCE
:1016000010B107E0022010BDA16A21F4885141F019
:101610000101A162002184F8241010BD10B590F8DA
:1016200021100024022903D00421816301243DE01C
:1016300001680A6822F00E020A6001680A6822F056
:1016400001020A601A4A0168914201D1012121E098
:10165000174A1432914201D110211BE0144A28325A
:10166000914201D1891515E0114A3C32914201D1D4
:1016700089140FE00E4A5032914202D14FF480316A
:1016800008E00B4A6432914202D14FF4801101E02C
:101690004FF08071064A083A5160012180F821100C
:1016A000002180F82010416B01B18847204610BD11
:1016B0000800024070B5044600F026F90546601C9B
:1016C00002D004480078044400F01EF9401BA042F8
:1016D000FAD370BD68020020022804D10248406895
:1016E000002800D0004770474C020020044910B584
:1016F0000A68024202D00860FFF7EEFF10BD00004A
:10170000140401402DE9F84FDFF8B891002409F1E5
:10171000040A0AF1040B23460F270BF1040EC9E05B
:101720000125A5402A40AA427DD1674ED1F804C0C8
:10173000ACEB0608B44532D014DCBCF1030F3AD050
:1017400009DCBCF1000F2AD0BCF1010F1CD0BCF1A8
:10175000020F31D11DE0BCF1110F17D0BCF1120FF7
:101760002AD119E0B8F5881F19D006DCB8F5803FFA
:1017700015D0B8F5801F1FD111E0B8F5001F0ED0AD
:10178000B8F5041F18D10AE0CB6815E0CB681B1D23
:1017900012E0CB6808330FE0CB680C330CE08B68A9
:1017A0002BB1012B4FF0080303D0456104E0042363
:1017B00002E0056100E00023FF2A01D8064601E0AF
:1017C00000F104064FEA840501D9A5F12005D6F8F9
:1017D000008007FA05FC28EA0C0803FA05F548EA38
:1017E0000508C6F800804D68ED0062D5374DAE693A
:1017F00046F00106AE61AD6924F0030605F001056F
:101800000095334D06EB050CDCF80850A607360FA3
:1018100007FA06F825EA0805DFF8B880404503D145
:101820004FF0000817E044E0DFF8AC80404502D1FB
:101830004FF001080FE0DFF8A480404502D14FF0DF
:10184000020808E0DFF89880404502D14FF0030815
:1018500001E04FF0040808FA06F848EA0508CCF859
:1018600008804D68D9F80060ED034D4601D5164358
:1018700000E096432E604D68DAF80060AD035546EF
:1018800001D5164300E096432E604D68DBF80060FA
:10189000ED025D4601D5164300E096432E604D688B
:1018A000DEF80060AD02754601D5164300E09643B0
:1018B0002E60641C0D682A46E5407FF431AFBDE818
:1018C000F88F0000000401400000111000100240D9
:1018D0000000014000080140000C014000100140E0
:1018E000001401408068084000D001207047C268A1
:1018F00021EA02030A4043EA0241016170470AB14A
:10190000016170470904FBE70148806870470000E7
:1019100068020020024881680278114481607047A3
:1019200068020020074810B5016841F0100101600D
:10193000032000F075F8002000F006F800F024F80D
:10194000002010BD0020024070B50D4D04464FF43C
:101950007A712878B1FBF0F00A490968B1FBF0F020
:1019600000F05BFD48B9102C07D200222146501E22
:1019700000F036F800206C6070BD012070BD0000E2
:1019800068020020740200200C4808B5816941F00B
:1019900001018161816901F001010091C16941F09A
:1019A0008051C161C06900F08050009004484168D6
:1019B00021F0E06141F08061416008BD001002400B
:1019C00000000140002809DB00F01F0201219140C6
:1019D0004009800000F1E020C0F8001170470000CD
:1019E000F0B40E4B1B680C46C3F30223C3F107058A
:1019F000042D00D90425191D072901D2002300E078
:101A0000DB1E012606FA05F1491E214099409E4041
:101A1000761E16403143F0BC03F084BA0CED00E0B2
:101A2000064900F0070208684FF6FF03184040EA35
:101A30000220034A10430860704700000CED00E0EC
:101A40000000FA05BFF34F8F05480168054A01F40D
:101A5000E06111430160BFF34F8F00BFFDE700005D
:101A60000CED00E00400FA0510B529A401461DCCD8
:101A700086B08DE81D002AA02A4C00680490002042
:101A8000012923D002293AD010291DD1616822688A
:101A9000D20119D5C1F38342C9031DF8020009D54B
:101AA000616804AAC1F34041515C1F4AB2FBF1F1E5
:101AB000484301E01D4948436168490204D440009D
:101AC0005FF00301B0FBF1F006B010BD226AC2F373
:101AD0000121012903D1920701D5C803F4E70229A6
:101AE00005D1626A920702D549F64040ECE7032926
:101AF000EAD121688903E7D54FF22440E4E700F0FA
:101B000033F96168C1F38131491C4900DAE700000B
:101B100002030405060708090A0B0C0D0E0F10102E
:101B2000010200000010024000127A0000093D008E
:101B30002DE9F84305460078354CC00754D0E069DC
:101B40000026C00008D4E06940F08050E061E06900
:101B5000012600F0805000902E480168C90512D47B
:101B60000168804641F480710160FFF7CDFE0746B1
:101B700005E000BFFFF7C8FEC01B642823D8D8F8D3
:101B80000000C005F6D5206A10F4407021D0A98865
:101B900001F4407181421CD0206A1F49012220F4C7
:101BA00040700A6000220A602062C00711D0FFF76F
:101BB000ABFE074641F2883808E000BFFFF7A4FEFD
:101BC000C11B414502D90320BDE8F883206A800784
:101BD000F4D5206A696820F44070084320621EB181
:101BE000E06920F08050E0612878800705D56068C2
:101BF000A96820F44040084360602878C00605D5F5
:101C00006068E96820F48000084360600020DBE73A
:101C10000010024000700040400442422DE9F047AD
:101C20000F46050061D0434E306800F00700B8420F
:101C300009D2306820F0070038433060306800F087
:101C40000700B84251D128683B4C810712D54007A4
:101C500003D5606840F4E06060602878000703D531
:101C6000606840F4605060606068A96820F0F0002F
:101C7000084360602878C00728D06868012810D021
:101C80002168022810D0890700292EDA616821F026
:101C9000030101436160FFF737FE804641F2883956
:101CA0000DE021688903EFE78901EDE7FFF72CFEDE
:101CB000A0EB0801494502D90320BDE8F087606820
:101CC000696800F00C00B0EB810FEFD1306800F0D4
:101CD0000700B8420BD9306820F007003843306065
:101CE000306800F00700B84201D00120E5E728780D
:101CF000400705D56068E96820F4E060084360604B
:101D00002878000706D56068296920F4605040EA09
:101D1000C100606000F038F86168084AC1F303113F
:101D2000515CC8400649086006480068FFF70CFE91
:101D30000020C2E70020024000100240386700087F
:101D4000740200206C0200200448054900684968BC
:101D5000044AC1F30221515CC8407047740200205C
:101D600000100240486700080448054900684968B7
:101D7000044AC1F3C221515CC8407047740200207C
:101D8000001002404867000812A185B00FC98DE815
:101D90000F0014A0144A006804905168134801F021
:101DA0000C03042B10D0082B0ED1C1F38343C903BD
:101DB0001DF803000AD5516804AAC1F34041515CE3
:101DC0000A4A5043B0FBF1F005B070470849484358
:101DD000FAE7000002030405060708090A0B0C0DC8
:101DE0000E0F1010010200000010024000127A00D5
:101DF00000093D002DE9F84F040070D02078C04D57
:101E0000C00749D06868C0F38100012807D068681E
:101E1000C0F38100022809D16868C00306D528688C
:101E2000800339D560680028E7D035E06068B0F5F8
:101E3000803F0BD010B1B0F5A02F11D0286820F44E
:101E400080302860286820F4802002E0286840F470
:101E500080302860606890B1FFF756FD06460AE0C2
:101E6000286840F480202860F0E700BFFFF74CFDB1
:101E7000801B642873D828688003F7D50CE0FFF72F
:101E800043FD064605E000BFFFF73EFD801B6428CA
:101E9000F0D828688003F7D420789A4E80074FF056
:101EA00001094FF0000839D5686810F00C0F07D011
:101EB0006868C0F38100022809D16868C00306D4AD
:101EC0002868800714D52069012808D110E020690E
:101ED000B0B1C6F80090FFF717FD074605E00AE12C
:101EE000FFF712FDC01B0228C4D828688007F7D569
:101EF0002868616920F0F80040EAC10028600DE020
:101F0000C6F80080FFF700FD074604E0FFF7FCFC81
:101F1000C01B022823D828688007F7D42078000740
:101F20002CD57948A169D9B1C0F80090FFF7ECFC35
:101F3000074604E0FFF7E8FCC01B02280FD8686AD8
:101F40008007F7D571484FF4FA510068B0FBF1F003
:101F5000009000BF0098411E0091FAD20EE080E090
:101F6000C0F80080FFF7D0FC074604E0FFF7CCFC88
:101F7000C01B022875D8686A8007F7D4207840070C
:101F800060D5E8690027C00008D4E86940F08050B7
:101F9000E861E869012700F0805000905C48016822
:101FA000C90513D40168834641F480710160FFF7CD
:101FB000ABFC824606E000BFFFF7A6FCA0EB0A00E0
:101FC00064284ED8DBF80000C005F5D5E06801288C
:101FD0000AD008B1052813D0286A20F00100286231
:101FE000286A20F0040002E0286A40F0010028621C
:101FF000E06841F2883B98B1FFF786FC82460BE02F
:10200000286A40F004002862EEE700BFFFF77CFC7E
:10201000A0EB0A0159455AD8286A8007F6D50CE08A
:10202000FFF772FC824605E0FFF76EFCA0EB0A01A9
:1020300059454CD8286A8007F6D41FB1E86920F0CA
:102040008050E861E06988B36968C1F381010229C1
:1020500044D00228C6F8608004D0FFF755FC04463F
:1020600038E034E0FFF750FC074604E0FFF74CFC93
:10207000C01B02282BD828688001F7D4206AB0F54D
:10208000803F05D16868A16820F40030084368608B
:10209000D4E908010843696821F4741108436860B1
:1020A000C6F86090FFF730FC044606E025E000BF6C
:1020B000FFF72AFC001B022809D828688001F7D501
:1020C0001BE000BFFFF720FC001B022802D9032001
:1020D000BDE8F88F28688001F4D40EE00128F7D01D
:1020E0006868226A00F48031914204D1616A00F488
:1020F0007010884201D00120EAE70020E8E70000E4
:10210000001002400000424280044242740200205B
:102110000070004070B5040009D0606A002540B12D
:1021200025616561A56294F8510040B10CE0012081
:1021300070BD6068B0F5827FF4D0E561F2E784F8A5
:102140005050204600F040F8022084F851002068EA
:10215000016821F040010160A088218900F48270AB
:1021600001F404410843A18901F400610843217C82
:1021700001F002010843217D01F001010843218B98
:1021800001F400710843217F01F03801084394F8FD
:10219000201001F080010843218D01F40051084313
:1021A00021680860A069042101EA104021684860A4
:1021B0002068C16921F40061C1616565012084F86E
:1021C0005100002070BD000030B585B0002400949F
:1021D00001940294039400681449884223D114485E
:1021E000816941F480518161816901F480510491D8
:1021F000816941F00401816180690E4D00F00400A5
:102200000490A020009002200190032003906946D2
:102210002846FFF777FA4020CDE9000469462846B2
:102220000294FFF76FFA05B030BD000000300140A6
:1022300000100240000801402DE9F84F044690F8D4
:10224000500000270A9E1D4692468B464FF001091A
:1022500001280ED0012084F85000FFF755FB80467E
:1022600094F85100616801280CD0B1F5827F07D144
:1022700002E00220BDE8F88FA16809B9042801D066
:102280000227C2E0BBF1000F27D0BAF1000F24D023
:102290001DB394F85100042802D0052084F85100A1
:1022A00000206065C4F838A0E587A587C4F830B081
:1022B000E586A5862064606420680168490603D429
:1022C000016841F040010160E068B0F5006F6068AE
:1022D00005D0E8B3012D46D07FE0012795E008B195
:1022E000012D39D1206B21680088C860206B801CCB
:1022F0002063E08E401EE0862EE02068816889071A
:102300000FD5E18E69B1B9F1010F0AD1216B0988AE
:10231000C160206B801C2063E08E401EE0864FF081
:10232000000920688168C9070CD0E18F51B1C068ED
:10233000A16B0880A06B801CA063E08F401EE0872B
:102340004FF00109FFF7E0FAA0EB0800B04200E00F
:1023500009E001D3701C50D1E08E0028CDD1E08F70
:102360000028CAD13FE0206B216800780873206BF9
:10237000401C2063E08E401EE0862EE020688168CD
:1023800089070FD5E18E69B1B9F1010F0AD1216B2F
:1023900009780173206B401C2063E08E401EE086AC
:1023A0004FF0000920688168C9070CD0E18F51B156
:1023B000C068A16B0870A06B401CA063E08F401E3A
:1023C000E0874FF00109FFF79FFAA0EB0800B04249
:1023D00002D3701C01D010E07EB1E08E0028CDD178
:1023E000E08F0028CAD142463146204600F00EFF59
:1023F00028B101272020606507E0032705E0A068D9
:1024000018B92068C16880680090012084F85100E4
:10241000002084F8500038462CE710B5401EB0F17B
:10242000807F01D3012010BD4FF0E02460610F21B7
:10243000601702F077FD0020A061072020610020D6
:1024400010BD10B590F83C20012A22D0012280F85E
:102450003C20CA688C6822F4407222434C6822F403
:10246000806222430C6822F4006222430C6922F449
:10247000805222434C6922F400522243C96900234E
:1024800022F480420A4301684A6480F83C3000200C
:1024900010BD022010BD000070B590F83C20012A4C
:1024A00026D0012480F83C40022280F83D200368B9
:1024B0005A689D6822F070060A6832435A600D4BD4
:1024C00002689A4208D0B2F1804F05D00A4B9A4276
:1024D00002D00A4B9A4204D1496825F0800319437F
:1024E000916080F83D40002180F83C10084670BDA6
:1024F000022070BD002C0140000400400008004094
:1025000010B5040003D094F83D0010B107E001209D
:1025100010BD002084F83C00204600F01FF8022087
:1025200084F83D00211D206802F018FA012084F88B
:10253000460084F83E0084F83F0084F8400084F8A8
:10254000410084F8420084F8430084F8440084F891
:10255000450084F83D00002010BD000008B500686B
:102560000649884208D10648816941F400618161C9
:10257000806900F40060009008BD0000002C01405C
:102580000010024070B5044690F83C00012817D0B6
:10259000012584F83C50022084F83D0020688268C0
:1025A00022F0770222F47F4282600868502830D0FF
:1025B0000DDC20284DD005DC98B310283BD148E035
:1025C000022070BD302844D0402834D139E0602842
:1025D00028D0702806D0B0F5805F2CD0B0F5005F11
:1025E00029D10AE0CB68D1E90121206802F0F9F98C
:1025F0002068816841F0770109E0CB68D1E90121C9
:10260000206802F0EEF92068816841F48041816021
:1026100011E0CA684968206802F098FA50212068E1
:1026200007E016E0CA684968206802F0A0FA602155
:10263000206802F0E0F984F83D50002084F83C0066
:1026400070BDCA684968206802F080FA402120689D
:10265000EFE7226801461046EBE7000000B585B0C1
:102660000021009101910291039100680B49884279
:1026700012D10B48816941F004018161806969468A
:1026800000F0040004904FF480700090022001904C
:1026900003900448FFF736F805B000BD002C014058
:1026A000001002400008014070B5044690F83C005C
:1026B0000D4601280AD0012084F83C0042B1042ACA
:1026C00018D0082A2AD00C2A4DD139E0022070BD3A
:1026D000206802F099F92068816941F00801816160
:1026E0002068816921F004018161206881692A697B
:1026F000114311E0206802F0AFF92068816941F4CC
:10270000006181612068816921F4806181612068B4
:1027100081692A6941EA0221816124E0206802F08E
:10272000C7F92068C16941F00801C1612068C16929
:1027300021F00401C1612068C1692A69114311E0D7
:10274000206802F0E1F92068C16941F40061C161CB
:102750002068C16921F48061C1612068C1692A696A
:1027600041EA0221C161002084F83C0070BD10B52F
:10277000040003D094F83D0010B107E0012010BD23
:10278000002084F83C00204600F01EF8022084F867
:102790003D00211D206802F0E1F8012084F8460088
:1027A00084F83E0084F83F0084F8400084F841003B
:1027B00084F8420084F8430084F8440084F845001B
:1027C00084F83D00002010BD7047000010B504469D
:1027D000022249B104290ED0082913D094F84100EF
:1027E000012816D0012010BD94F83E000128F9D12F
:1027F00084F83E200FE094F83F000128F2D184F8DD
:102800003F2008E094F840000128EBD184F84020F4
:1028100001E084F841200122206802F0D5F80F4938
:102820002068884203D1426C42F40042426420682E
:10283000884208D0B0F1804F05D00949884202D0C3
:102840000849884204D1816801F00701062903D0B4
:10285000016841F001010160002010BD002C014021
:1028600000040040000800407047000070B5026896
:1028700004461068D168536910F00F0F53D003F06D
:10288000010501F490762E435FD0C20705D0CA053A
:1028900003D5E26B42F00102E263420705D5DA0795
:1028A00003D0E26B42F00202E263820705D5DA0749
:1028B00003D0E26B42F00402E263020707D501F0A5
:1028C00020022A4303D0E26B42F00802E263E26B8B
:1028D000002A34D0800604D5880602D5204602F0AE
:1028E00009FA20684069E16BC0F3801001F008012B
:1028F0000143204624D002F0EFF9206841694906DF
:102900001AD5416921F040014161606BA0B12D49A8
:102910004163606BFEF782FE002810D0606B416B54
:10292000BDE87040084783060FD58B060DD52046BD
:10293000BDE8704002F0DEB92046FFF795FF70BD9C
:10294000FFF792FF0020E06370BD03062BD50B0656
:1029500029D594F839002128F6D1A068B0F5805F18
:1029600001D12069B0B1206A411C21622168007840
:102970004860E08C401E0004000CE084E4D1206834
:10298000C16821F08001C1602068C16841F0400148
:10299000C16070BD206A0088C0F308005060206AE2
:1029A000801C2062E5E74006F3D54806F1D5D168E2
:1029B000204621F04001D160202184F8391000F038
:1029C0001CF970BDC94C000870B5040004D094F81F
:1029D0003900002510B106E0012070BD84F83850A0
:1029E000204600F023F8242084F839002068C168CC
:1029F00021F40051C160204602F0C2F9206801694B
:102A000021F4904101612068416921F02A0141616E
:102A10002068C16841F40051C160E563202084F85A
:102A2000390084F83A00002070BD000030B585B050
:102A30000024009401940294039400681849884289
:102A40002CD11848816941F480418161816901F488
:102A500080410491816941F0040181618069124DD6
:102A600000F0040004904FF40070009002200190E8
:102A70000320039069462846FEF744FE2815CDE959
:102A80000004694628460294FEF73CFE002201211C
:102A90002520FEF7A5FF2520FEF794FF05B030BDE9
:102AA00000380140001002400008014090F83A3020
:102AB000202B22D1F9B1F2B190F83830012B1CD083
:102AC00081628285C2850021C163222280F83A207A
:102AD00080F838100168CA6842F48072CA600168E0
:102AE0004A6942F001024A610068C16841F0200170
:102AF000C16000207047012070470220704700002D
:102B00000F4910B5884219D10E4801460278B1F834
:102B100004110D2A0DD0431CCA54B0F80411491CED
:102B2000A0F80411BDE81040012206490448FFF74F
:102B3000BDBFA0F8021102F0C5F9F3E710BD000017
:102B4000F0050020180400202DE9F843044690F811
:102B500039001F4616460D4620284CD1C5B1BEB1DE
:102B600094F83800012846D0012084F838004FF04E
:102B70000008C4F83C80212084F83900FEF7C4FE28
:102B8000A6848146E684A068B0F5805F03D004E0A7
:102B90000120BDE8F883206928B12E465FF00005CA
:102BA00084F838800EE00026FAE78021204602F003
:102BB00043F9A0B9AEB116F8010B21684860E08C6A
:102BC000401EE084E08C4B464FF000020097002846
:102BD000EBD14FF04001204602F02EF930B1032036
:102BE000D7E735F8020BC0F30800E6E7202084F8A9
:102BF00039000020CDE70220CBE77047022803D13F
:102C0000002901D001484160704700004C020020BB
:102C10000EB501238DF8080000208DF80400642013
:102C2000009001AA02A90348FFF706FB9DF80400E3
:102C30000EBD000050050020044B20B101221021E0
:102C40001846FEF75CBE0022F9E7000000080140CC
:102C5000044B20B1012201211846FEF750BE00228C
:102C6000F9E70000000C0140044B20B101220421CF
:102C70001846FEF744BE0022F9E70000000C0140B0
:102C8000FEE70000FEB500241648009401941449A4
:102C9000029401608915816004730125057502267F
:102CA00006614FF460214460C0E90651FEF7EAFA7C
:102CB00008B1FEF71EF9CDE90045694609480294BE
:102CC000FEF75CFA08B1FEF714F90096694605486C
:102CD0000196FEF753FA002801D0FEF70AF9FEBD6F
:102CE00000240140200500202DE9F04385B0002498
:102CF00038480094019402940394816941F01001D2
:102D00008161816901F010010491816941F0200124
:102D10008161816901F020010491816941F0040120
:102D20008161816901F004010491816941F0080128
:102D300081618069284F00F008004FF4005504902D
:102D4000002229463846FEF7DAFDDFF8909000228F
:102D500010214846FEF7D3FDDFF8848000221521BC
:102D60004046FEF7CCFD0126CDE900560225694616
:102D70003846CDE90245FEF7C5FC1A480095CDE975
:102D8000010469464846FEF7BDFC1020CDE9000667
:102D900069464846CDE90245FEF7B4FC1520CDE969
:102DA000000669464046CDE90245FEF7ABFCA803A4
:102DB000CDE90004694648460294FEF7A3FC0022D0
:102DC00011460720FEF70CFE0720FEF7FBFD05B0BD
:102DD000BDE8F083001002400010014000080140EF
:102DE000000C0140000011100F4810B50D490160A2
:102DF0004FF48271416000218160C1604FF4007224
:102E00000161C0E90512C1610162416281620A216A
:102E1000C162FFF77FF9002803D0BDE81040FEF73C
:102E200068B810BD003001405005002010B596B0C4
:102E300000240F9410941194129413941C2108A848
:102E40001494FDF79EF920216846FDF79AF9294868
:102E5000274901604721C0E9011440F2F311C0E99C
:102E600003148021C0E90541FFF74AFB08B1FEF7D2
:102E700040F84FF480500F900FA91E48FFF782FBD7
:102E800008B1FEF736F81B48FFF771FC08B1FEF7F2
:102E900030F8139413A917481494FFF7FDFA08B1FA
:102EA000FEF727F86020CDE908040A940B940C94EF
:102EB0000D94002208A90F480E94FFF7F5FB08B106
:102EC000FEF717F800944FF40050CDE90440029447
:102ED00001940394694607480794FFF7B2FA08B1D2
:102EE000FEF707F80348FFF7B9FB16B010BD000066
:102EF000002C0140A80500200C4810B50A490160CB
:102F00004FF4E1314160002181600C22C160C0E9D1
:102F100004128161C161FFF757FD002803D0BDE8AD
:102F20001040FDF7E6BF10BD00380140F00500205D
:102F3000FEE7704710B5044606A001F0CFFF084831
:102F4000416B14B14FF4FA6000E00020BDE810407E
:102F50000847000063616420646F6E650D0A00001D
:102F6000DC660008F0B5304CC1B00A46618001460D
:102F700004F10800FDF7ECF86188481EF72850D8E6
:102F80006846FDF7FEF8628804F108016846FDF71F
:102F9000DFF804F584726188684602F0EFFD62880C
:102FA000694622A001F09AFF684602F003FD07007F
:102FB00004D124A001F092FFFEF744FD2BA1384676
:102FC00002F0EAFC06462CA1384602F0E5FC054674
:102FD0007EB170696060411E63290AD221780128A0
:102FE00002D021B9012101E009B100212170FDF7D2
:102FF00081FF6DB16869234B4FF40051012801D066
:1030000010B105E0002200E001221846FEF777FC2F
:10301000384601F097FF304601F094FF284601F052
:1030200091FF41B0F0BD0000300100206465637283
:103030007970743A25732073697A653A25640D0AAC
:10304000000000004E6F74207374616E64617264DE
:1030500020636A736F6E20646174612C20726573E3
:103060006574696E672E2E2E0D00000046616E534A
:1030700070656564000000004C6967687453746192
:10308000740000000010014010B507A001F026FFF9
:103090000848416B0020884707A001F01FFFBDE8EA
:1030A0001040FEF7CFBC00007278206572726F721C
:1030B0000D0A0000DC6600087265736574696E674E
:1030C0002E2E2E0D0000000010B507A001F006FF07
:1030D0000948416B0020884708A001F0FFFEBDE8C9
:1030E0001040FEF7AFBC000072782074696D656F08
:1030F00075740D0A00000000DC66000872657365D7
:1031000074696E672E2E2E0D0000000010B504A00D
:1031100001F0E4FE0548416BBDE81040002008477F
:10312000747820646F6E650D0A000000DC6600088C
:1031300010B507A001F0D2FE0948416B0020884776
:1031400008A001F0CBFEBDE81040FEF77BBC0000FC
:1031500074782074696D656F75740D0A0000000045
:10316000DC6600087265736574696E672E2E2E0D1D
:10317000000000007047000070B5092000F069FDF4
:103180000546062000F065FD0404072000F061FDFF
:1031900044EA0024082000F05CFD2043FDF778FBA2
:1031A0000022184BFDF76BFAFDF79EFB0446002149
:1031B000092001F077FB3B2000F04BFD40F040017F
:1031C0003B2001F06FFB3B2000F043FD8006FAD46A
:1031D0000D4800F017FE3B2000F03BFD40F04001A1
:1031E0003B2001F05FFB3B2000F033FD8006FAD46A
:1031F0002946092001F056FB2046BDE8704000F04A
:1032000001BE000080844E4000A1BC3338B50B469F
:10321000009204460022802100F008F8002804D023
:10322000606D40F020006065032038BD2DE9F84353
:103230001E46914688460446089DFEF765FB401BE6
:10324000351AFEF761FB074625480068C0F3CB300E
:10325000684338E0701C37D0FEF756FBC01BA8420D
:1032600003D215B1009860B32CE02068416821F0CA
:10327000E00141606068B0F5827F0BD1A068B0F5D5
:10328000004F02D0B0F5806F04D12068016821F0B2
:1032900040010160A06AB0F5005F09D120680168B3
:1032A00021F4005101602068016841F4005101607F
:1032B000012084F85100002084F850000320BDE86C
:1032C000F8830025401E00902068816838EA0100DC
:1032D00004D000214945BDD10020F0E70121F9E7E4
:1032E0007402002070470000F0B58BB000F056F873
:1032F00022482149274D01602149816021494160CF
:103300002149C160214901612149816129688847BA
:10331000E96821488847A96801208847002442F2CB
:10332000283005940694CDE9074001260827072098
:10333000CDE901670090CDE903460223D5F81CC012
:10334000224614213046E047CDE90846CDE904463F
:10335000069440F2FF300794CDE90204CDE900471E
:1033600001230722AC6902211846A047696B0BB004
:103370000020BDE8F04008470D310008FC030020A4
:10338000652F000831310008C93000088930000875
:10339000352F0008DC660008D858F61900F054B93B
:1033A000012070470349884201D2802070470020E5
:1033B0007047000040DD4A1F0148007D7047000053
:1033C000840300202DE9F34F0200714981B04FF0D2
:1033D00000000BD0012A7DD10024486D2546072826
:1033E00053D0082854D0092857D154E08A46C86AD7
:1033F000FDF74EFA06460F460298FDF749FA804659
:103400008946302000F025FC30F0F9004FF0000430
:1034100001D0604D00E00025272000F01AFC20F0CC
:10342000F800BAF83010401C0844FDF731FA9AF859
:103430003220012A4FF0000222D0564BFDF778F8D7
:1034400022462B46FDF774F842464B46FDF770F8CE
:103450009AF83420012A4FF0000213D05FF00003E5
:10346000FDF766F80322FDF7EBF932463B46FDF720
:1034700078F90022484BFDF702F902F0B3FF7FE034
:103480000023DBE74FF08043EAE70024434D04E0EC
:103490000024434D01E0434D00243D4E012056F8E9
:1034A000587FB840FDF7E3F902460B46204629460F
:1034B000FDF757F902460B4600203649FDF751F952
:1034C00004460D46F088FDF7E3F90022364BFDF780
:1034D0002FF800E059E022462B46FDF7D0F883464E
:1034E00000917079001DFDF7D3F980463079894647
:1034F00000B10220381A8000FDF7CAF9064602988A
:103500008A46C10022487A4201EB820190F862208B
:1035100090F8600001EB021100B11420081A1C3071
:10352000FDF7B6F932465346FDF71BF902F0B8FA3B
:1035300042464B46FDF7A3F8002207460E461346C7
:10354000FDF704FA02D23846314601E00020014678
:103550000022164BFCF7ECFF22462B46FDF78FF8B6
:1035600002460B4658460099FCF7E2FF00220A4B40
:10357000FDF785F80E4A0F4BFCF7DAFF02F046FB29
:1035800003B0BDE8F04FFDF7AFB9BDE8FE8F000016
:10359000840300200000F03F00408F408084FE4004
:1035A00080840E4180841E410000114000002040B4
:1035B0002B8716D9CEF7EF3F7047000070B51D4935
:1035C0001D4C0122086040F6B83625681B4B314679
:1035D0001046A84701222568184B31460220A8470B
:1035E00024680122154B31460320A04700F0AAFCB5
:1035F000FFF7C2FD002000F079FC0E480C3000F00F
:103600002BF80F4D002400BF04EB4406A85D00F02A
:1036100033FC70198178407801F044F9641CE4B2FD
:10362000102CF1D3002000F027FC0649002008757B
:1036300070BD000004010020C4660008093C0008B9
:10364000E46500088403002010B5FFF7B5FFBDE86E
:1036500010400120FFF7F0BA01680220FFF7CEBA50
:103660002DE9F0411E4617460C468046012500F024
:1036700003FC204600F0C6FB052000F037FC0120CB
:1036800002F0C2FA02F0EAFB044606E0404600F00F
:1036900007FBB84201DD002504E002F0DFFB001B60
:1036A000B042F3D300F0F8FE2846BDE8F0810000F8
:1036B0002DE9F84300258DF800509D4C9D4F9E4EFE
:1036C000207D012814D0022872D003285AD112205C
:1036D00000F0BFFAC0076CD00521122001F0E2F81B
:1036E000306800284ED0816900294BD001201BE1B1
:1036F000607DB8B1012845D14021122001F0D2F8F7
:10370000122000F0A6FA8DF800009DF80000800657
:103710007ED52021122001F0C5F894F8660000281B
:1037200077D088E094F83400012832D13F2000F0AF
:1037300090FA8DF800009DF80000800729D40B2135
:103740003E2001F0AFF810213F2001F0ABF8F968FE
:103750000220884794F83600B0B10D2000F079FAC5
:1037600040F040010D2001F09DF8B9680320884722
:10377000306810B1006900B1804704F8405F65709F
:10378000A5816581BDE8F883F96803208847257520
:10379000EEE7B4F84A10DFF8A48111B9B4F84C0090
:1037A00040B1B4F84C00091AC9B240444A340FE0A1
:1037B0009AE0AEE094F8320060B3322000F049FAAB
:1037C000A4F84A0014F84A1F6088091AC9B2404494
:1037D00000F061FA34F8020B24F84C09F968022071
:1037E000884794F8360010B30D2000F032FA40F00C
:1037F00040010D2001F056F8B96803208847306871
:103800000028BAD08668002EB7D094F9422002E092
:1038100019E00FE005E0B4F84A1000234748B0472C
:10382000ABE7434801214A3000F035FACAE7257575
:10383000F968E2E72575F9680220884730680028B2
:10384000A0D000695FE0192000F003FA40B2A04662
:1038500084F87000010605D5C043401CC0F3850004
:10386000444201E0C0F385041A2000F0F2F9344A22
:10387000D8F81830002C06DA00EB201093422044D0
:1038800005D99D3804E0934200EB2010F9D8A43804
:10389000A8F87200132000F0DCF988F874001020FA
:1038A00008F1660400F0D5F901460D2000F0FAFF9A
:1038B000A17B224800F0EFF914F8660900B92575DC
:1038C000F9680220884730680028B9D08568002D43
:1038D000B6D014F9703FAC46B4F90220217901B09A
:1038E0001648BDE8F0436047F96801208847607DCD
:1038F000012803D10821122000F0D4FF257530687B
:1039000000289DD0006800289AD001B0BDE8F0439F
:1039100000470421122000F0C5FF306800288FD036
:10392000816900298CD0002001B0BDE8F043084730
:1039300084030020C46600080401002084020020E3
:1039400040DD4A1F0149012008707047080100202E
:1039500070B5324C2046237D427DB0F84A10B0F855
:103960004C00A4F58075012B15D0022B12D1002A32
:1039700010D10A1A234694F84F10B3F84C30284659
:1039800018448A4243DD00F0ACFF34F84C0FE17874
:103990000844208070BDAAB1012AFBD12048C1682B
:1039A000022088478021122000F07CFF0020207533
:1039B0001C4800680028EDD0C0680028EAD0BDE8A7
:1039C0007040004741B938B994F83200A0B13220B4
:1039D00000F03FF9A4F84A00B4F84A10B4F84C00DB
:1039E0000A1A94F84E108A420CDD284400F053F96C
:1039F00034F84C0FA178CBE7084801214A3000F099
:103A00004AF9E9E7D1B2284400F045F902E0D1B221
:103A100000F067FF34F84A0F608070BD8403002017
:103A2000C466000804010020014901204870704765
:103A30000801002070B52C4C2C4D2046227D417D84
:103A400090F86300012A03D0022A00D109B970BDA1
:103A5000B9B10129FBD10128F9D10221122000F0CE
:103A600021FF28680028F2D040690028EFD01C20F0
:103A700000F0EFF8296800F03F004969BDE87040A8
:103A800008476089012560B394F840000128DED121
:103A900094F841000028DAD11548C168032088470E
:103AA00004F8415F112000F0D4F8400840426070F3
:103AB0001C2000F0CEF805461B2000F0CAF845EAAD
:103AC0000020FCF7E5FE00220A4BFCF7D8FDFCF7CE
:103AD000ECFEC4F803000C2000F0BBF84009E071D4
:103AE00070BD84F84050D3E7840300200401002017
:103AF000C466000880844E400149012088707047E8
:103B00000801002001490120C87070470801002009
:103B10000548417D002906D190F84010002902D1C6
:103B2000012180F840107047840300202DE9F04700
:103B3000314CDFF8C8904FF00008207D01282CD0D0
:103B4000022857D100F0FEF9FFF716FB002000F025
:103B5000CDF92B4E002500BF05EB4507F05D00F0C9
:103B60008BF9B8198178407800F09CFE6D1CEDB29D
:103B7000102DF1D3002000F07FF994F86C0000F0D4
:103B8000CDF984F81480D9F80000002832D04068BC
:103B900000282FD0BDE8F0470047607DD0B984F8F9
:103BA000408084F84180A4F84C80A4F84A804546BF
:103BB0000B213E20363400F075FE10213F2000F02E
:103BC00071FE14F836090F4E012809D02575F168E9
:103BD00003208847D9F8000000280BD0C068D7E739
:103BE0000D2000F036F840F040010D2000F05AFEA4
:103BF000B168EDE7BDE8F0878403002004010020F0
:103C0000E4650008C4660008014901208871704716
:103C10000801002070B50025012000F02DF9FF21DA
:103C2000112000F03FFE052000F060F90024012083
:103C300001F0EAFF2C2000F00CF800F00100A04099
:103C4000641C0543E4B2202CF1D300F025FC284687
:103C500070BD08B50122694600F003F89DF8000028
:103C600008BD70B5044615460E46002000F03EFE25
:103C700004F07F0000F03CFE002405E0002000F08E
:103C800037FE3055641CE4B2AC42F7D3BDE8704057
:103C9000012000F02BBE0A4601460020FFF7E1BFDD
:103CA00010B520B1012808D04FF0FF3010BD112011
:103CB000FFF7CFFF4008404210BD07480749806921
:103CC00088424FF01B0003D9FFF7C3FF9D3810BD9A
:103CD000FFF7BFFFA43810BD8403002040DD4A1F5A
:103CE00073B53A4C05460020617D11B1012969D1B7
:103CF0002CE00020A4F84C009DF80410A4F84A1011
:103D000094F8320050B1322000F0CCFD9DF8042030
:103D1000501E3F2807D884F84F200BE0012101A84E
:103D200000F0DFFDF2E72946294802F08DF8202057
:103D300084F84F0094F84F102846383400F0D1FD35
:103D4000A08AE17D0844A08220683BE094F86500E9
:103D500001284FF0330021D0FFF77BFF00F0BE01B8
:103D60003320491C00F09EFD1D213B2000F09AFDF0
:103D70009DF8041084F87410222000F093FD0021B7
:103D80000E2000F08FFD00210D2000F08BFD0120A2
:103D9000FFF75FFF30F0F80009D00DE0FFF759FFA3
:103DA00000F0BE01332000F07DFD1921DDE700F0B9
:103DB00087FB012001F028FF9DF80410284600F041
:103DC00090FDA06E00F090FB7CBD000084030020FD
:103DD00084020020032803D05FF00100FEF744BFF7
:103DE0000020FBE706490A78824207D0087018B124
:103DF0005FF00000FEF738BF0120FBE770470000CE
:103E00004C0200200D4910B58861FCF741FD0022ED
:103E10000B4BFCF7A6FCFCF767FD0446C0F307411B
:103E2000062000F03FFDC4F30721072000F03AFD13
:103E3000E1B2BDE81040082000F034BD840300204A
:103E400080844E4070B50D46044600F015F824B14C
:103E5000012C0DD12946232006E0064890F83200B7
:103E6000002805D129463220BDE8704000F01ABD77
:103E700070BD00008403002010B504460120FFF748
:103E8000E8FE1949000601D5012000E00020487530
:103E9000C0B2A04226D04C75012C0FD000F0FCFA25
:103EA0000120FFF7D6FE00F07F01012000F0FAFCB0
:103EB0000021402000F0F6FC30210EE000F0ECFA8A
:103EC0000120FFF7C6FE40F08001012000F0EAFC6F
:103ED0000021402000F0E6FC0021BDE81040412018
:103EE00000F0E0BC10BD00008403002010B5040009
:103EF00010D00020FFF776FF2046FFF76BFF012070
:103F0000FFF7A7FE00F0F8012143BDE810400120B3
:103F100000F0C8BC0120FFF765FFF0E710B50446CC
:103F20000120FFF7A9FF064880F86C400CB134214E
:103F300000E01221BDE81040392000F0B3BC0000C1
:103F40008403002010B50020FEF782FE012001F05E
:103F50005BFE0120FEF77CFEBDE81040062001F06C
:103F600053BE000070B504460920FFF772FE0646F6
:103F70004D20FFF76EFE054621488069FFF712FAD3
:103F800006F07F01084340F0700001062BD5112C8C
:103F900002DD45F0070502E005F0F8052D1DE943B7
:103FA000490703D0022C0CDA02240DE0052C01DABB
:103FB000052402E0142C00DD142400F0F001641F3D
:103FC00005E0112C00DD112400F0F001A41E04F026
:103FD0000F000143092000F065FC2946BDE8704050
:103FE0004D2000F05FBC4FF0FF318C4201DA0C46EF
:103FF00002E00E2C00DD0E2400F0F001641CE6E768
:10400000840300202DE9F041774C07460026607DAF
:1040100010B1012824D124E014F8366F4020FFF7B6
:1040200018FE00F0030040F00C01402000F03AFCC4
:104030004120FFF70EFE40F0C101412000F032FCAC
:104040003520FFF706FE00F03F0020761E210D20F0
:1040500000F028FC0020A072E072E082A082363CD2
:1040600086E094F8650001284FF0330025D0FFF773
:10407000F0FD00F0BE013320491C00F013FC1D21AF
:104080003B2000F00FFC606D09284FF031007DD21D
:10409000FFF7DFFD00F07F01312000F003FC00217D
:1040A000302000F0FFFB606D092847D2DFE800F008
:1040B0000E161E262E3641414100FFF7CAFD40F084
:1040C0004101332000F0EEFB1921D9E748212F20D0
:1040D00000F0E8FB41F68261A06926E044212F2030
:1040E00000F0E0FB42F6B401A0691EE044212F205D
:1040F00000F0D8FB43F60451A06916E044212F20BC
:1041000000F0D0FB45F25E11A0690EE044212F20A3
:1041100000F0C8FB47F61221A06906E044212F20D9
:1041200000F0C0FBA0694AF2C6210844FFF76AFE0E
:1041300004E040215FF02F0000F0B4FB94F863002E
:1041400094F86660012830D01F21112000F0AAFBEE
:104150004020FFF77EFD00F03F01402000F0A2FB71
:1041600000210F2000F09EFB00210D2000F09AFBA3
:104170004FF480711D48FCF704F801201C4D207598
:1041800047B16A6839460220904700E007E0A96815
:1041900002208847607D90B1FEB105201EE0FFF748
:1041A00058FD40F080013120C6E71D21112000F0AC
:1041B00079FB4020FFF74DFD00F03301CDE70520EE
:1041C000FFF794FE002E0DD16A68E16B0320904743
:1041D000A968BDE8F041032008470620BDE8F0418A
:1041E000FFF784BEBDE8F081840300208402002034
:1041F000C46600082DE9FC5F9B4614468A4680464B
:10420000DDF844900D9F0F9EFFF736FE380A9D4D56
:104210000090B8F1000F06D0B8F1010F74D1BAF1D7
:10422000030F73D9FEE745F824AFAC600C986860C3
:10423000AE731098E87385F8109014986874159808
:10424000A874AF812046FCF723FB04460B4601917E
:10425000224600208C49FCF784FA0322FCF7F0FA8E
:1042600080468B460E98FCF713FB42465B46FCF7F4
:1042700006FA0022854BFCF702FAFCF735FBA86131
:10428000224600208249019BFCF76BFAFCF72CFBCD
:1042900084B2210A022000F005FBE1B2032000F005
:1042A00001FB5046FCF7F0FE0146122000F0FAFA3E
:1042B0000C98FCF7E9FE0146132000F0F3FA2520E4
:1042C000009900F0EFFAF9B2262000F0EBFA0EB1F7
:1042D000109900E0FF21322000F0E4FA3020FFF7CF
:1042E000B8FC00F06F000EB1002100E0802108430F
:1042F00040EA0911302000F0D5FA3120FFF7A9FC7F
:1043000040F040013120ACE0B9E0FFE702D14FF0CE
:10431000060801E00AF1070828460C2CE0E915849C
:1043200080F809B0478106731099417380F80E90A8
:104330001299C1731399017414994174159985F8F0
:10434000661001D90C2402E0062C00D20624B8F134
:10435000070F02D0B8F1060F03D10B2C4CD00C2C58
:104360004AD0B8F1080F01D10C2C45D05FF0000104
:1043700085F85C101D20FFF76CFC4FEA081141EA3C
:104380004B003043C1B21D2000F08CFA1E20FFF715
:1043900060FC00F0080040EA041141EA89000E992F
:1043A000032202EA11210843C1B21E2000F07AFA6A
:1043B0002620FFF74EFC00F0F70195F85C0041EA7B
:1043C000C000C1B2262000F06DFA0E98C1B21F20C5
:1043D00000F068FA2020009900F064FAF9B2212078
:1043E00000F060FA1EB12220109900F05BFA95F8F7
:1043F0006300012802D00EE00121B9E74420FFF755
:1044000028FC40F08001442000F04CFA95F864103C
:10441000242000F047FAB8F1090F02D0032136201A
:104420000FE01C49A86988424FF002014FF03600A6
:1044300003D900F037FA642102E000F033FA7F215B
:104440003A2000F02FFA062C4FF031000DD0FFF784
:1044500000FC00F0F8013120C91C00F023FA0A2109
:104460003720BDE8FC5F00F01DBAFFF7F2FB00F05B
:10447000F8013120491D00F015FA0C21F0E7BDE8E4
:10448000FC9F0000840300200000F03F00408F40AC
:1044900080847E4140DD4A1F10B5074C0220E16850
:1044A0008847E168012088470020FFF71FFD034986
:1044B0000020087510BD0000C466000884030020B9
:1044C00010B5074C0220E1688847E1680120884761
:1044D0000120FFF70BFD03490020087510BD000007
:1044E000C46600088403002070B5264D01460120F3
:1044F0006A689047244C607D10B101282DD119E0E5
:104500004020FFF7A6FB00F0030040F01001402020
:1045100000F0C8F94120FFF79CFB00F03E0141206C
:1045200000F0C0F93520FFF794FB00F03F0084F85D
:104530004E0012E094F86300012818D0F7211120F2
:1045400000F0B0F94020FFF784FB00F03F0000BF0F
:1045500040F04001402000F0A5F902202075A96834
:1045600001208847BDE870400320FFF7BFBCF5215C
:10457000112000F097F94020FFF76BFB00F03300AB
:10458000E6E70000C4660008840300202DE9FF4F21
:1045900081B01D46DDE90E4BDDE910688946DDF886
:1045A00054A0129F0198FFF767FC4846FFF7DAFC1A
:1045B0007848320A0199009231B1012975D180F809
:1045C0005090032D55D9FEE780F81C900399C462E2
:1045D000C0E90815068680F8328080F8347080F8CB
:1045E00035A0169981630398FCF752F900226A4BB3
:1045F000FCF7B7F8FCF778F985B2290A042000F037
:1046000051F9E9B2052000F04DF92046FCF740F9D8
:1046100002460B4600206149FCF7A3F8FCF764F959
:1046200084B2210A022000F03DF9E1B2032000F03B
:1046300039F92520009900F035F9F1B2262000F073
:1046400031F93020FFF705FB00F06F00B8F1000FE3
:1046500001D0002100E08021084340EA071130200A
:1046600000F020F93120FFF7F4FA40F0400131204A
:104670007DE001D1062500E0ED1DC0E9155480F86C
:104680005DB0A0F85E6080F86080139980F86310D8
:10469000149A80F8642080F8627080F865A0169AF9
:1046A00082660C2C02D90C2403E06FE0062C00D2A9
:1046B0000624072D01D0062D03D10B2C0CD00C2C79
:1046C0000AD0082D01D10C2C06D0002280F85C20E5
:1046D0008146012902D00EE00122F7E74420FFF7CE
:1046E000B8FA40F08001442000F0DCF899F864103A
:1046F000242000F0D7F81D20FFF7ABFA290141EA8A
:104700004B0040EA0800C1B21D2000F0CBF81E208B
:10471000FFF79FFA00F00B0040EA041040EA870020
:10472000C1B21E2000F0BEF82620FFF792FA00F07A
:10473000F70199F85C0041EAC000C1B2262000F000
:10474000B1F82020009900F0ADF8F1B2212000F07E
:10475000A9F8062C4FF031000ED0FFF77AFA00F0DE
:10476000F8013120C91C00F09DF80A21372005B05E
:10477000BDE8F04F00F096B8FFF76BFA00F0F801D3
:104780003120491D00F08EF80C21EFE705B0BDE89F
:10479000F08F00008403002080844E4080847E419E
:1047A00030B50D464FF47A7189B002FB01F4FFF782
:1047B00029FB002005900690CDE907040521CDE9ED
:1047C0000101039004904FF49650002300901A4684
:1047D00029461846FFF7DAFE3120FFF73AFA00F0D3
:1047E000BF01312000F05EF8F021402000F05AF8BF
:1047F000A021412000F056F8084D214601206A68AA
:104800009047074902200875A9680120884709B028
:104810000320BDE83040FFF769BB0000C466000814
:104820008403002010B50E4C607D002816D00128AE
:1048300014D1FA21112000F035F84020FFF709FAD1
:1048400000F03F0040F08001402000F02BF80320F2
:104850002075BDE810400720FFF748BB10BD0000E1
:104860008403002070B50E4C2078002510B125700F
:10487000FEF71EFF607810B16570FFF769F8A07849
:1048800010B1A570FFF7D6F8E07800B1E570A07917
:10489000002804D0A571BDE87040FFF747B970BD8E
:1048A0000801002013B5012201A900F001F81CBD88
:1048B00070B5044615460E46002000F017F844F087
:1048C000800000F015F8002404E0305D00F010F8DE
:1048D000641CE4B2AC42F8D3BDE87040012000F0A3
:1048E00005B80A4601460020FFF7E2BFFEF7A4B96B
:1048F000FEF78EB9FDF70EB830B593B028216846A3
:10490000FBF73FFC14210AA8FBF73BFC0024012124
:104910000F9410940804CDE900101194129402949D
:1049200002250491CDE907504FF4E0100990684644
:10493000FDF760FA0F20CDE90A056802CDE90C40C9
:104940000E9002210AA8FDF769F9680311900F95EE
:104950000FA8FDF7EDF813B030BD7047F0B5026851
:10496000164B174C174D4FF08047984205D0B84270
:1049700003D0A04201D0A84203D122F070064A68B9
:104980003243984205D0B84203D0A04201D0A84299
:1049900003D122F44074CA6822434C6922F0800299
:1049A000224302608A68C2620A688262984201D128
:1049B0000969016301214161F0BD0000002C014043
:1049C000000400400008004010B501F01F03012161
:1049D000046A99408C430462016A9A40114301625F
:1049E00010BD10B5846842EA032224F47F440A43D0
:1049F0002243826010BD826822F070020A4342F0B6
:104A0000070181607047000030B5026A22F00102A0
:104A10000262026A4368846924F073050C682C43BF
:104A200022F002058A682A430A4DA8420BD122F0DF
:104A30000805CA6823F440732A434D6922F0040232
:104A40001D438B692B434360846149684163026263
:104A500030BD0000002C014030B5026A22F0100287
:104A60000262026A436884690D6824F4E64444EAF9
:104A700005248D6822F0200242EA05120B4DA8425F
:104A80000ED1CD6822F0800242EA05124D6923F46E
:104A9000406343EA85038D6922F0400243EA8503BF
:104AA0004360846149688163026230BD002C01402B
:104AB00030B5026A22F480720262036A4268C469F5
:104AC00023F4007324F073050C682C438D6843EACB
:104AD00005230C4DA8420ED1CD6823F4006343EAB0
:104AE00005234D6922F4405242EA05128D6923F4F0
:104AF000806342EA05124260C4614968C16303628F
:104B000030BD0000002C014030B5026A22F4805212
:104B10000262046A4268C3690D6823F4E64343EA0B
:104B200005238D6824F4005444EA0534064DA84258
:104B300004D14D6922F4804242EA85124260C36189
:104B400049680164046230BD002C014010B5036A5D
:104B5000046A24F001040462846924F0F00444EA45
:104B6000021423F00A020A438461026210BD10B5E8
:104B7000036A23F0100303628369046A23F4704319
:104B800043EA023224F0A00343EA01118261016288
:104B900010BD0000054A526803E01378834200D13B
:104BA00051605269002AF8D17047000028010020A6
:104BB000064900224968496904E00B78834200D124
:104BC000CA6049690029F8D1704700002801002017
:104BD00070B50D48002645686C690FE0607A60B1D9
:104BE000E068401CE0606168884206D3E6602069A6
:104BF00000B18047207A00B166726469002C01D050
:104C0000002DEBD170BD0000280100202DE9F047F8
:104C1000194D8846074629780120994616460024F2
:104C200031B92870182000F0BBF9686000B1446108
:104C3000182000F0B5F900281BD00770C0F80480D8
:104C400006724472C0E9034944616B6859690A46B7
:104C500004E01578FEB2B5420BD05269002AF8D1B3
:104C600011B9586104E011464A69002AFBD1486134
:104C70004461BDE8F087000028010020FFF798BFDD
:104C800010B50446FFF794FF0648406841690120CB
:104C900004E00A78A24200D1487249690029F8D19B
:104CA00010BD00002801002006490022496849691A
:104CB00004E00B78834200D14A7249690029F8D197
:104CC000704700002801002010B5406A0021C1850E
:104CD000C184FDF7C9FD10BD0168CA6822F4907255
:104CE000CA6001684A6922F001024A61202180F805
:104CF0003A10704710B590F83A10222901D00220DE
:104D000010BD82684FF480539A4201D1016921B1EC
:104D1000816A9A421BD04AB10AE00268816A5268ED
:104D2000C2F308020A80816A891C08E0026972B134
:104D30000268526802F07F020A70816A491C81622F
:104D4000C18D491E0904090CC18503D016E0026813
:104D50005268F1E70168CA6822F02002CA6001685F
:104D6000CA6822F48072CA6001684A6922F00102AE
:104D70004A61202180F83A10FDF7C2FE002010BDE4
:104D800070B5044600680169E26821F4405111439E
:104D900001612169A0680843616908432168CA6804
:104DA00041F20C639A430243CA6020684169A269D8
:104DB00021F44071114341611E492068884202D1AB
:104DC000FCF7D2FF01E0FCF7BFFF00EBC00101EBF5
:104DD0000012606864218000B2FBF0F3B3FBF1F3D2
:104DE0006FF018067343B2FBF0F5B2FBF0F605EB7B
:104DF0008305322303EB0515B5FBF1F5B6FBF1F6A0
:104E000005F0F00505EB0615B2FBF0F6B2FBF0F08D
:104E1000B0FBF1F06FF01802504306EB800003EB9B
:104E20000010B0FBF1F0216800F00F00284488600A
:104E300070BD0000003801402DE9F041984617464A
:104E40000E460446069D1DE0681C1BD02DB1FCF7E4
:104E50005BFDA0EB0800A84214D92068C16821F4CA
:104E6000D071C1602068416921F0010141612020B9
:104E700084F8390084F83A00002084F838000320D0
:104E8000BDE8F0812068006836EA000004D0002008
:104E9000B842D9D00020F3E70120F9E70148FDF737
:104EA000E5BC0000F00500200248002180F8061152
:104EB0004170704718040020014890F806017047BF
:104EC0001804002003480021A0F80411012180F8F3
:104ED0000611704718040020FEE700000FB4054BD0
:104EE00010B503A9044A029800F04CF910BC5DF813
:104EF00014FB0000E95C0008780200200FB4084BA6
:104F000010B504A902AA039800F03CF9044602A9CE
:104F1000002000F0CEFC204610BC5DF814FB000021
:104F2000B35800080907090E002804DB00F1E0204F
:104F300080F80014704700F00F0000F1E02080F8C6
:104F4000141D704730B528B1144C031F0020216890
:104F50000A4605E0084630BD9A4203D8104652681A
:104F6000002AF9D1002800D041680BD00468A3EBD7
:104F70000005A54204D11B681C440346046002E0FE
:104F8000436000E023603AB11C68D51AA54203D102
:104F900015682C441C6052685A6030BD7C020020A9
:104FA0002DE9F04782460F4C10480D4E0E4F001B66
:104FB0004FF0000820F007054FF0010900221146CC
:104FC000504600F0DBFE002802D1306810B100200E
:104FD000BDE8F0873C60C4E90058C6F80090EDE7F2
:104FE00080020020340600207C02002030080020CF
:104FF00002E008C8121F08C1002AFAD170477047A2
:10500000002001E001C1121F002AFBD170470000FF
:105010002DE9FF5FDDE90220010DDDF838B0024324
:1050200018D044F61050A1F2FF3141430D140F98EF
:10503000012820D0A5EB0B00401C5FEA000A4FF0CE
:105040000004474EDFF81C91A046504616D5CAF121
:10505000000728E00F98012443A2012808D000216E
:1050600000980F9BC0E90021C0E90243BDE8FF9F03
:105070006FEA0B01F4E7CBF10000DEE7074612E030
:10508000F80707D02246334640464946FBF7F7FA71
:10509000804689462246334610461946FBF7EFFA0A
:1050A00004460E467F10002FEAD1DDE90201BAF175
:1050B000000F42464B4602DAFBF7E1FA01E0FBF74C
:1050C00050FB04460E460022284BFBF73FFC03D85A
:1050D0004FF0FF30014607E00022254B20463146C5
:1050E000FBF726FAFBF720FE102409E0002C0ADB70
:1050F0000A220023FBF774FC019B30321A55641E10
:1051000050EA0102F2D1641C019AC4F11103144463
:105110000F9A012A03D0012208430DD10AE0084367
:1051200004D000204FF0110B0F9080E7A3EB0B058C
:105130006D1E0DE05B4504DD4FF0000205F1010539
:1051400004E003DA4FF00002A5F10105002AECD0DB
:1051500000980F99C0E90231C0E9004586E70000D8
:10516000000024400000F03F300000000000F04349
:105170000000E03F30380A2801D2012070470020AB
:10518000704700002DE9FF4F95B09B4689460646C3
:1051900000250FE2252877D100242746F84A01216F
:1051A000059400E0044316F8013F203B01FA03F0A8
:1051B0001042F7D130782A2811D06FF02F033078C1
:1051C000A0F13002092A16D8059A44F0020402EB35
:1051D000820203EB42021044761C0590EFE759F877
:1051E000042B0592002A03DA504244F4005405903F
:1051F00044F00204761C30782E2816D116F8010FE0
:1052000044F004042A280DD06FF02F023078A0F16A
:105210003003092B09D807EB870302EB4303C718B8
:10522000761CF3E759F8047B761C30786C280FD095
:1052300006DC4C2817D068280DD06A2814D104E069
:10524000742810D07A280FD10DE044F400140AE03D
:1052500044F4801401E044F440147278824202D194
:1052600004F58014761C761C307866280BD013DC8D
:10527000582877D009DC002875D04528F6D0462874
:10528000F4D047281AD19DE118E0632835D064286E
:1052900079D0652812D195E1702873D008DC672891
:1052A000F1D069286FD06E280DD06F2806D1B5E0F7
:1052B00073282CD0752875D0782874D05A46179941
:1052C00090476D1C75E1C4F30250022809D00328F1
:1052D0000DD0D9F8001004280DD00D6009F1040993
:1052E00067E1D9F80010EA17C1E90052F6E7D9F8EA
:1052F00000100D80F2E70D70F0E719F8041B8DF82F
:10530000001000208DF80100EA46012003E059F862
:1053100004AB4FF0FF3061074FF0000102D40DE005
:1053200008F101018846B9420FDA8045F8DB1AF826
:1053300008100029F4D108E008F1010188468142F3
:10534000FADB1AF808100029F6D105985B46A0EBA5
:10535000080721463846179A00F094FA284400EBD3
:10536000080507E04DE029E10DE01AF8010B5A4667
:1053700017999047B8F10108F7D25B4621463846A5
:10538000179A13E142E00A220092C4F302524FF04E
:10539000000A022A08D059F804CB032A4FEAEC711C
:1053A0000AD00DE029E02AE009F1070121F0070207
:1053B000F2E802C1914609E00FFA8CFC4FEAEC7169
:1053C000042A03D14FFA8CFC4FEAEC71002907DA6A
:1053D0000A460021DCF1000C61EB02012D2202E003
:1053E000220504D52B228DF80420012203E0E207D8
:1053F00001D02022F7E7904659E00A2102E010226E
:105400000DE010214FF0000A00910BE010224FF048
:10541000000A44F004040827009203E008224FF039
:10542000000A0092C4F30252022A05D059F804CBB4
:105430000021032A08D009E009F1070121F0070241
:10544000F2E802C1914605E01FFA8CFC042A01D162
:105450000CF0FF0C4FF00008220728D5702806D06A
:10546000009B83F0100353EA0A0305D00EE04022AC
:105470008DF80420012208E05CEA010206D0302207
:105480008DF804208DF8050002229046009B83F0E1
:10549000080353EA0A030AD15CEA010201D1620758
:1054A00005D530228DF804204FF001087F1E5828C2
:1054B00004D034A003900EA802900DE036A0F9E7C6
:1054C00053466046009AFBF78BFA84460398825C49
:1054D0000298401E029002705CEA0100F0D102982E
:1054E00006A9081A00F1200A600702D524F48034C6
:1054F00000E00127574502DDA7EB0A0000E000208D
:1055000000EB0A01009005984144401A0590E00321
:1055100006D45B462146179A059800F0B3F9054476
:10552000002706E001A85A46C05D179990476D1CF8
:105530007F1C4745F6DBE0030CD55B462146179AF6
:10554000059800F09FF9054404E030205A46179969
:1055500090476D1C0099481E00900029F5DC08E07A
:10556000029802995A460078491C0291179990476F
:105570006D1CBAF10001AAF1010AF1DC65E100003D
:105580000928010030313233343536373839616219
:1055900063646566000000003031323334353637DD
:1055A00038394142434445460000000000F058F9B4
:1055B0000544761C307800287FF4ECAD19B02846FD
:1055C000BDE8F08F620700D4062709F1070222F038
:1055D000070CFCE80223E14603F000485FEA080CF0
:1055E00002D00FF2702C0DE05FEA045C02D50FF2DE
:1055F000682C07E05FEAC47C02D00FF2602C01E067
:10560000AFF2700C4FF0FF3823F00043CDF850C0DC
:1056100065280CD006DC452809D046281DD047282F
:105620003DD13DE0662818D067287ED138E00021C2
:10563000112F01DB112000E0781CCDE9000106A943
:105640000EA8FFF7E5FCDDE90F010E9A039100219A
:10565000009207F1010A04914DE04FF000400097DD
:10566000CDE9011006A90EA8FFF7D2FCDDE90F0273
:1056700003920E9B11990022DDF80CA00093049276
:1056800011B9791C00EB010AB7EB0A0004D4C0F190
:10569000FF3007F1010A0490AAEB0700019044E0F3
:1056A000012F00DA01270021112F01DD112000E078
:1056B0003846CDE9000106A90EA8FFF7A9FCDDE9EF
:1056C0000F010E9A0391002104910092BA4621071E
:1056D0000CD40399514500DA8A46BAF1010F05DD71
:1056E000009AAAF10101515C302908D0B84202DACF
:1056F00010F1040F06DA0121CDE9011015E0AAF13D
:105700000101E9E7002805DC049901440491AAEBB2
:10571000000102E0411C514500DD8A460499401A0F
:10572000401C01904FF000400290200704D40198E3
:10573000504501DBCDF8048000208DF84F00029821
:105740000DF14F07B0F1004F25D02B200E9002989D
:105750004FF0020800280CDA404202902D200E90F3
:1057600007E00A210298FBF725F93031029007F88B
:10577000011DB8F10001A8F10108F2DC029800282F
:10578000EFD1791E0E980870307800F0200040F0BC
:10579000450007F8020D12A8C01B00F10708149875
:1057A000007800B1012000EB0A01019801EBE071E3
:1057B00005984144401A401E0590E00306D45B461C
:1057C0002146179A059800F05DF805441498007872
:1057D00018B15A46179990476D1CE00324D55B46D3
:1057E0002146179A059800F04DF805441CE00498EE
:1057F000002807DBDDE90301884203DD0098405CF7
:10580000179901E0179930205A469047049805F1FE
:105810000105401C04900198401E019004D12E20E7
:105820005A46179990476D1CBAF10001AAF1010A76
:10583000DDDC05E017F8010B5A46179990476D1CFF
:10584000B8F10001A8F10108F4DC5B462146179A83
:105850000598ABE62D0000002B00000020000000A2
:105860002DE9F041044600251E461746880404D45D
:1058700005E039462020B0476D1C641EF9D5284646
:10588000BDE8F0812DE9F041044600251E46904612
:10589000C80301D5302700E02027880404D505E09F
:1058A00041463846B0476D1C641EF9D52846BDE810
:1058B000F0810A68531C0B60107070477047FEF748
:1058C000D1BF10B5FFF7F8FA002803D0BDE81040AB
:1058D000FFF7EABA10BD000010B5064C0649206873
:1058E000401C2060884203D1FBF7B8FB00202060F9
:1058F00010BD000000000020E0930400002000F034
:10590000D3BD7047704770474FF400510148FBF713
:10591000EEBF000000100140704770477047FFF76E
:10592000D1BA10B588B103687BB1426881689142F1
:1059300006D25C5C202C03D8491C81600028F5D17C
:10594000914201D1491E816010BD002010BD0000B0
:1059500070B504460F4E19E0A0892568C0050AD429
:10596000A06820B1FFF7F4FFA089C00503D4206927
:1059700008B171688847A089800503D4206A08B1FE
:10598000716888477168204688472C46002CE3D10F
:1059900070BD00005C020020002200F0B1B910B51B
:1059A000016828208847040002D02821FAF7E9FB83
:1059B000204610BD00221146AFF300802DE9F047CC
:1059C00088B00D46044692461C216846FAF7D9FB7A
:1059D00031480026002C066046605AD020460094CC
:1059E000FAF7E6FB401CDFF8B090CDE90106D9E9F3
:1059F0000212D9F810000491CDE90520B04609F152
:105A00000800FFF7CCFF07002BD000986E4608B1C6
:105A1000029808B100260BE00198042808D9032257
:105A20001EA10098FAF7D9FB10B90298C01C029089
:105A30003046FFF776FF0146384600F01FFC68B19C
:105A4000BAF1000F14D06846FFF76BFFDDE90101E2
:105A5000814203D202990098405C48B13846FFF772
:105A600077FFDDE90121404691420AD208460BE06A
:105A70001DB10299009808442860384608B0BDE876
:105A8000F087111E00D0481E0DB121182960C9E908
:105A900000400020F2E7000054020020EFBBBF00EE
:105AA0002DE9F041C1F30A52A2F2FF362F4A304BE2
:105AB0000D460446142E2FDA002E12DAFAF738FDBE
:105AC00000221346FAF742FF4CD2002DBCBF4FF024
:105AD0000045002446DB55EA040018BF254D19D1C6
