:020000040800F2
:100000000806002001010008271B0008E918000865
:10001000251B0008BD060008AD1F000800000000F9
:100020000000000000000000000000002B1B000882
:10003000BF06000800000000291B00082D1B000857
:100040001B0100081B0100081B0100081B01000820
:100050001B0100081B0100081B010008C106000865
:100060001B0100081B0100081B0100081B01000800
:100070001B0100081B0100081B0100081B010008F0
:100080001B0100081B0100081B0100081B010008E0
:100090001B0100081B0100081B0100081B010008D0
:1000A0001B0100081B0100081B0100081B010008C0
:1000B0001B0100081B0100081B0100081B010008B0
:1000C0001B0100081B0100081B0100081B010008A0
:1000D0001B0100088D1F00081B0100081B01000800
:1000E0001B0100081B0100081B010008DFF80CD0F1
:1000F00000F0B8FA00480047BD28000808060020B4
:100100000648804706480047FEE7FEE7FEE7FEE7B1
:10011000FEE7FEE7FEE7FEE7FEE7FEE77F1B0008DF
:10012000ED000008202A04DB203A21FA02F0002129
:10013000704721FA02F3D040C2F1200291400843F7
:1001400019467047D2B201E000F8012B491EFBD2DC
:1001500070470022F6E710B513460A4604461946D2
:10016000FFF7F0FF204610BD2DE9FE4F804681EAE3
:100170000300C00F0C46009021F0004123F0004521
:10018000B8EB0200A94105D24046214690461C46E4
:100190000B46024623F00040104347D0270DC7F31B
:1001A0000A00C3F30A510290401A019040286BDA0A
:1001B000C3F3130040F4801B0098924620B1002343
:1001C000D2EB030A63EB0B0B01985946C0F14002D6
:1001D000504600F0B0F906460D4650465946019A81
:1001E00000F0B8F910EB08006141002487EA1152D1
:1001F00084EAE7731A4340D0009A62B3019A012A55
:100200004FEA075215DC001B61EB02014FF0004280
:1002100002EA0752CDE90042001C41F58011324646
:100220002B4600F0B8F903B0BDE8F08F40462146F8
:10023000F9E7001B61EB0201001C41F58013001877
:100240005B412018A2F5001747EB030140EAD57087
:10025000B6196D4111E06D084FEA360645EAC075E2
:100260004FEA0752001B61EB0201001C41F58011AF
:1002700049084FEA30000019514132462B4603B07D
:10028000BDE8F04F00F078B900980122400000234B
:10029000D0EB020263EBE073009821464FEAE07472
:1002A000B8EB000061EB0401E9E783F000435BE792
:1002B00081F0004158E72DE9FE4F81EA030404F084
:1002C000004421F0004100944FF0000B23F0004364
:1002D00050EA01045ED052EA03045BD0C3F30A542F
:1002E000C1F30A552C44A4F2F3340194A0FB025448
:1002F000C1F3130141F48011C3F3130343F48013DA
:1003000001FB024400FB034E840A970A44EA81542D
:1003100047EA8357A4FB076802958D0A05FB07850A
:100320004FEA932C04FB0C542705029D4FEA065814
:1003300047EA1637B5EB08056EEB070C870E920EF1
:1003400047EA811742EA8312A7FB0201B6EB0B01D1
:1003500064EB00042B0D43EA0C335E1844EB1C5095
:10036000DA465146E7FB0201C5F313044FEA0B33AB
:1003700043EA14534FEA0432019C43EA0603A4F112
:100380000C040294009CCDE900B400F004F903B021
:10039000BDE8F08F00200146F9E72DE9F04D81EA34
:1003A000030404F0004B21F0004514464FF0000A0E
:1003B00023F0004150EA050220D054EA01021DD08A
:1003C000C5F30A570246C5F31303C1F31300C1F383
:1003D0000A5640F4801543F48013A7EB0608101B5F
:1003E000D64608F2FD3873EB050002D308F1010888
:1003F00001E092185B41B8F1000F03DA00200146DA
:10040000BDE8F08D00204FF48011064684460EE0D2
:10041000171B73EB050705D3121B63EB050306439C
:100420004CEA010C49084FEA300092185B4150EA4F
:100430000107EDD152EA030012D082EA040083EAF8
:100440000501084305D0101BAB4106D20122002351
:1004500006E000224FF0004302E06FF0010253106B
:100460001AEB06004CEB085110EB0A0041EB0B01B4
:10047000BDE8F04D00F080B830B5041E71F1000405
:1004800004DB4FF00044404264EB0101141E73F1A1
:10049000000405DB1C464FF00043524263EB0403AB
:1004A000994208BF904230BD30B50B46014600204E
:1004B0002022012409E021FA02F59D4205D303FA26
:1004C00002F5491B04FA02F52844151EA2F10102A7
:1004D000F1DC30BD2DE9F05F0546002092469B46D9
:1004E00088460646814640241BE02846414647464A
:1004F0002246FFF717FE53465A46C01A914110D3C1
:1005000011461846224600F016F82D1A67EB01082E
:100510004F4622460120002100F00DF817EB00099C
:100520004E41201EA4F10104DFDC484631462A4634
:100530004346BDE8F09F202A04DB203A00FA02F18E
:10054000002070479140C2F1200320FA03F31943C1
:1005500090407047202A06DBCB17203A41FA02F080
:1005600043EAE07306E041FA02F3D040C2F1200210
:10057000914008431946704710B5141E73F10004EA
:1005800008DA401C41F1000192185B411A4301D185
:1005900020F0010010BD2DE9F04D92469B4611B1AF
:1005A000B1FA81F202E0B0FA80F220329046FFF711
:1005B000C2FF04460F4640EA0A0041EA0B015346D7
:1005C0005A46084313D0114653EA010019D0C8F126
:1005D00040025046FFF7A6FD05460E4650465946D6
:1005E0004246FFF7A8FF084305D0012004E020465B
:1005F0003946BDE8F08D0020054346EAE0762C43FD
:1006000037430A986305E40AA0EB08000022FD0ABC
:1006100044EA47540A3002D500200146E9E70105C3
:1006200010196941DDE9084500196941BDE8F04D3F
:10063000A2E7C1F30A52C1F3130140F2FF3341F4C0
:1006400080119A4202DA00200146704740F233439B
:100650009A42A2F2334202DC5242FFF763BDFFF737
:100660006ABF0000064C074D06E0E06840F0010359
:1006700094E8070098471034AC42F6D3FFF73AFDF0
:100680007C2900089C2900080A4800214170A0F834
:10069000041180F80611A0F8021107480168CA6821
:1006A00042F02002CA600068416941F001014161E5
:1006B000704700001C000020C4010020FEE77047C6
:1006C000022000F071B87047024900EB8000096811
:1006D000486370477C01002010B590F82110002479
:1006E000022903D00421816301243DE001680A68E6
:1006F00022F00E020A6001680A6822F001020A6014
:100700001A4A0168914201D1012121E0174A1432AD
:10071000914201D110211BE0144A2832914201D1AB
:10072000891515E0114A3C32914201D189140FE03C
:100730000E4A5032914202D14FF4803108E00B4A08
:100740006432914202D14FF4801101E04FF0807188
:10075000064A083A5160012180F82110002180F8F2
:100760002010416B01B18847204610BD08000240AF
:1007700070B5044600F01AF90546601C02D0044822
:100780000078044400F012F9401BA042FAD370BD77
:1007900008000020022804D102484068002800D048
:1007A0000047704700000020044910B50A68024263
:1007B00002D00860FFF7EEFF10BD000014040140F6
:1007C0002DE9F84FDFF8B891002409F1040A0AF185
:1007D000040B23460F270BF1040EC9E00125A540A9
:1007E0002A40AA427DD1674ED1F804C0ACEB06087E
:1007F000B44532D014DCBCF1030F3AD009DCBCF1B3
:10080000000F2AD0BCF1010F1CD0BCF1020F31D176
:100810001DE0BCF1110F17D0BCF1120F2AD119E065
:10082000B8F5881F19D006DCB8F5803F15D0B8F5AB
:10083000801F1FD111E0B8F5001F0ED0B8F5041FBE
:1008400018D10AE0CB6815E0CB681B1D12E0CB681D
:1008500008330FE0CB680C330CE08B682BB1012B15
:100860004FF0080303D0456104E0042302E0056172
:1008700000E00023FF2A01D8064601E000F104064B
:100880004FEA840501D9A5F12005D6F8008007FAC2
:1008900005FC28EA0C0803FA05F548EA0508C6F83D
:1008A00000804D68ED0062D5374DAE6946F0010617
:1008B000AE61AD6924F0030605F001050095334DE6
:1008C00006EB050CDCF80850A607360F07FA06F809
:1008D00025EA0805DFF8B880404503D14FF000084D
:1008E00017E044E0DFF8AC80404502D14FF001084A
:1008F0000FE0DFF8A480404502D14FF0020808E085
:10090000DFF89880404502D14FF0030801E04FF036
:10091000040808FA06F848EA0508CCF808804D688B
:10092000D9F80060ED034D4601D5164300E096432B
:100930002E604D68DAF80060AD03554601D51643C8
:1009400000E096432E604D68DBF80060ED025D46E6
:1009500001D5164300E096432E604D68DEF8006036
:10096000AD02754601D5164300E096432E60641C27
:100970000D682A46E5407FF431AFBDE8F88F0000EE
:10098000000401400000111000100240000001406E
:1009900000080140000C014000100140001401401B
:1009A0000AB1016170470904FBE700000148806853
:1009B0007047000008000020024881680278114456
:1009C0008160704708000020074810B5016841F0B9
:1009D00010010160032000F075F8002000F006F817
:1009E00000F024F8002010BD0020024070B50D4D2D
:1009F00004464FF47A712878B1FBF0F00A4909688F
:100A0000B1FBF0F000F07EFB48B9102C07D20022B9
:100A10002146501E00F036F800206C6070BD0120A9
:100A200070BD000008000020140000200C4808B52C
:100A3000816941F001018161816901F00101009149
:100A4000C16941F08051C161C06900F080500090DF
:100A50000448416821F0E06141F08061416008BDD7
:100A60000010024000000140002809DB00F01F02D6
:100A7000012191404009800000F1E020C0F8001100
:100A800070470000F0B40E4B1B680C46C3F3022302
:100A9000C3F10705042D00D90425191D072901D22A
:100AA000002300E0DB1E012606FA05F1491E214065
:100AB00099409E40761E16403143F0BC01F088BA42
:100AC0000CED00E0064900F0070208684FF6FF034E
:100AD000184040EA0220034A1043086070470000B3
:100AE0000CED00E00000FA052DE9F0470F46050087
:100AF00061D0434E306800F00700B84209D2306838
:100B000020F0070038433060306800F00700B8423A
:100B100051D128683B4C810712D5400703D5606846
:100B200040F4E06060602878000703D5606840F416
:100B3000605060606068A96820F0F0000843606061
:100B40002878C00728D06868012810D021680228BA
:100B500010D0890700292EDA616821F003010143D2
:100B60006160FFF723FF804641F288390DE021687C
:100B70008903EFE78901EDE7FFF718FFA0EB080114
:100B8000494502D90320BDE8F0876068696800F034
:100B90000C00B0EB810FEFD1306800F00700B842D5
:100BA0000BD9306820F0070038433060306800F01F
:100BB0000700B84201D00120E5E72878400705D5B5
:100BC0006068E96820F4E060084360602878000706
:100BD00006D56068296920F4605040EAC100606071
:100BE00000F038F86168084AC1F30311515CC8404D
:100BF0000649086006480068FFF7F8FE0020C2E7D3
:100C00000020024000100240642900081400002067
:100C10000C0000200448054900684968044AC1F3F3
:100C20000221515CC84070471400002000100240AF
:100C3000742900080448054900684968044AC1F35A
:100C4000C221515CC84070471400002000100240CF
:100C50007429000812A185B00FC98DE80F0014A0F7
:100C6000144A006804905168134801F00C03042BE7
:100C700010D0082B0ED1C1F38343C9031DF8030024
:100C80000AD5516804AAC1F34041515C0A4A504355
:100C9000B0FBF1F005B0704708494843FAE700009F
:100CA00002030405060708090A0B0C0D0E0F1010AD
:100CB000010200000010024000127A0000093D000D
:100CC0002DE9F84F040070D02078C04DC00749D0FE
:100CD0006868C0F38100012807D06868C0F381000C
:100CE000022809D16868C00306D52868800339D571
:100CF00060680028E7D035E06068B0F5803F0BD031
:100D000010B1B0F5A02F11D0286820F480302860F1
:100D1000286820F4802002E0286840F480302860B1
:100D2000606890B1FFF742FE06460AE0286840F48A
:100D300080202860F0E700BFFFF738FE801B6428A2
:100D400073D828688003F7D50CE0FFF72FFE06461E
:100D500005E000BFFFF72AFE801B6428F0D8286852
:100D60008003F7D420789A4E80074FF001094FF0A6
:100D7000000839D5686810F00C0F07D06868C0F318
:100D80008100022809D16868C00306D4286880075A
:100D900014D52069012808D110E02069B0B1C6F847
:100DA0000090FFF703FE074605E00AE1FFF7FEFDAE
:100DB000C01B0228C4D828688007F7D52868616955
:100DC00020F0F80040EAC10028600DE0C6F800807D
:100DD000FFF7ECFD074604E0FFF7E8FDC01B022823
:100DE00023D828688007F7D4207800072CD57948C5
:100DF000A169D9B1C0F80090FFF7D8FD074604E01B
:100E0000FFF7D4FDC01B02280FD8686A8007F7D50A
:100E100071484FF4FA510068B0FBF1F0009000BF48
:100E20000098411E0091FAD20EE080E0C0F80080E8
:100E3000FFF7BCFD074604E0FFF7B8FDC01B022822
:100E400075D8686A8007F7D42078400760D5E869CC
:100E50000027C00008D4E86940F08050E861E869E4
:100E6000012700F0805000905C480168C90513D448
:100E70000168834641F480710160FFF797FD824667
:100E800006E000BFFFF792FDA0EB0A0064284ED8F1
:100E9000DBF80000C005F5D5E06801280AD008B1EC
:100EA000052813D0286A20F001002862286A20F063
:100EB000040002E0286A40F001002862E06841F284
:100EC000883B98B1FFF772FD82460BE0286A40F03C
:100ED00004002862EEE700BFFFF768FDA0EB0A01FF
:100EE00059455AD8286A8007F6D50CE0FFF75EFD11
:100EF000824605E0FFF75AFDA0EB0A0159454CD8A0
:100F0000286A8007F6D41FB1E86920F08050E861B4
:100F1000E06988B36968C1F38101022944D00228DD
:100F2000C6F8608004D0FFF741FD044638E034E0A5
:100F3000FFF73CFD074604E0FFF738FDC01B022821
:100F40002BD828688001F7D4206AB0F5803F05D1FE
:100F50006868A16820F4003008436860D4E908019B
:100F60000843696821F4741108436860C6F860900A
:100F7000FFF71CFD044606E025E000BFFFF716FD65
:100F8000001B022809D828688001F7D51BE000BFA4
:100F9000FFF70CFD001B022802D90320BDE8F88FE3
:100FA00028688001F4D40EE00128F7D06868226A2E
:100FB00000F48031914204D1616A00F470108842DB
:100FC00001D00120EAE70020E8E70000001002401D
:100FD00000004242800442421400002000700040A1
:100FE00070B5040009D0606A002540B125616561D3
:100FF000A56294F8510040B10CE0012070BD60681A
:10100000B0F5827FF4D0E561F2E784F850502046D5
:1010100000F040F8022084F851002068016821F0B7
:1010200040010160A088218900F4827001F404412C
:101030000843A18901F400610843217C01F0020109
:101040000843217D01F001010843218B01F4007167
:101050000843217F01F03801084394F8201001F083
:1010600080010843218D01F4005108432168086084
:10107000A069042101EA1040216848602068C16924
:1010800021F40061C1616565012084F851000020F0
:1010900070BD000030B585B0002400940194029426
:1010A000039400681449884223D11448816941F4AB
:1010B00080518161816901F480510491816941F01D
:1010C0000401816180690E4D00F004000490A020AD
:1010D0000090022001900320039069462846FFF704
:1010E0006FFB4020CDE90004694628460294FFF7D3
:1010F00067FB05B030BD0000003001400010024029
:101100000008014010B5401EB0F1807F01D30120DE
:1011100010BD4FF0E02460610F21601700F058FF10
:101120000020A06107202061002010BD10B590F8BC
:101130003C20012A22D0012280F83C20CA688C6819
:1011400022F4407222434C6822F4806222430C68ED
:1011500022F4006222430C6922F4805222434C693B
:1011600022F400522243C969002322F480420A4338
:1011700001684A6480F83C30002010BD022010BD98
:1011800070B590F83C20012A26D0012480F83C401C
:10119000022280F83D2003685A689D6822F070069C
:1011A0000A6832435A600D4B02689A4208D0B2F185
:1011B000804F05D00A4B9A4202D00A4B9A4204D182
:1011C000496825F080031943916080F83D40002173
:1011D00080F83C10084670BD022070BD002C014014
:1011E000000400400008004010B5040003D094F84B
:1011F0003D0010B107E0012010BD002084F83C0044
:10120000204600F01FF8022084F83D00211D2068D0
:1012100000F0B6FC012084F8460084F83E0084F813
:101220003F0084F8400084F8410084F8420084F8CC
:10123000430084F8440084F8450084F83D00002011
:1012400010BD000008B500680649884208D106486C
:10125000816941F400618161806900F4006000905F
:1012600008BD0000002C01400010024070B504468B
:1012700090F83C00012817D0012584F83C5002204A
:1012800084F83D002068826822F0770222F47F42D1
:1012900082600868502830D00DDC20284DD005DC55
:1012A00098B310283BD148E0022070BD302844D0CC
:1012B000402834D139E0602828D0702806D0B0F515
:1012C000805F2CD0B0F5005F29D10AE0CB68D1E96E
:1012D0000121206800F097FC2068816841F07701C7
:1012E00009E0CB68D1E90121206800F08CFC20687E
:1012F000816841F48041816011E0CA6849682068D2
:1013000000F036FD5021206807E016E0CA68496801
:10131000206800F03EFD6021206800F07EFC84F82B
:101320003D50002084F83C0070BDCA6849682068C0
:1013300000F01EFD40212068EFE7226801461046BC
:10134000EBE7000000B585B000210091019102910A
:10135000039100680B49884212D10B48816941F022
:10136000040181618069694600F0040004904FF433
:10137000807000900220019003900448FFF720FA4B
:1013800005B000BD002C01400010024000080140E3
:1013900070B5044690F83C000D4601280AD00120A3
:1013A00084F83C0042B1042A18D0082A2AD00C2A1A
:1013B0004DD139E0022070BD206800F037FC206874
:1013C000816941F0080181612068816921F004018F
:1013D0008161206881692A69114311E0206800F069
:1013E0004DFC2068816941F4006181612068816958
:1013F00021F480618161206881692A6941EA0221C2
:10140000816124E0206800F065FC2068C16941F03A
:101410000801C1612068C16921F00401C16120682F
:10142000C1692A69114311E0206800F07FFC20683F
:10143000C16941F40061C1612068C16921F4806122
:10144000C1612068C1692A6941EA0221C1610020A5
:1014500084F83C0070BD10B5040003D094F83D0042
:1014600010B107E0012010BD002084F83C002046A8
:1014700000F01EF8022084F83D00211D206800F0D5
:101480007FFB012084F8460084F83E0084F83F008A
:1014900084F8400084F8410084F8420084F8430056
:1014A00084F8440084F8450084F83D00002010BD15
:1014B0007047000010B50446022249B104290ED03D
:1014C000082913D094F84100012816D0012010BD3E
:1014D00094F83E000128F9D184F83E200FE094F8FA
:1014E0003F000128F2D184F83F2008E094F8400042
:1014F0000128EBD184F8402001E084F8412001224A
:10150000206800F073FB0F492068884203D1426CC9
:1015100042F4004242642068884208D0B0F1804F13
:1015200005D00949884202D00849884204D181681F
:1015300001F00701062903D0016841F001010160B3
:10154000002010BD002C01400004004000080040B5
:101550007047000070B5026804461068D16853698E
:1015600010F00F0F53D003F0010501F490762E43D5
:101570005FD0C20705D0CA0503D5E26B42F0010275
:10158000E263420705D5DA0703D0E26B42F00202BC
:10159000E263820705D5DA0703D0E26B42F004026A
:1015A000E263020707D501F020022A4303D0E26B71
:1015B00042F00802E263E26B002A34D0800604D5D0
:1015C000880602D5204600F00CFC20684069E16BDB
:1015D000C0F3801001F008010143204624D000F040
:1015E000F2FB2068416949061AD5416921F04001A2
:1015F0004161606BA0B12D494163606BFFF76CF8EE
:10160000002810D0606B416BBDE87040084783062E
:101610000FD58B060DD52046BDE8704000F0E1BB2C
:101620002046FFF795FF70BDFFF792FF0020E063B3
:1016300070BD03062BD50B0629D594F83900212857
:10164000F6D1A068B0F5805F01D12069B0B1206A01
:10165000411C2162216800784860E08C401E000433
:10166000000CE084E4D12068C16821F08001C160F1
:101670002068C16841F04001C16070BD206A0088E7
:10168000C0F308005060206A801C2062E5E7400635
:10169000F3D54806F1D5D168204621F04001D1604C
:1016A000202184F8391000F01EF970BDB71D000824
:1016B00070B5040004D094F83900002510B106E09C
:1016C000012070BD84F83850204600F023F8242013
:1016D00084F839002068C16821F40051C1602046B7
:1016E00000F0C6FB2068016921F490410161206887
:1016F000416921F02A0141612068C16841F400512B
:10170000C160E563202084F8390084F83A000020A5
:1017100070BD000030B585B000240094019402949F
:1017200003940068184988422CD11848816941F413
:1017300080418161816901F480410491816941F0B6
:10174000040181618069124D00F0040004904FF49F
:101750000070009002200190032003906946284603
:10176000FFF72EF82815CDE90004694628460294B3
:10177000FFF726F8002201212520FFF783F9252015
:10178000FFF772F905B030BD00380140001002408B
:101790000008014090F83A30202B22D1F9B1F2B183
:1017A00090F83830012B1CD081628285C2850021DF
:1017B000C163222280F83A2080F838100168CA6894
:1017C00042F48072CA6001684A6942F001024A61CB
:1017D0000068C16841F02001C1600020704701200D
:1017E0007047022070470000104910B588421BD195
:1017F0000F4A10461178B0F804010D290DD0531C82
:10180000C154B2F80401401CA2F80401BDE8104024
:10181000012207490548FFF7BDBFA2F8020100F009
:10182000BBFB00205070F1E710BD0000C401002098
:101830001C0000202DE9F843044690F839001F46AB
:1018400016460D4620284CD1C5B1BEB194F83800DB
:10185000012846D0012084F838004FF00008C4F871
:101860003C80212084F83900FFF7A0F8A684814647
:10187000E684A068B0F5805F03D004E00120BDE8F5
:10188000F883206928B12E465FF0000584F838807F
:101890000EE00026FAE78021204600F045FBA0B9C3
:1018A000AEB116F8010B21684860E08C401EE08460
:1018B000E08C4B464FF0000200970028EBD14FF030
:1018C0004001204600F030FB30B10320D7E735F867
:1018D000020BC0F30800E6E7202084F8390000205E
:1018E000CDE70220CBE77047FEE700002DE9F0438B
:1018F00085B00024344800940194029403948169D3
:1019000041F010018161816901F010010491816948
:1019100041F020018161816901F020010491816918
:1019200041F004018161816901F004010491816940
:1019300041F0080181618069244F00F008004FF4F4
:1019400000550490002229463846FFF729F8DFF8B1
:101950008080002210214046FFF722F8DFF87490C3
:10196000002215214846FFF71BF80126CDE9005655
:10197000022569463846CDE90245FEF721FF1648A3
:101980000095CDE9010469464046FEF719FF102095
:10199000CDE9000669464046CDE90245FEF710FF55
:1019A0001520CDE9000669464846CDE90245FEF717
:1019B00007FF002211460720FFF764F80720FFF712
:1019C00053F805B0BDE8F08300100240001001405C
:1019D00000080140000C0140000011100F4810B534
:1019E0000D4901604FF48271416000218160C16046
:1019F0004FF400720161C0E90512C16101624162E8
:101A000081620A21C162FFF7EBFA002803D0BDE82A
:101A10001040FEF758BE10BD0030014024010020E8
:101A200010B596B000240F9410941194129413944E
:101A30001C2108A81494FEF78CFB20216846FEF7B1
:101A400088FB2948274901604721C0E9011440F279
:101A5000F311C0E903148021C0E90541FFF7C4FB7D
:101A600008B1FEF730FE4FF480500F900FA91E48CA
:101A7000FFF7FCFB08B1FEF726FE1B48FFF7EBFC67
:101A800008B1FEF720FE139413A917481494FFF72A
:101A900077FB08B1FEF717FE6020CDE908040A9431
:101AA0000B940C940D94002208A90F480E94FFF794
:101AB0006FFC08B1FEF707FE00944FF40050CDE92B
:101AC0000440029401940394694607480794FFF781
:101AD0002DFB08B1FEF7F7FD0348FFF733FC16B006
:101AE00010BD0000002C01407C0100200C4810B506
:101AF0000A4901604FF4E1314160002181600C220C
:101B0000C160C0E904128161C161FFF7D1FD002805
:101B100003D0BDE81040FEF7D6BD10BD003801402F
:101B2000C4010020FEE7704770477047FEF744BFCE
:101B300030B58FB028216846FEF70BFB14210AA8A8
:101B4000FEF707FB01210804CDE9001000240294F0
:101B500002250491CDE907504FF4E0100990684642
:101B6000FFF7AEF80F20CDE90A056802CDE90C4079
:101B70000E9002210AA8FEF7B7FF0FB030BD7047E4
:101B8000F0B50268164B174C174D4FF0804798423E
:101B900005D0B84203D0A04201D0A84203D122F020
:101BA00070064A683243984205D0B84203D0A0423A
:101BB00001D0A84203D122F44074CA6822434C6980
:101BC00022F08002224302608A68C2620A6882624E
:101BD000984201D10969016301214161F0BD000012
:101BE000002C0140000400400008004010B501F046
:101BF0001F030121046A99408C430462016A9A40E0
:101C00001143016210BD10B5846842EA032224F436
:101C10007F440A432243826010BD826822F0700232
:101C20000A4342F0070181607047000030B5026A44
:101C300022F001020262026A4368846924F073059B
:101C40000C682C4322F002058A682A430A4DA842F8
:101C50000BD122F00805CA6823F440732A434D696A
:101C600022F004021D438B692B4343608461496861
:101C70004163026230BD0000002C014030B5026AB1
:101C800022F010020262026A436884690D6824F43B
:101C9000E64444EA05248D6822F0200242EA051257
:101CA0000B4DA8420ED1CD6822F0800242EA051207
:101CB0004D6923F4406343EA85038D6922F04002B5
:101CC00043EA85034360846149688163026230BDF1
:101CD000002C014030B5026A22F480720262036A6D
:101CE0004268C46923F4007324F073050C682C4324
:101CF0008D6843EA05230C4DA8420ED1CD6823F42C
:101D0000006343EA05234D6922F4405242EA05127A
:101D10008D6923F4806342EA05124260C461496818
:101D2000C163036230BD0000002C014030B5026A7F
:101D300022F480520262046A4268C3690D6823F487
:101D4000E64343EA05238D6824F4005444EA05344D
:101D5000064DA84204D14D6922F4804242EA851220
:101D60004260C36149680164046230BD002C0140D7
:101D700010B5036A046A24F001040462846924F043
:101D8000F00444EA021423F00A020A438461026266
:101D900010BD10B5036A23F0100303628369046A5F
:101DA00023F4704343EA023224F0A00343EA011112
:101DB0008261016210BD10B5406A0021C185C184F5
:101DC000FFF7C6FB10BD0168CA6822F49072CA60B2
:101DD00001684A6922F001024A61202180F83A1024
:101DE000704710B590F83A10222901D0022010BD9A
:101DF00082684FF480539A4201D1016921B1816A0E
:101E00009A421BD04AB10AE00268816A5268C2F362
:101E100008020A80816A891C08E0026972B10268BE
:101E2000526802F07F020A70816A491C8162C18D8A
:101E3000491E0904090CC18503D016E002685268E6
:101E4000F1E70168CA6822F02002CA600168CA6826
:101E500022F48072CA6001684A6922F001024A6174
:101E6000202180F83A10FFF7BFFC002010BD0000D1
:101E700070B5044600680169E26821F440511143DD
:101E800001612169A0680843616908432168CA6843
:101E900041F20C639A430243CA6020684169A26917
:101EA00021F44071114341611E492068884202D1EA
:101EB000FEF7C0FE01E0FEF7ADFE00EBC00101EB56
:101EC0000012606864218000B2FBF0F3B3FBF1F311
:101ED0006FF018067343B2FBF0F5B2FBF0F605EBBA
:101EE0008305322303EB0515B5FBF1F5B6FBF1F6DF
:101EF00005F0F00505EB0615B2FBF0F6B2FBF0F0CD
:101F0000B0FBF1F06FF01802504306EB800003EBDA
:101F10000010B0FBF1F0216800F00F002844886049
:101F200070BD0000003801402DE9F0419846174689
:101F30000E460446069D1DE0681C1BD02DB1FEF721
:101F400035FDA0EB0800A84214D92068C16821F42F
:101F5000D071C1602068416921F0010141612020F8
:101F600084F8390084F83A00002084F8380003200F
:101F7000BDE8F0812068006836EA000004D0002047
:101F8000B842D9D00020F3E70120F9E70148FFF774
:101F9000E1BA0000C401002003480021A0F80411A8
:101FA000012180F8061170471C000020FEE70000A8
:101FB0000FB4054B10B503A9044A029800F0DAF8F3
:101FC00010BC5DF814FB0000A528000818000020D4
:101FD0000907090E002804DB00F1E02080F8001456
:101FE000704700F00F0000F1E02080F8141D7047EA
:101FF00002E008C8121F08C1002AFAD170477047D2
:10200000002001E001C1121F002AFBD1704700002F
:102010002DE9FF5FDDE90220010DDDF838B0024354
:1020200018D044F61050A1F2FF3141430D140F981F
:10203000012820D0A5EB0B00401C5FEA000A4FF0FE
:102040000004474EDFF81C91A046504616D5CAF151
:10205000000728E00F98012443A2012808D000219E
:1020600000980F9BC0E90021C0E90243BDE8FF9F33
:102070006FEA0B01F4E7CBF10000DEE7074612E060
:10208000F80707D02246334640464946FEF713F983
:10209000804689462246334610461946FEF70BF91C
:1020A00004460E467F10002FEAD1DDE90201BAF1A5
:1020B000000F42464B4602DAFEF7FDF801E0FEF75C
:1020C0006CF904460E460022284BFEF7D5F903D8DA
:1020D0004FF0FF30014607E00022254B20463146F5
:1020E000FEF742F8FEF7A5FA102409E0002C0ADBFF
:1020F0000A220023FEF7EEF9019B30321A55641EC6
:1021000050EA0102F2D1641C019AC4F11103144493
:102110000F9A012A03D0012208430DD10AE0084397
:1021200004D000204FF0110B0F9080E7A3EB0B05BC
:102130006D1E0DE05B4504DD4FF0000205F1010569
:1021400004E003DA4FF00002A5F10105002AECD00B
:1021500000980F99C0E90231C0E9004586E7000008
:10216000000024400000F03F300000000000F04379
:102170000000E03F2DE9FF4F95B09B46894606469B
:1021800000250FE2252877D100242746F84A0121AF
:10219000059400E0044316F8013F203B01FA03F0E8
:1021A0001042F7D130782A2811D06FF02F03307801
:1021B000A0F13002092A16D8059A44F0020402EB75
:1021C000820203EB42021044761C0590EFE759F8B7
:1021D000042B0592002A03DA504244F4005405907F
:1021E00044F00204761C30782E2816D116F8010F20
:1021F00044F004042A280DD06FF02F023078A0F1AB
:102200003003092B09D807EB870302EB4303C718F8
:10221000761CF3E759F8047B761C30786C280FD0D5
:1022200006DC4C2817D068280DD06A2814D104E0A9
:10223000742810D07A280FD10DE044F400140AE07D
:1022400044F4801401E044F440147278824202D1D4
:1022500004F58014761C761C307866280BD013DCCD
:10226000582877D009DC002875D04528F6D04628B4
:10227000F4D047281AD19DE118E0632835D06428AE
:1022800079D0652812D195E1702873D008DC6728D1
:10229000F1D069286FD06E280DD06F2806D1B5E037
:1022A00073282CD0752875D0782874D05A46179981
:1022B00090476D1C75E1C4F30250022809D0032831
:1022C0000DD0D9F8001004280DD00D6009F10409D3
:1022D00067E1D9F80010EA17C1E90052F6E7D9F82A
:1022E00000100D80F2E70D70F0E719F8041B8DF86F
:1022F000001000208DF80100EA46012003E059F8A3
:1023000004AB4FF0FF3061074FF0000102D40DE045
:1023100008F101018846B9420FDA8045F8DB1AF866
:1023200008100029F4D108E008F101018846814233
:10233000FADB1AF808100029F6D105985B46A0EBE5
:10234000080721463846179A00F094FA284400EB13
:10235000080507E04DE029E10DE01AF8010B5A46A7
:1023600017999047B8F10108F7D25B4621463846E5
:10237000179A13E142E00A220092C4F302524FF08E
:10238000000A022A08D059F804CB032A4FEAEC715C
:102390000AD00DE029E02AE009F1070121F0070247
:1023A000F2E802C1914609E00FFA8CFC4FEAEC71A9
:1023B000042A03D14FFA8CFC4FEAEC71002907DAAA
:1023C0000A460021DCF1000C61EB02012D2202E043
:1023D000220504D52B228DF80420012203E0E20718
:1023E00001D02022F7E7904659E00A2102E01022AE
:1023F0000DE010214FF0000A00910BE010224FF089
:10240000000A44F004040827009203E008224FF079
:10241000000A0092C4F30252022A05D059F804CBF4
:102420000021032A08D009E009F1070121F0070281
:10243000F2E802C1914605E01FFA8CFC042A01D1A2
:102440000CF0FF0C4FF00008220728D5702806D0AA
:10245000009B83F0100353EA0A0305D00EE04022EC
:102460008DF80420012208E05CEA010206D0302247
:102470008DF804208DF8050002229046009B83F021
:10248000080353EA0A030AD15CEA010201D1620798
:1024900005D530228DF804204FF001087F1E582802
:1024A00004D034A003900EA802900DE036A0F9E706
:1024B00053466046009AFEF70DF884460398825C06
:1024C0000298401E029002705CEA0100F0D102986E
:1024D00006A9081A00F1200A600702D524F4803406
:1024E00000E00127574502DDA7EB0A0000E00020CD
:1024F00000EB0A01009005984144401A0590E00362
:1025000006D45B462146179A059800F0B3F90544B6
:10251000002706E001A85A46C05D179990476D1C38
:102520007F1C4745F6DBE0030CD55B462146179A36
:10253000059800F09FF9054404E030205A461799A9
:1025400090476D1C0099481E00900029F5DC08E0BA
:10255000029802995A460078491C029117999047AF
:102560006D1CBAF10001AAF1010AF1DC65E100007D
:102570000928010030313233343536373839616259
:10258000636465660000000030313233343536371D
:1025900038394142434445460000000000F058F9F4
:1025A0000544761C307800287FF4ECAD19B028463D
:1025B000BDE8F08F620700D4062709F1070222F078
:1025C000070CFCE80223E14603F000485FEA080C30
:1025D00002D00FF2702C0DE05FEA045C02D50FF21E
:1025E000682C07E05FEAC47C02D00FF2602C01E0A7
:1025F000AFF2700C4FF0FF3823F00043CDF850C01D
:1026000065280CD006DC452809D046281DD047286F
:102610003DD13DE0662818D067287ED138E0002102
:10262000112F01DB112000E0781CCDE9000106A983
:102630000EA8FFF7EDFCDDE90F010E9A03910021D2
:10264000009207F1010A04914DE04FF0004000971D
:10265000CDE9011006A90EA8FFF7DAFCDDE90F02AB
:1026600003920E9B11990022DDF80CA000930492B6
:1026700011B9791C00EB010AB7EB0A0004D4C0F1D0
:10268000FF3007F1010A0490AAEB0700019044E033
:10269000012F00DA01270021112F01DD112000E0B8
:1026A0003846CDE9000106A90EA8FFF7B1FCDDE927
:1026B0000F010E9A0391002104910092BA4621075E
:1026C0000CD40399514500DA8A46BAF1010F05DDB1
:1026D000009AAAF10101515C302908D0B84202DA0F
:1026E00010F1040F06DA0121CDE9011015E0AAF17D
:1026F0000101E9E7002805DC049901440491AAEBF3
:10270000000102E0411C514500DD8A460499401A4F
:10271000401C01904FF000400290200704D4019823
:10272000504501DBCDF8048000208DF84F00029861
:102730000DF14F07B0F1004F25D02B200E900298DD
:102740004FF0020800280CDA404202902D200E9033
:1027500007E00A210298FDF7A7FE3031029007F842
:10276000011DB8F10001A8F10108F2DC029800286F
:10277000EFD1791E0E980870307800F0200040F0FC
:10278000450007F8020D12A8C01B00F107081498B5
:10279000007800B1012000EB0A01019801EBE07123
:1027A00005984144401A401E0590E00306D45B465C
:1027B0002146179A059800F05DF8054414980078B2
:1027C00018B15A46179990476D1CE00324D55B4613
:1027D0002146179A059800F04DF805441CE004982E
:1027E000002807DBDDE90301884203DD0098405C37
:1027F000179901E0179930205A469047049805F13F
:102800000105401C04900198401E019004D12E2027
:102810005A46179990476D1CBAF10001AAF1010AB6
:10282000DDDC05E017F8010B5A46179990476D1C3F
:10283000B8F10001A8F10108F4DC5B462146179AC3
:102840000598ABE62D0000002B00000020000000E2
:102850002DE9F041044600251E461746880404D49D
:1028600005E039462020B0476D1C641EF9D5284686
:10287000BDE8F0812DE9F041044600251E46904652
:10288000C80301D5302700E02027880404D505E0DF
:1028900041463846B0476D1C641EF9D52846BDE850
:1028A000F081000013B5FF23012269460248FEF7BC
:1028B000C1FF00981CBD0000C4010020FEF784F891
:1028C000FFF736F9FFF712F8FFF788F8FFF70EF970
:1028D000FFF7A6F814A0FFF76BFB4FF4FA70FDF7B3
:1028E00047FF18A0FFF764FBFDF7CEFE002421464A
:1028F0001B48FEF7DFFD641CE4B22046FDF7E4FE52
:102900000A20FDF735FF642CF5D307E0641EE4B21E
:102910002046FDF7D9FE0A20FDF72AFF002CF5D14D
:10292000C820FDF725FFE6E74448543131206368AD
:1029300065636B6564206661696C65642121210DA6
:102940000A000000444854313120636865636B65B8
:102950006420737563636573732121210D0A000080
:102960007C010020000000000000000001020304C0
:102970000607080900000000010203049C29000862
:10298000000000201C000000F01F0008B82900080B
:102990001C000020EC0500000020000800000000E2
:1029A0000000000001000000100000000000000016
:0829B0000024F4000000000007
:04000005080000ED02
:00000001FF
