:020000040800F2
:10000000080B002001010008372B00089928000880
:10001000352B00089D0900089D49000800000000DC
:10002000000000000000000000000000A92D0008F2
:10003000490B000800000000392C0008B9430008F3
:100040001B0100081B0100081B0100081B01000820
:100050001B0100081B0100081B0100084B0B0008D6
:100060001B0100081B0100081B0100081B01000800
:100070001B0100081B0100081B0100081B010008F0
:100080001B0100081B0100081B0100081B010008E0
:100090001B0100081B0100081B0100081B010008D0
:1000A0001B0100081B0100081B0100081B010008C0
:1000B0001B0100081B0100081B0100081B010008B0
:1000C0001B0100081B0100081B0100081B010008A0
:1000D0001B010008614900081B0100081B01000802
:1000E0001B0100081B0100081B010008DFF80CD0F1
:1000F00000F0A6FB0048004755560008080B0020FA
:100100000648804706480047FEE7FEE7FEE7FEE7B1
:10011000FEE7FEE7FEE7FEE7FEE7FEE71F44000816
:10012000ED000008202A04DB203A21FA02F0002129
:10013000704721FA02F3D040C2F1200291400843F7
:100140001946704740EA01039B0703D009E008C93C
:10015000121F08C0042AFAD203E011F8013B00F88C
:10016000013B521EF9D27047D2B201E000F8012BD8
:10017000491EFBD270470022F6E710B513460A4627
:1001800004461946FFF7F0FF204610BD421E12F844
:10019000013F002BFBD111F8013B02F8013B002B82
:1001A000F9D17047421C10F8011B0029FBD1801ABD
:1001B00070472DE9FE4F804681EA0300C00F0C46D0
:1001C000009021F0004123F00045B8EB0200A94166
:1001D00005D24046214690461C460B46024623F077
:1001E0000040104347D0270DC7F30A00C3F30A515C
:1001F0000290401A019040286BDAC3F3130040F4D8
:10020000801B0098924620B10023D2EB030A63EBD7
:100210000B0B01985946C0F14002504600F035FAE8
:1002200006460D4650465946019A00F03DFA10EB3D
:1002300008006141002487EA115284EAE7731A43F7
:1002400040D0009A62B3019A012A4FEA075215DCA6
:10025000001B61EB02014FF0004202EA0752CDE9B8
:100260000042001C41F5801132462B4600F03DFA59
:1002700003B0BDE8F08F40462146F9E7001B61EB73
:100280000201001C41F5801300185B412018A2F503
:10029000001747EB030140EAD570B6196D4111E034
:1002A0006D084FEA360645EAC0754FEA0752001B53
:1002B00061EB0201001C41F5801149084FEA300052
:1002C0000019514132462B4603B0BDE8F04F00F013
:1002D000FDB90098012240000023D0EB020263EB3D
:1002E000E073009821464FEAE074B8EB000061EB40
:1002F0000401E9E783F000435BE781F0004158E740
:100300002DE9FE4F81EA030404F0004421F000418E
:1003100000944FF0000B23F0004350EA01045ED03C
:1003200052EA03045BD0C3F30A54C1F30A552C44C8
:10033000A4F2F3340194A0FB0254C1F3130141F47D
:100340008011C3F3130343F4801301FB024400FB49
:10035000034E840A970A44EA815447EA8357A4FB70
:10036000076802958D0A05FB07854FEA932C04FB6D
:100370000C542705029D4FEA065847EA1637B5EB9D
:1003800008056EEB070C870E920E47EA811742EACA
:100390008312A7FB0201B6EB0B0164EB00042B0DEB
:1003A00043EA0C335E1844EB1C50DA465146E7FB37
:1003B0000201C5F313044FEA0B3343EA14534FEA27
:1003C0000432019C43EA0603A4F10C040294009C4D
:1003D000CDE900B400F089F903B0BDE8F08F00204A
:1003E0000146F9E72DE9F04D81EA030404F0004BE2
:1003F00021F0004514464FF0000A23F0004150EA76
:10040000050220D054EA01021DD0C5F30A57024666
:10041000C5F31303C1F31300C1F30A5640F480156A
:1004200043F48013A7EB0608101BD64608F2FD38EC
:1004300073EB050002D308F1010801E092185B415B
:10044000B8F1000F03DA00200146BDE8F08D00206E
:100450004FF48011064684460EE0171B73EB050728
:1004600005D3121B63EB050306434CEA010C490854
:100470004FEA300092185B4150EA0107EDD152EA91
:10048000030012D082EA040083EA0501084305D084
:10049000101BAB4106D20122002306E000224FF0E0
:1004A000004302E06FF0010253101AEB06004CEB20
:1004B000085110EB0A0041EB0B01BDE8F04D00F0D4
:1004C00005B970B521F0004303430CD0C1F30A55C0
:1004D0000024D5EB040564EB0403D617AD1AB34131
:1004E00002DB0020014670BD201841EB025170BDB7
:1004F0000EB5C10F80EAE0700844CA07002140F23F
:1005000033438DE80E000A460B4600F0EEF803B0C8
:1005100000BD0EB540F2334102910021CDE900113A
:100520000A460B4600F0E1F803B000BD70B5C1F318
:100530000A5201F000450024C1F3130140F2FF33D9
:1005400041F480119A4201DA002070BD40F2334339
:100550009A42A2F2334203DC5242FFF7E3FD00E08D
:1005600090402C43F1D0404270BDC1F30A5210B507
:10057000C1F3130140F2FF3341F480119A4201DAD2
:10058000002010BD40F233439A42A2F2334203DC12
:100590005242FFF7C7FD10BD904010BD30B5041E9C
:1005A00071F1000404DB4FF00044404264EB0101B0
:1005B000141E73F1000405DB1C464FF00043524249
:1005C00063EB04038B4208BF824230BD30B5041E8A
:1005D00071F1000404DB4FF00044404264EB010180
:1005E000141E73F1000405DB1C464FF00043524219
:1005F00063EB0403994208BF904230BD30B50B460F
:10060000014600202022012409E021FA02F59D4242
:1006100005D303FA02F5491B04FA02F52844151E16
:10062000A2F10102F1DC30BD2DE9F05F05460020AA
:1006300092469B4688460646814640241BE0284653
:10064000414647462246FFF76DFD53465A46C01ABB
:10065000914110D311461846224600F016F82D1A83
:1006600067EB01084F4622460120002100F00DF8FB
:1006700017EB00094E41201EA4F10104DFDC4846BF
:1006800031462A464346BDE8F09F202A04DB203A43
:1006900000FA02F1002070479140C2F1200320FAD5
:1006A00003F3194390407047202A06DBCB17203A0A
:1006B00041FA02F043EAE07306E041FA02F3D04067
:1006C000C2F12002914008431946704710B5141E2C
:1006D00073F1000408DA401C41F1000192185B41FB
:1006E0001A4301D120F0010010BD2DE9F04D9246D2
:1006F0009B4611B1B1FA81F202E0B0FA80F22032E9
:100700009046FFF7C2FF04460F4640EA0A0041EA5E
:100710000B0153465A46084313D0114653EA0100D1
:1007200019D0C8F140025046FFF7FCFC05460E46C2
:10073000504659464246FFF7A8FF084305D001201E
:1007400004E020463946BDE8F08D0020054346EA26
:10075000E0762C4337430A986305E40AA0EB0800CF
:100760000022FD0A44EA47540A3002D5002001461F
:10077000E9E7010510196941DDE9084500196941FA
:10078000BDE8F04DA2E700002DE9F041054621F05B
:1007900000400C46284309D0C4F30A5040F23341CC
:1007A000884205DD28462146BDE8F0812846FBE762
:1007B00040F2FE31884210DC0CDB4FEA043040EAA4
:1007C000155050EA053105D0104804F000410143AE
:1007D0000020E9E700200146E6E7A0F23340464268
:1007E000C6F1400228462146FFF74FFF07468846DC
:1007F000284621463246FFF795FC43463A46FFF726
:1008000065FF3246BDE8F041FFF73FBF0000F03F13
:10081000C1F30A52C1F3130140F2FF3341F48011D6
:100820009A4202DA00200146704740F233439A426E
:10083000A2F2334202DC5242FFF774BCFFF725BF3D
:10084000064C074D06E0E06840F0010394E807001D
:1008500098471034AC42F6D3FFF74CFCD45900084B
:10086000F459000870B58C1810F8015B15F00703F7
:1008700001D110F8013B2A1106D110F8012B03E039
:1008800010F8016B01F8016B5B1EF9D12B0705D441
:100890000023521E0DD401F8013BFAE710F8013B8A
:1008A000CB1A921C03E013F8015B01F8015B521EA6
:1008B000F9D5A142D8D3002070BD000070B5044620
:1008C00000688168C943C9071CD1816821F0010112
:1008D000816000F031FE05460FE000BF00F02CFE05
:1008E000401B022809D9A06A40F01000A062E06A0B
:1008F00040F00100E062012070BD20688068C043C4
:10090000C007EBD0002070BDF8B500260446009665
:1009100000688168C943C90728D0816841F0010196
:100920008160134813490068B0FBF1F000E0401EFD
:1009300000900028FBD100F0FFFD054611E000BF4C
:1009400000F0FAFD401B02280BD9A06A40F010000D
:10095000A062E06A40F00100E06284F824600120B7
:10096000F8BD20688068C043C007E9D10020F8BD09
:100970004801002040420F00064900200122487033
:10098000A1F8040181F80601A1F80201024801F072
:1009900099BE0000EC020020C4040020FEE7000025
:1009A00070B5002400F050F8124D04E0641CE4B26D
:1009B000012004F09FFD1021284600F0ABFD10B18E
:1009C000642CF3D30FE0642C0DD2002404E0641CEB
:1009D000E4B2012004F08EFD1021284600F09AFDBB
:1009E00018B1642C04D3012070BD642CEFD3FAE756
:1009F000002070BD000C01402DE9FC410D4606466B
:100A000000F08AF8FFF7CCFF10B10120BDE8FC81AF
:100A100000246F4600F072F83855641CE4B2052CCF
:100A2000F8D39DF800109DF801009DF803300A18D6
:100A30009DF8020003441A449DF804309A4201D103
:100A4000297030700020E1E71FB5102000900020D1
:100A500001906946014800F06DFC1FBD000C01408B
:100A60001FB51020009001200190032003906946DB
:100A7000014800F05FFC1FBD000C01401FB51020B5
:100A800000900120019002900320039069460448E1
:100A900000F050FC00F040F8FFF782FF04B010BDFA
:100AA000000C014070B50024134D04E0641CE4B256
:100AB000012004F01FFD1021284600F02BFD08B195
:100AC000642CF3D3002404E0641CE4B2012004F09D
:100AD00011FD1021284600F01DFD08B9642CF3D348
:100AE000282004F007FD1021284600F013FD0028FF
:100AF00000D0012070BD0000000C014070B5002046
:100B000004464006050EFFF7CDFF641C2843E4B2FF
:100B1000082CF6D370BD000010B5FFF7A1FF094CFB
:100B200000221021204600F002FD142000F0DAFB24
:100B300001221021204600F0FAFCBDE810401E20E2
:100B400004F0D8BC000C01407047022000F0E6BB66
:100B500070470000F0B5A1B005461FA91EA8FFF719
:100B60004BFF3E4800F0F8FA32213C4800F05CFAB6
:100B70003A4800F099F9800503D5384800F096F915
:100B80000446364800F048FB64204443A0EB14348C
:100B9000601E334F4FF40056272804D200223146FE
:100BA000384600F0C4FCA4F128003C2804D20122FD
:100BB0003146384600F0BBFC01222AA1684603F00A
:100BC000FFFE012227A105A803F0FAFE132225A1AA
:100BD0000AA803F0F5FE9DF8782022A10FA803F0E3
:100BE000EFFE9DF87C201FA114A803F0E9FE224629
:100BF0001CA119A803F0E4FE69462846FFF7C6FACF
:100C000019A12846FFF7C2FA05A92846FFF7BEFA40
:100C100015A12846FFF7BAFA0AA92846FFF7B6FA3F
:100C200011A12846FFF7B2FA0FA92846FFF7AEFA3E
:100C30000DA12846FFF7AAFA14A92846FFF7A6FA3D
:100C400009A12846FFF7A2FA19A92846FFF79EFA3C
:100C500040F6B83000F046FB21B0F0BDF4030020B0
:100C600000100140257500005F00000070B53220C3
:100C700003F0F8FE0446FFF76DFF2046FFF792FAF7
:100C800085B22A46214606A003F08AFE0948E9B249
:100C9000826A204690472046BDE8704003F0B4BE0B
:100CA00074783A2573204461746153697A653A25F2
:100CB000640D0A0060590008094A002152F83130D9
:100CC000834208D802EBC1039B68834203D902EB3D
:100CD000C10000797047491CC9B21529EED3FEE75F
:100CE00098580008F8B500250446009590F82400AF
:100CF000012808D0012084F824002046FFF7DEFDFB
:100D0000060002D04BE00220F8BDA06A20F4885013
:100D100040F00200A062022000F0ACFC2249096809
:100D2000B1FBF0F0400000E0401E00900028FBD135
:100D30002046FFF7E9FD2068816841F008018160E5
:100D400000F0FAFB074604E000F0F6FBC01B0A289F
:100D500011D8206880680007F6D42068816841F0C7
:100D60000401816000F0E8FB07460EE000F0E4FBC0
:100D7000C01B0A2809D9A06A20F0020040F0100028
:100D8000A06284F824500120F8BD206880684007E4
:100D9000ECD4A06A20F0020040F00100A06284F8C8
:100DA00024503046F8BD000048010020F8B500246A
:100DB000009490F824202546012A12D0012280F8C0
:100DC00024204A681F23072A0DD20668776B521E1B
:100DD00002EB820293409F430B6893401F4377636B
:100DE00019E00220F8BD06680D2A0AD2376BD21F1F
:100DF00002EB820293409F430B6893401F4337638B
:100E000009E0F76A0D3A02EB820293409F430B68B8
:100E100093401F43F7620A68072306680A2A0AD329
:100E2000F7680A3A02EB420293409F438B68934073
:100E30001F43F76008E0376902EB420293409F438B
:100E40008B6893401F4337610A68102A01D0112A2A
:100E500020D1124B02689A4217D193681B0219D411
:100E6000936843F4000393600968102912D10C4978
:100E70000C4A0968B1FBF2F101EB8101490000E085
:100E8000491E00910029FBD104E0816A41F0200154
:100E90008162012480F824502046F8BD00240140DE
:100EA0004801002040420F00806A70470068C06C13
:100EB000704700002DE9F0414FF0000704003D4667
:100EC0007ED0A06A002628B9E66284F82460204615
:100ED00000F07EF82046FFF7F1FCA16A01F0100156
:100EE000014304D0A06A40F01000A06268E0A16A4B
:100EF00021F4885141F00201A1626268E169237B1B
:100F00000A4347EA43010A43A1684FF48077B94294
:100F100008D0012906D0002194F814C0BCF1010FBB
:100F200002D00AE03946F7E7F3B1A36A43F02003A1
:100F3000A362E36A43F00103E3622368D3F804C0C9
:100F40002CF4694C4CEA010CC3F804C0236899687E
:100F5000DFF870C001EA0C0111439960A168B94241
:100F60000BD0012909D00CE0DFF85CC0A3690CEBC1
:100F700043330B4343F40061DFE7218A0D05A5F5F8
:100F800080152168CB6A23F470032B43CB62216860
:100F900089680E4B1940914208D1E662A16A21F09E
:100FA000020141F00101A162BDE8F081A06A20F0D8
:100FB000020040F01000A062E06A40F00100E06230
:100FC0000120F1E7FDF7E1FF00E0FFFFFE0E1FFF4C
:100FD00000B585B000210091019102910391006854
:100FE0000E49884218D10E48816941F4007181612F
:100FF000816901F400710491816941F0040181610A
:101000008069694600F004000490082000900320E5
:101010000190044800F08EF905B000BD00240140A5
:1010200000100240000801402DE9F84300260D465B
:101030000446009600F080FA804620688168C90561
:1010400008D5A06A40F02000A06284F82460012046
:10105000BDE8F8834168C90503D4C06A10F4700F75
:1010600026D0022000F006FB38490968B1FBF0F7F2
:101070002068036936490B424FEA61014FEAA11229
:101080001BD1C3684FEA611C13EA0C0F15D1036929
:101090000B4221D1C06810421ED114201FE0681CF1
:1010A00006D045B300F048FAA0EB0800A84222D8C9
:1010B000206800688007F2D52AE003690B4202D15C
:1010C000C168114206D0026922490A4206D1C068AD
:1010D000084203D1542002E0292000E0FC204743CD
:1010E000009813E0681C0ED02DB100F025FAA0EB9B
:1010F0000800A84207D9A06A40F00400A06284F862
:1011000024600320A4E70098401C0090B842E9D373
:1011100021686FF012000860A06A40F40070A062BD
:1011200020688068C0F3424007280CD1207B50B96A
:10113000A06A20F48070A062A06AC00403D4A06AF0
:1011400040F00100A062002082E70000480100207A
:10115000244992244992240070B5044690F8240052
:1011600001280DD0012084F824002046FFF7CCFB95
:1011700002004FF0000005D084F82400104670BD36
:10118000022070BDA16A40F20123994341F48071AD
:10119000A1621F4D23681F49AB4218D10E6816F497
:1011A000702F14D0A66A46F48016A6620E687605E3
:1011B00005D5A66A26F4005646F48056A662A66AAD
:1011C000F6040AD5E66A26F00606E66206E0A66A96
:1011D00026F48016A6625E68E9E7E06284F82400DF
:1011E0006FF00200186020688368C3F34243072B46
:1011F00005D1A84208D1096811F4702F04D0816884
:1012000041F480118160B9E7816841F4A001F9E7F8
:10121000002801400424014010B5044690F8240041
:10122000012807D0012084F824002046FFF746FB60
:1012300010B107E0022010BDA16A21F4885141F0ED
:101240000101A162002184F8241010BD10B590F8AE
:1012500021100024022903D00421816301243DE0F0
:1012600001680A6822F00E020A6001680A6822F02A
:1012700001020A601A4A0168914201D1012121E06C
:10128000174A1432914201D110211BE0144A28322E
:10129000914201D1891515E0114A3C32914201D1A8
:1012A00089140FE00E4A5032914202D14FF480313E
:1012B00008E00B4A6432914202D14FF4801101E000
:1012C0004FF08071064A083A5160012180F82110E0
:1012D000002180F82010416B01B18847204610BDE5
:1012E0000800024070B5044600F026F90546601C6F
:1012F00002D004480078044400F01EF9401BA042CC
:10130000FAD370BD3C010020022804D10248406895
:10131000002800D00047704734010020044910B570
:101320000A68024202D00860FFF7EEFF10BD00001D
:10133000140401402DE9F84FDFF8B891002409F1B9
:10134000040A0AF1040B23460F270BF1040EC9E02F
:101350000125A5402A40AA427DD1674ED1F804C09C
:10136000ACEB0608B44532D014DCBCF1030F3AD024
:1013700009DCBCF1000F2AD0BCF1010F1CD0BCF17C
:10138000020F31D11DE0BCF1110F17D0BCF1120FCB
:101390002AD119E0B8F5881F19D006DCB8F5803FCE
:1013A00015D0B8F5801F1FD111E0B8F5001F0ED081
:1013B000B8F5041F18D10AE0CB6815E0CB681B1DF7
:1013C00012E0CB6808330FE0CB680C330CE08B687D
:1013D0002BB1012B4FF0080303D0456104E0042337
:1013E00002E0056100E00023FF2A01D8064601E083
:1013F00000F104064FEA840501D9A5F12005D6F8CD
:10140000008007FA05FC28EA0C0803FA05F548EA0B
:101410000508C6F800804D68ED0062D5374DAE690D
:1014200046F00106AE61AD6924F0030605F0010542
:101430000095334D06EB050CDCF80850A607360F77
:1014400007FA06F825EA0805DFF8B880404503D119
:101450004FF0000817E044E0DFF8AC80404502D1CF
:101460004FF001080FE0DFF8A480404502D14FF0B3
:10147000020808E0DFF89880404502D14FF00308E9
:1014800001E04FF0040808FA06F848EA0508CCF82D
:1014900008804D68D9F80060ED034D4601D516432C
:1014A00000E096432E604D68DAF80060AD035546C3
:1014B00001D5164300E096432E604D68DBF80060CE
:1014C000ED025D4601D5164300E096432E604D685F
:1014D000DEF80060AD02754601D5164300E0964384
:1014E0002E60641C0D682A46E5407FF431AFBDE8EC
:1014F000F88F0000000401400000111000100240AD
:101500000000014000080140000C014000100140B3
:10151000001401408068084000D001207047C26874
:1015200021EA02030A4043EA0241016170470AB11D
:10153000016170470904FBE70148806870470000BB
:101540003C010020024881680278114481607047A4
:101550003C010020074810B5016841F0100101600E
:10156000032000F075F8002000F006F800F024F8E1
:10157000002010BD0020024070B50D4D04464FF410
:101580007A712878B1FBF0F00A490968B1FBF0F0F4
:1015900000F04FFD48B9102C07D200222146501E02
:1015A00000F036F800206C6070BD012070BD0000B6
:1015B0003C010020480100200C4808B5816941F039
:1015C00001018161816901F001010091C16941F06E
:1015D0008051C161C06900F08050009004484168AA
:1015E00021F0E06141F08061416008BD00100240DF
:1015F00000000140002809DB00F01F02012191409A
:101600004009800000F1E020C0F8001170470000A0
:10161000F0B40E4B1B680C46C3F30223C3F107055D
:10162000042D00D90425191D072901D2002300E04B
:10163000DB1E012606FA05F1491E214099409E4015
:10164000761E16403143F0BC03F0CEB90CED00E03D
:10165000064900F0070208684FF6FF03184040EA09
:101660000220034A10430860704700000CED00E0C0
:101670000000FA0510B529A401461DCC86B08DE8FE
:101680001D002AA02A4C006804900020012923D0C4
:1016900002293AD010291DD161682268D20119D5DA
:1016A000C1F38342C9031DF8020009D5616804AA89
:1016B000C1F34041515C1F4AB2FBF1F1484301E0E4
:1016C0001D4948436168490204D440005FF00301AA
:1016D000B0FBF1F006B010BD226AC2F3012101296E
:1016E00003D1920701D5C803F4E7022905D1626A44
:1016F000920702D549F64040ECE70329EAD1216878
:101700008903E7D54FF22440E4E700F039F9616836
:10171000C1F38131491C4900DAE7000002030405E6
:10172000060708090A0B0C0D0E0F1010010200002D
:101730000010024000127A0000093D002DE9F84334
:1017400005460078354CC00754D0E0690026C0003B
:1017500008D4E06940F08050E061E069012600F0C3
:10176000805000902E480168C90512D40168804657
:1017700041F480710160FFF7DFFE074605E000BF1E
:10178000FFF7DAFEC01B642823D8D8F80000C00594
:10179000F6D5206A10F4407021D0A98801F4407178
:1017A00081421CD0206A1F49012220F440700A6047
:1017B00000220A602062C00711D0FFF7BDFE074675
:1017C00041F2883808E000BFFFF7B6FEC11B414573
:1017D00002D90320BDE8F883206A8007F4D5206A87
:1017E000696820F44070084320621EB1E06920F06F
:1017F0008050E0612878800705D56068A96820F4EA
:101800004040084360602878C00605D56068E968F4
:1018100020F48000084360600020DBE700100240F5
:1018200000700040400442422DE9F0470F46050099
:1018300061D0434E306800F00700B84209D23068EA
:1018400020F0070038433060306800F00700B842ED
:1018500051D128683B4C810712D5400703D56068F9
:1018600040F4E06060602878000703D5606840F4C9
:10187000605060606068A96820F0F0000843606014
:101880002878C00728D06868012810D0216802286D
:1018900010D0890700292EDA616821F00301014385
:1018A0006160FFF749FE804641F288390DE021680A
:1018B0008903EFE78901EDE7FFF73EFEA0EB0801A2
:1018C000494502D90320BDE8F0876068696800F0E7
:1018D0000C00B0EB810FEFD1306800F00700B84288
:1018E0000BD9306820F0070038433060306800F0D2
:1018F0000700B84201D00120E5E72878400705D568
:101900006068E96820F4E0600843606028780007B8
:1019100006D56068296920F4605040EAC100606023
:1019200000F03EF86168084AC1F30311515CC840F9
:101930000649086006480068FFF71EFE0020C2E75F
:101940000020024000100240BC590008480100205D
:101950004001002001480068704700004801002055
:101960000448054900684968044AC1F30221515CF2
:10197000C84070474801002000100240CC590008C0
:101980000448054900684968044AC1F3C221515C12
:10199000C84070474801002000100240CC590008A0
:1019A00012A185B00FC98DE80F0014A0144A006879
:1019B00004905168134801F00C03042B10D0082B3D
:1019C0000ED1C1F38343C9031DF803000AD5516842
:1019D00004AAC1F34041515C0A4A5043B0FBF1F004
:1019E00005B0704708494843FAE7000002030405C0
:1019F000060708090A0B0C0D0E0F1010010200005B
:101A00000010024000127A0000093D002DE9F84F55
:101A1000040070D02078C04DC00749D06868C0F37A
:101A20008100012807D06868C0F38100022809D12D
:101A30006868C00306D52868800339D56068002827
:101A4000E7D035E06068B0F5803F0BD010B1B0F55D
:101A5000A02F11D0286820F480302860286820F456
:101A6000802002E0286840F480302860606890B1EF
:101A7000FFF762FD06460AE0286840F480202860EF
:101A8000F0E700BFFFF758FD801B642873D8286873
:101A90008003F7D50CE0FFF74FFD064605E000BFD9
:101AA000FFF74AFD801B6428F0D828688003F7D42C
:101AB00020789A4E80074FF001094FF0000839D581
:101AC000686810F00C0F07D06868C0F38100022826
:101AD00009D16868C00306D42868800714D5206936
:101AE000012808D110E02069B0B1C6F80090FFF7D6
:101AF00023FD074605E00AE1FFF71EFDC01B022893
:101B0000C4D828688007F7D52868616920F0F800F4
:101B100040EAC10028600DE0C6F80080FFF70CFD28
:101B2000074604E0FFF708FDC01B022823D82868F9
:101B30008007F7D4207800072CD57948A169D9B15E
:101B4000C0F80090FFF7F8FC074604E0FFF7F4FC4C
:101B5000C01B02280FD8686A8007F7D571484FF478
:101B6000FA510068B0FBF1F0009000BF0098411EF0
:101B70000091FAD20EE080E0C0F80080FFF7DCFCB4
:101B8000074604E0FFF7D8FCC01B022875D8686A36
:101B90008007F7D42078400760D5E8690027C000A7
:101BA00008D4E86940F08050E861E869012700F056
:101BB000805000905C480168C90513D401688346D1
:101BC00041F480710160FFF7B7FC824606E000BF78
:101BD000FFF7B2FCA0EB0A0064284ED8DBF8000047
:101BE000C005F5D5E06801280AD008B1052813D052
:101BF000286A20F001002862286A20F0040002E030
:101C0000286A40F001002862E06841F2883B98B100
:101C1000FFF792FC82460BE0286A40F0040028623D
:101C2000EEE700BFFFF788FCA0EB0A0159455AD840
:101C3000286A8007F6D50CE0FFF77EFC824605E0B7
:101C4000FFF77AFCA0EB0A0159454CD8286A8007B7
:101C5000F6D41FB1E86920F08050E861E06988B3EC
:101C60006968C1F38101022944D00228C6F8608066
:101C700004D0FFF761FC044638E034E0FFF75CFC79
:101C8000074604E0FFF758FCC01B02282BD8286841
:101C90008001F7D4206AB0F5803F05D16868A1685B
:101CA00020F4003008436860D4E9080108436968FB
:101CB00021F4741108436860C6F86090FFF73CFC9B
:101CC000044606E025E000BFFFF736FC001B0228B3
:101CD00009D828688001F7D51BE000BFFFF72CFC6E
:101CE000001B022802D90320BDE8F88F2868800174
:101CF000F4D40EE00128F7D06868226A00F480313D
:101D0000914204D1616A00F47010884201D0012030
:101D1000EAE70020E8E7000000100240000042422D
:101D200080044242480100200070004070B5040069
:101D300009D0606A002540B125616561A56294F80B
:101D4000510040B10CE0012070BD6068B0F5827FA9
:101D5000F4D0E561F2E784F85050204600F040F8F6
:101D6000022084F851002068016821F040010160E0
:101D7000A088218900F4827001F404410843A189FC
:101D800001F400610843217C01F002010843217D38
:101D900001F001010843218B01F400710843217F08
:101DA00001F03801084394F8201001F08001084345
:101DB000218D01F40051084321680860A0690421C5
:101DC00001EA1040216848602068C16921F400617F
:101DD000C1616565012084F85100002070BD0000DC
:101DE00030B585B0002400940194029403940068F7
:101DF0001449884223D11448816941F4805181619A
:101E0000816901F480510491816941F0040181618B
:101E100080690E4D00F004000490A0200090022084
:101E200001900320039069462846FFF783FA40207B
:101E3000CDE90004694628460294FFF77BFA05B015
:101E400030BD000000300140001002400008014099
:101E50002DE9F84F044690F8500000270A9E1D46D1
:101E600092468B464FF0010901280ED0012084F8DC
:101E70005000FFF761FB804694F85100616801282B
:101E80000CD0B1F5827F07D102E00220BDE8F88FC7
:101E9000A16809B9042801D00227C2E0BBF1000FF4
:101EA00027D0BAF1000F24D01DB394F851000428B4
:101EB00002D0052084F8510000206065C4F838A0E5
:101EC000E587A587C4F830B0E586A5862064606400
:101ED00020680168490603D4016841F040010160AF
:101EE000E068B0F5006F606805D0E8B3012D46D01A
:101EF0007FE0012795E008B1012D39D1206B2168E1
:101F00000088C860206B801C2063E08E401EE08645
:101F10002EE02068816889070FD5E18E69B1B9F19B
:101F2000010F0AD1216B0988C160206B801C2063DE
:101F3000E08E401EE0864FF0000920688168C907E6
:101F40000CD0E18F51B1C068A16B0880A06B801CE0
:101F5000A063E08F401EE0874FF00109FFF7ECFA25
:101F6000A0EB0800B04200E009E001D3701C50D1A2
:101F7000E08E0028CDD1E08F0028CAD13FE0206B51
:101F8000216800780873206B401C2063E08E401E9F
:101F9000E0862EE02068816889070FD5E18E69B15F
:101FA000B9F1010F0AD1216B09780173206B401C34
:101FB0002063E08E401EE0864FF0000920688168B3
:101FC000C9070CD0E18F51B1C068A16B0870A06B3C
:101FD000401CA063E08F401EE0874FF00109FFF72F
:101FE000ABFAA0EB0800B04202D3701C01D010E0A5
:101FF0007EB1E08E0028CDD1E08F0028CAD14246C4
:102000003146204600F064FE28B10127202060659B
:1020100007E0032705E0A06818B92068C168806858
:102020000090012084F85100002084F850003846C8
:102030002CE710B5401EB0F1807F01D3012010BD08
:102040004FF0E02460610F21601702F0CDFC00200A
:10205000A06107202061002010BD10B590F83C2041
:10206000012A22D0012280F83C20CA688C6822F420
:10207000407222434C6822F4806222430C6822F4AE
:10208000006222430C6922F4805222434C6922F4FC
:1020900000522243C969002322F480420A430168A6
:1020A0004A6480F83C30002010BD022010BD0000C2
:1020B00070B590F83C20012A26D0012480F83C40DD
:1020C000022280F83D2003685A689D6822F070065D
:1020D0000A6832435A600D4B02689A4208D0B2F146
:1020E000804F05D00A4B9A4202D00A4B9A4204D143
:1020F000496825F080031943916080F83D40002134
:1021000080F83C10084670BD022070BD002C0140D4
:10211000000400400008004010B5040003D094F80B
:102120003D0010B107E0012010BD002084F83C0004
:10213000204600F01FF8022084F83D00211D206891
:1021400002F06EF9012084F8460084F83E0084F81D
:102150003F0084F8400084F8410084F8420084F88D
:10216000430084F8440084F8450084F83D000020D2
:1021700010BD000008B500680649884208D106482D
:10218000816941F400618161806900F40060009020
:1021900008BD0000002C01400010024070B504464C
:1021A00090F83C00012817D0012584F83C5002200B
:1021B00084F83D002068826822F0770222F47F4292
:1021C00082600868502830D00DDC20284DD005DC16
:1021D00098B310283BD148E0022070BD302844D08D
:1021E000402834D139E0602828D0702806D0B0F5D6
:1021F000805F2CD0B0F5005F29D10AE0CB68D1E92F
:102200000121206802F04FF92068816841F07701D0
:1022100009E0CB68D1E90121206802F044F9206887
:10222000816841F48041816011E0CA684968206892
:1022300002F0EEF95021206807E016E0CA6849680C
:10224000206802F0F6F96021206802F036F984F87F
:102250003D50002084F83C0070BDCA684968206881
:1022600002F0D6F940212068EFE7226801461046C7
:10227000EBE7000000B585B00021009101910291CB
:10228000039100680B49884212D10B48816941F0E3
:10229000040181618069694600F0040004904FF4F4
:1022A000807000900220019003900448FFF742F8EC
:1022B00005B000BD002C01400010024000080140A4
:1022C00070B5044690F83C000D4601280AD0012064
:1022D00084F83C0042B1042A18D0082A2AD00C2ADB
:1022E0004DD139E0022070BD206802F0EFF820687F
:1022F000816941F0080181612068816921F0040150
:102300008161206881692A69114311E0206802F027
:1023100005F92068816941F4006181612068816963
:1023200021F480618161206881692A6941EA022182
:10233000816124E0206802F01DF92068C16941F044
:102340000801C1612068C16921F00401C1612068F0
:10235000C1692A69114311E0206802F037F9206849
:10236000C16941F40061C1612068C16921F48061E3
:10237000C1612068C1692A6941EA0221C161002066
:1023800084F83C0070BD10B5040003D094F83D0003
:1023900010B107E0012010BD002084F83C00204669
:1023A00000F01EF8022084F83D00211D206802F094
:1023B00037F8012084F8460084F83E0084F83F0096
:1023C00084F8400084F8410084F8420084F8430017
:1023D00084F8440084F8450084F83D00002010BDD6
:1023E0007047000010B50446022249B104290ED0FE
:1023F000082913D094F84100012816D0012010BDFF
:1024000094F83E000128F9D184F83E200FE094F8BA
:102410003F000128F2D184F83F2008E094F8400002
:102420000128EBD184F8402001E084F8412001220A
:10243000206802F02BF80F492068884203D1426CD3
:1024400042F4004242642068884208D0B0F1804FD4
:1024500005D00949884202D00849884204D18168E0
:1024600001F00701062903D0016841F00101016074
:10247000002010BD002C0140000400400008004076
:102480007047000070B5026804461068D16853694F
:1024900010F00F0F53D003F0010501F490762E4396
:1024A0005FD0C20705D0CA0503D5E26B42F0010236
:1024B000E263420705D5DA0703D0E26B42F002027D
:1024C000E263820705D5DA0703D0E26B42F004022B
:1024D000E263020707D501F020022A4303D0E26B32
:1024E00042F00802E263E26B002A34D0800604D591
:1024F000880602D5204602F05FF920684069E16B4A
:10250000C0F3801001F008010143204624D002F0FE
:1025100045F92068416949061AD5416921F0400111
:102520004161606BA0B12D494163606BFEF78EFE87
:10253000002810D0606B416BBDE8704008478306EF
:102540000FD58B060DD52046BDE8704002F034B99A
:102550002046FFF795FF70BDFFF792FF0020E06374
:1025600070BD03062BD50B0629D594F83900212818
:10257000F6D1A068B0F5805F01D12069B0B1206AC2
:10258000411C2162216800784860E08C401E0004F4
:10259000000CE084E4D12068C16821F08001C160B2
:1025A0002068C16841F04001C16070BD206A0088A8
:1025B000C0F308005060206A801C2062E5E74006F6
:1025C000F3D54806F1D5D168204621F04001D1600D
:1025D000202184F8391000F01CF970BD8D470008E7
:1025E00070B5040004D094F83900002510B106E05D
:1025F000012070BD84F83850204600F023F82420D4
:1026000084F839002068C16821F40051C160204677
:1026100002F018F92068016921F4904101612068F5
:10262000416921F02A0141612068C16841F40051EB
:10263000C160E563202084F8390084F83A00002066
:1026400070BD000030B585B0002400940194029460
:1026500003940068184988422CD11848816941F4D4
:1026600080418161816901F480410491816941F077
:10267000040181618069124D00F0040004904FF460
:1026800000700090022001900320039069462846C4
:10269000FEF750FE2815CDE900046946284602944D
:1026A000FEF748FE002201212520FEF7B1FF25207C
:1026B000FEF7A0FF05B030BD003801400010024019
:1026C0000008014090F83A30202B22D1F9B1F2B144
:1026D00090F83830012B1CD081628285C2850021A0
:1026E000C163222280F83A2080F838100168CA6855
:1026F00042F48072CA6001684A6942F001024A618C
:102700000068C16841F02001C160002070470120CD
:1027100070470220704700000F4910B5884219D158
:102720000E4801460278B1F804110D2A0DD0431C61
:10273000CA54B0F80411491CA0F80411BDE81040B7
:10274000012206490448FFF7BDBFA0F8021102F0BC
:102750001BF9F3E710BD0000C4040020EC020020C8
:102760002DE9F843044690F839001F4616460D46F9
:1027700020284CD1C5B1BEB194F83800012846D00C
:10278000012084F838004FF00008C4F83C80212074
:1027900084F83900FEF7D0FEA6848146E684A0685E
:1027A000B0F5805F03D004E00120BDE8F883206924
:1027B00028B12E465FF0000584F838800EE0002630
:1027C000FAE78021204602F099F8A0B9AEB116F8D8
:1027D000010B21684860E08C401EE084E08C4B4691
:1027E0004FF0000200970028EBD14FF04001204647
:1027F00002F084F830B10320D7E735F8020BC0F3BC
:102800000800E6E7202084F839000020CDE7022008
:10281000CBE77047022803D1002901D0014841606D
:1028200070470000340100200EB501238DF8080028
:1028300000208DF804006420009001AA02A903483A
:10284000FFF706FB9DF804000EBD000024040020E5
:10285000044B20B1012210211846FEF768BE002269
:10286000F9E7000000080140044B20B101220121DA
:102870001846FEF75CBE0022F9E70000000C01409C
:10288000044B20B1012204211846FEF750BE00225D
:10289000F9E70000000C0140FEE700003EB500240F
:1028A00011480094019402940E498460016001254E
:1028B0000573047505614FF460214460C161FEF742
:1028C000F9FA08B1FEF744F90320CDE9000569469D
:1028D00002940548FEF76AFA002801D0FEF738F99D
:1028E0003EBD000000240140F40300202DE9F04328
:1028F00085B00024384800940194029403948169BF
:1029000041F010018161816901F010010491816938
:1029100041F020018161816901F020010491816908
:1029200041F004018161816901F004010491816930
:1029300041F0080181618069284F00F008004FF4E0
:1029400000550490002229463846FEF7F0FDDFF8D6
:102950009090002210214846FEF7E9FDDFF88480C0
:10296000002215214046FEF7E2FD0126CDE9005682
:10297000022569463846CDE90245FEF7DBFC1A48D8
:102980000095CDE9010469464846FEF7D3FC1020C6
:10299000CDE9000669464846CDE90245FEF7CAFC86
:1029A0001520CDE9000669464046CDE90245FEF70F
:1029B000C1FCA803CDE90004694648460294FEF72D
:1029C000B9FC002211460720FEF722FE0720FEF781
:1029D00011FE05B0BDE8F083001002400010014078
:1029E00000080140000C0140000011100F4810B514
:1029F0000D4901604FF48271416000218160C16026
:102A00004FF400720161C0E90512C16101624162C7
:102A100081620A21C162FFF789F9002803D0BDE86D
:102A20001040FEF795B810BD00300140240400208E
:102A300010B596B000240F9410941194129413942E
:102A40001C2108A81494FDF796FB20216846FDF789
:102A500092FB2948274901604721C0E9011440F24F
:102A6000F311C0E903148021C0E90541FFF754FBCD
:102A700008B1FEF76DF84FF480500F900FA91E4873
:102A8000FFF78CFB08B1FEF763F81B48FFF77BFCF0
:102A900008B1FEF75DF8139413A917481494FFF7D3
:102AA00007FB08B1FEF754F86020CDE908040A944A
:102AB0000B940C940D94002208A90F480E94FFF774
:102AC000FFFB08B1FEF744F800944FF40050CDE945
:102AD0000440029401940394694607480794FFF761
:102AE000BCFA08B1FEF734F80348FFF7C3FB16B091
:102AF00010BD0000002C01407C0400200C4810B5E3
:102B00000A4901604FF4E1314160002181600C22EB
:102B1000C160C0E904128161C161FFF761FD002855
:102B200003D0BDE81040FEF713B810BD00380140D7
:102B3000C4040020FEE7704710B5044606A001F06B
:102B40002FFF0848416B14B14FF4FA6000E00020F9
:102B5000BDE810400847000063616420646F6E6543
:102B60000D0A00006059000830B4044814461A46A3
:102B70000180214630BC02A001F012BF30010020CC
:102B8000525353493D25642C534E523D25640D0A42
:102B90000000000010B504A001F002FF0548416BE1
:102BA000BDE81040002008477278206572726F728D
:102BB0000D0A00006059000810B504A001F0F0FEF5
:102BC0000648416BBDE81040002008477278207429
:102BD000696D656F75740D0A00000000605900088A
:102BE00010B507A001F0DCFE0222C821104602F059
:102BF000F7FD0648416BBDE8104000200847000083
:102C0000747820646F6E650D0A000000605900083A
:102C100010B504A001F0C4FE0648416BBDE81040A9
:102C20000020084774782074696D656F75740D0A0B
:102C300000000000605900087047000070B50920CE
:102C400000F069FD0546062000F065FD040407203C
:102C500000F061FD44EA0024082000F05CFD204300
:102C6000FDF757FC0022184BFDF74AFBFDF77DFCF2
:102C700004460021092001F077FB3B2000F04BFDCA
:102C800040F040013B2001F06FFB3B2000F043FD92
:102C90008006FAD40D4800F017FE3B2000F03BFD03
:102CA00040F040013B2001F05FFB3B2000F033FD92
:102CB0008006FAD42946092001F056FB2046BDE8DB
:102CC000704000F001BE000080844E4000A1BC3383
:102CD00038B50B46009204460022802100F008F827
:102CE000002804D0606D40F020006065032038BDEE
:102CF0002DE9F8431E46914688460446089DFEF796
:102D00001BFC401B351AFEF717FC074625480068D8
:102D1000C0F3CB30684338E0701C37D0FEF70CFCB2
:102D2000C01BA84203D215B1009860B32CE0206804
:102D3000416821F0E00141606068B0F5827F0BD10D
:102D4000A068B0F5004F02D0B0F5806F04D12068C4
:102D5000016821F040010160A06AB0F5005F09D16F
:102D60002068016821F4005101602068016841F485
:102D700000510160012084F85100002084F85000C7
:102D80000320BDE8F8830025401E0090206881687C
:102D900038EA010004D000214945BDD10020F0E708
:102DA0000121F9E74801002070470000F0B58BB021
:102DB00000F056F822482149274D016021498160E1
:102DC000214941602149C160214901612149816155
:102DD00029688847E96821488847A9680120884709
:102DE000002442F2283005940694CDE907400126DC
:102DF00008270720CDE901670090CDE903460223AB
:102E0000D5F81CC0224614213046E047CDE90846DB
:102E1000CDE90446069440F2FF300794CDE9020460
:102E2000CDE9004701230722AC6902211846A047DB
:102E3000696B0BB00020BDE8F0400847E12B0008AB
:102E4000D0020020692B0008112C0008B92B0008C3
:102E5000952B0008392B000860590008D858F6193E
:102E600000F054B9012070470349884201D2802004
:102E7000704700207047000040DD4A1F0148007D78
:102E800070470000580200202DE9F34F02007149FD
:102E900081B04FF000000BD0012A7DD10024486D95
:102EA0002546072853D0082854D0092857D154E084
:102EB0008A46C86AFDF72DFB06460F460298FDF7C5
:102EC00028FB80468946302000F025FC30F0F900D0
:102ED0004FF0000401D0604D00E00025272000F0F5
:102EE0001AFC20F0F800BAF83010401C0844FDF736
:102EF00010FB9AF83220012A4FF0000222D0564BE4
:102F0000FDF757F922462B46FDF753F942464B464B
:102F1000FDF74FF99AF83420012A4FF0000213D040
:102F20005FF00003FDF745F90322FDF7CAFA3246C8
:102F30003B46FDF757FA0022484BFDF7E1F902F056
:102F4000EDFB7FE00023DBE74FF08043EAE700245E
:102F5000434D04E00024434D01E0434D00243D4E29
:102F6000012056F8587FB840FDF7C2FA02460B46DA
:102F700020462946FDF736FA02460B460020364920
:102F8000FDF730FA04460D46F088FDF7C2FA00223C
:102F9000364BFDF70EF900E059E022462B46FDF7CF
:102FA000AFF9834600917079001DFDF7B2FA8046B3
:102FB0003079894600B10220381A8000FDF7A9FA5D
:102FC000064602988A46C10022487A4201EB8201F5
:102FD00090F8622090F8600001EB021100B114201B
:102FE000081A1C30FDF795FA32465346FDF7FAF9F8
:102FF00002F010FA42464B46FDF782F900220746DE
:103000000E461346FDF7E2FA02D23846314601E099
:10301000002001460022164BFDF7CBF822462B4636
:10302000FDF76EF902460B4658460099FDF7C1F8C8
:1030300000220A4BFDF764F90E4A0F4BFDF7B9F871
:1030400002F066FA03B0BDE8F04FFDF78EBABDE8B6
:10305000FE8F0000580200200000F03F00408F402B
:103060008084FE4080840E4180841E410000114017
:10307000000020402B8716D9CEF7EF3F70470000A5
:1030800070B51D491D4C0122086040F6B836256810
:103090001B4B31461046A84701222568184B314684
:1030A0000220A84724680122154B31460320A0477F
:1030B00000F0AAFCFFF7C2FD002000F079FC0E48EA
:1030C0000C3000F02BF80F4D002400BF04EB440639
:1030D000A85D00F033FC70198178407801F044F964
:1030E000641CE4B2102CF1D3002000F027FC064948
:1030F0000020087570BD0000040100204859000838
:10310000CD360008685800085802002010B5FFF7B7
:10311000B5FFBDE810400120FFF79ABB016802200F
:10312000FFF778BB2DE9F0411E4617460C46804656
:10313000012500F003FC204600F0C6FB052000F04E
:1031400037FC012002F0D4F902F0E6FA044606E06A
:10315000404600F007FBB84201DD002504E002F024
:10316000DBFA001BB042F3D300F0F8FE2846BDE8BE
:10317000F08100002DE9F84300258DF800509D4CAA
:103180009D4F9E4E207D012814D0022872D0032826
:103190005AD1122000F0BFFAC0076CD005211220CE
:1031A00001F0E2F8306800284ED0816900294BD048
:1031B00001201BE1607DB8B1012845D140211220DA
:1031C00001F0D2F8122000F0A6FA8DF800009DF868
:1031D000000080067ED52021122001F0C5F894F869
:1031E0006600002877D088E094F83400012832D1B6
:1031F0003F2000F090FA8DF800009DF80000800755
:1032000029D40B213E2001F0AFF810213F2001F01E
:10321000ABF8F9680220884794F83600B0B10D2069
:1032200000F079FA40F040010D2001F09DF8B968F6
:1032300003208847306810B1006900B1804704F866
:10324000405F6570A5816581BDE8F883F96803205A
:1032500088472575EEE7B4F84A10DFF8A48111B964
:10326000B4F84C0040B1B4F84C00091AC9B240445B
:103270004A340FE09AE0AEE094F8320060B33220B6
:1032800000F049FAA4F84A0014F84A1F6088091AA5
:10329000C9B2404400F061FA34F8020B24F84C093A
:1032A000F9680220884794F8360010B30D2000F02A
:1032B00032FA40F040010D2001F056F8B9680320C1
:1032C000884730680028BAD08668002EB7D094F9B5
:1032D000422002E019E00FE005E0B4F84A100023B4
:1032E0004748B047ABE7434801214A3000F035FA80
:1032F000CAE72575F968E2E72575F968022088476D
:1033000030680028A0D000695FE0192000F003FABF
:1033100040B2A04684F87000010605D5C043401CA9
:10332000C0F38500444201E0C0F385041A2000F098
:10333000F2F9344AD8F81830002C06DA00EB2010E5
:103340009342204405D99D3804E0934200EB2010BD
:10335000F9D8A438A8F87200132000F0DCF988F836
:103360007400102008F1660400F0D5F901460D2024
:1033700000F0FAFFA17B224800F0EFF914F866098B
:1033800000B92575F9680220884730680028B9D04F
:103390008568002DB6D014F9703FAC46B4F9022010
:1033A000217901B01648BDE8F0436047F968012073
:1033B0008847607D012803D10821122000F0D4FF46
:1033C0002575306800289DD0006800289AD001B08B
:1033D000BDE8F04300470421122000F0C5FF30682B
:1033E00000288FD0816900298CD0002001B0BDE871
:1033F000F043084758020020485900080401002003
:103400005801002040DD4A1F014901200870704723
:103410000801002070B5324C2046237D427DB0F873
:103420004A10B0F84C00A4F58075012B15D0022B82
:1034300012D1002A10D10A1A234694F84F10B3F87B
:103440004C30284618448A4243DD00F0ACFF34F883
:103450004C0FE1780844208070BDAAB1012AFBD14D
:103460002048C168022088478021122000F07CFF9C
:10347000002020751C4800680028EDD0C068002896
:10348000EAD0BDE87040004741B938B994F832003D
:10349000A0B1322000F03FF9A4F84A00B4F84A1075
:1034A000B4F84C000A1A94F84E108A420CDD2844F5
:1034B00000F053F934F84C0FA178CBE7084801210C
:1034C0004A3000F04AF9E9E7D1B2284400F045F962
:1034D00002E0D1B200F067FF34F84A0F608070BD9F
:1034E0005802002048590008040100200149012029
:1034F000487070470801002070B52C4C2C4D2046B8
:10350000227D417D90F86300012A03D0022A00D178
:1035100009B970BDB9B10129FBD10128F9D1022146
:10352000122000F021FF28680028F2D0406900280E
:10353000EFD01C2000F0EFF8296800F03F00496947
:10354000BDE8704008476089012560B394F84000E9
:103550000128DED194F841000028DAD11548C1686D
:103560000320884704F8415F112000F0D4F8400898
:10357000404260701C2000F0CEF805461B2000F091
:10358000CAF845EA0020FCF7C4FF00220A4BFCF70A
:10359000B7FEFCF7CBFFC4F803000C2000F0BBF82B
:1035A0004009E07170BD84F84050D3E75802002014
:1035B000040100204859000880844E400149012040
:1035C000887070470801002001490120C8707047C9
:1035D000080100200548417D002906D190F84010DF
:1035E000002902D1012180F84010704758020020C4
:1035F0002DE9F047314CDFF8C8904FF00008207DEE
:1036000001282CD0022857D100F0FEF9FFF716FB55
:10361000002000F0CDF92B4E002500BF05EB45073B
:10362000F05D00F08BF9B8198178407800F09CFECD
:103630006D1CEDB2102DF1D3002000F07FF994F84D
:103640006C0000F0CDF984F81480D9F8000000284F
:1036500032D0406800282FD0BDE8F0470047607D99
:10366000D0B984F8408084F84180A4F84C80A4F854
:103670004A8045460B213E20363400F075FE10216D
:103680003F2000F071FE14F836090F4E012809D0D2
:103690002575F16803208847D9F8000000280BD071
:1036A000C068D7E70D2000F036F840F040010D204B
:1036B00000F05AFEB168EDE7BDE8F087580200203F
:1036C00004010020685800084859000801490120F9
:1036D000887170470801002070B50025012000F0B6
:1036E0002DF9FF21112000F03FFE052000F060F9C8
:1036F0000024012001F0FCFE2C2000F00CF800F06A
:103700000100A040641C0543E4B2202CF1D300F07A
:1037100025FC284670BD08B50122694600F003F873
:103720009DF8000008BD70B5044615460E46002001
:1037300000F03EFE04F07F0000F03CFE002405E0B7
:10374000002000F037FE3055641CE4B2AC42F7D3E1
:10375000BDE87040012000F02BBE0A460146002063
:10376000FFF7E1BF10B520B1012808D04FF0FF30BE
:1037700010BD1120FFF7CFFF4008404210BD0748A1
:103780000749806988424FF01B0003D9FFF7C3FF48
:103790009D3810BDFFF7BFFFA43810BD58020020B0
:1037A00040DD4A1F73B53A4C05460020617D11B1DA
:1037B000012969D12CE00020A4F84C009DF80410E8
:1037C000A4F84A1094F8320050B1322000F0CCFD39
:1037D0009DF80420501E3F2807D884F84F200BE0A6
:1037E000012101A800F0DFFDF2E72946294801F098
:1037F00089FF202084F84F0094F84F102846383471
:1038000000F0D1FDA08AE17D0844A08220683BE061
:1038100094F8650001284FF0330021D0FFF77BFFBB
:1038200000F0BE013320491C00F09EFD1D213B200D
:1038300000F09AFD9DF8041084F87410222000F026
:1038400093FD00210E2000F08FFD00210D2000F0DF
:103850008BFD0120FFF75FFF30F0F80009D00DE08D
:10386000FFF759FF00F0BE01332000F07DFD192164
:10387000DDE700F087FB012001F03AFE9DF804101F
:10388000284600F090FDA06E00F090FB7CBD00008B
:103890005802002058010020032803D05FF00100E7
:1038A000FEF7EEBF0020FBE706490A78824207D008
:1038B000087018B15FF00000FEF7E2BF0120FBE7DF
:1038C00070470000340100200D4910B58861FCF7F5
:1038D00020FE00220B4BFCF785FDFCF746FE04465C
:1038E000C0F30741062000F03FFDC4F30721072085
:1038F00000F03AFDE1B2BDE81040082000F034BD10
:103900005802002080844E4070B50D46044600F0F9
:1039100015F824B1012C0DD12946232006E00648D4
:1039200090F83200002805D129463220BDE87040C9
:1039300000F01ABD70BD00005802002010B504460A
:103940000120FFF7E8FE1949000601D5012000E03B
:1039500000204875C0B2A04226D04C75012C0FD073
:1039600000F0FCFA0120FFF7D6FE00F07F010120F5
:1039700000F0FAFC0021402000F0F6FC30210EE0BF
:1039800000F0ECFA0120FFF7C6FE40F080010120B4
:1039900000F0EAFC0021402000F0E6FC0021BDE838
:1039A0001040412000F0E0BC10BD00005802002093
:1039B00010B5040010D00020FFF776FF2046FFF777
:1039C0006BFF0120FFF7A7FE00F0F8012143BDE8DF
:1039D0001040012000F0C8BC0120FFF765FFF0E7B0
:1039E00010B504460120FFF7A9FF064880F86C4097
:1039F0000CB1342100E01221BDE81040392000F064
:103A0000B3BC00005802002010B50020FEF72CFFC8
:103A1000012001F06DFD0120FEF726FFBDE81040FA
:103A2000062001F065BD000070B504460920FFF7CF
:103A300072FE06464D20FFF76EFE0546214880695E
:103A4000FFF712FA06F07F01084340F0700001060C
:103A50002BD5112C02DD45F0070502E005F0F80535
:103A60002D1DE943490703D0022C0CDA02240DE096
:103A7000052C01DA052402E0142C00DD142400F0EA
:103A8000F001641F05E0112C00DD112400F0F001AD
:103A9000A41E04F00F000143092000F065FC294634
:103AA000BDE870404D2000F05FBC4FF0FF318C420C
:103AB00001DA0C4602E00E2C00DD0E2400F0F001CD
:103AC000641CE6E7580200202DE9F041774C0746D8
:103AD0000026607D10B1012824D124E014F8366F4F
:103AE0004020FFF718FE00F0030040F00C014020DA
:103AF00000F03AFC4120FFF70EFE40F0C1014120EA
:103B000000F032FC3520FFF706FE00F03F00207683
:103B10001E210D2000F028FC0020A072E072E0823F
:103B2000A082363C86E094F8650001284FF033000F
:103B300025D0FFF7F0FD00F0BE013320491C00F056
:103B400013FC1D213B2000F00FFC606D09284FF095
:103B500031007DD2FFF7DFFD00F07F01312000F062
:103B600003FC0021302000F0FFFB606D092847D2E4
:103B7000DFE800F00E161E262E3641414100FFF709
:103B8000CAFD40F04101332000F0EEFB1921D9E7D6
:103B900048212F2000F0E8FB41F68261A06926E071
:103BA00044212F2000F0E0FB42F6B401A0691EE0A2
:103BB00044212F2000F0D8FB43F60451A06916E001
:103BC00044212F2000F0D0FB45F25E11A0690EE0E9
:103BD00044212F2000F0C8FB47F61221A06906E01F
:103BE00044212F2000F0C0FBA0694AF2C6210844FE
:103BF000FFF76AFE04E040215FF02F0000F0B4FB05
:103C000094F8630094F86660012830D01F211120D9
:103C100000F0AAFB4020FFF77EFD00F03F014020AE
:103C200000F0A2FB00210F2000F09EFB00210D20E0
:103C300000F09AFB4FF480711D48FCF79CFA0120BC
:103C40001C4D207547B16A6839460220904700E054
:103C500007E0A96802208847607D90B1FEB1052089
:103C60001EE0FFF758FD40F080013120C6E71D211E
:103C7000112000F079FB4020FFF74DFD00F03301EB
:103C8000CDE70520FFF794FE002E0DD16A68E16BA9
:103C900003209047A968BDE8F041032008470620AB
:103CA000BDE8F041FFF784BEBDE8F0815802002076
:103CB00058010020485900082DE9FC5F9B46144636
:103CC0008A468046DDF844900D9F0F9EFFF736FE32
:103CD000380A9D4D0090B8F1000F06D0B8F1010FE1
:103CE00074D1BAF1030F73D9FEE745F824AFAC6085
:103CF0000C986860AE731098E87385F8109014986B
:103D000068741598A874AF812046FCF702FC04463D
:103D10000B460191224600208C49FCF763FB0322ED
:103D2000FCF7CFFB80468B460E98FCF7F2FB424631
:103D30005B46FCF7E5FA0022854BFCF7E1FAFCF75D
:103D400014FCA861224600208249019BFCF74AFB33
:103D5000FCF70BFC84B2210A022000F005FBE1B263
:103D6000032000F001FB5046FCF7A6FF014612209D
:103D700000F0FAFA0C98FCF79FFF0146132000F0C0
:103D8000F3FA2520009900F0EFFAF9B2262000F0AE
:103D9000EBFA0EB1109900E0FF21322000F0E4FAB6
:103DA0003020FFF7B8FC00F06F000EB1002100E0FA
:103DB0008021084340EA0911302000F0D5FA312073
:103DC000FFF7A9FC40F040013120ACE0B9E0FFE78B
:103DD00002D14FF0060801E00AF1070828460C2C32
:103DE000E0E9158480F809B04781067310994173A2
:103DF00080F80E901299C17313990174149941744B
:103E0000159985F8661001D90C2402E0062C00D221
:103E10000624B8F1070F02D0B8F1060F03D10B2C1E
:103E20004CD00C2C4AD0B8F1080F01D10C2C45D045
:103E30005FF0000185F85C101D20FFF76CFC4FEA75
:103E4000081141EA4B003043C1B21D2000F08CFA4A
:103E50001E20FFF760FC00F0080040EA041141EA70
:103E600089000E99032202EA11210843C1B21E20E3
:103E700000F07AFA2620FFF74EFC00F0F70195F8E3
:103E80005C0041EAC000C1B2262000F06DFA0E9835
:103E9000C1B21F2000F068FA2020009900F064FAF7
:103EA000F9B2212000F060FA1EB12220109900F032
:103EB0005BFA95F86300012802D00EE00121B9E712
:103EC0004420FFF728FC40F08001442000F04CFA29
:103ED00095F86410242000F047FAB8F1090F02D0D9
:103EE000032136200FE01C49A86988424FF00201E7
:103EF0004FF0360003D900F037FA642102E000F0F9
:103F000033FA7F213A2000F02FFA062C4FF03100CF
:103F10000DD0FFF700FC00F0F8013120C91C00F0C3
:103F200023FA0A213720BDE8FC5F00F01DBAFFF735
:103F3000F2FB00F0F8013120491D00F015FA0C21C8
:103F4000F0E7BDE8FC9F0000580200200000F03FB1
:103F500000408F4080847E4140DD4A1F10B5074CF1
:103F60000220E1688847E168012088470020FFF7C8
:103F70001FFD03490020087510BD000048590008C6
:103F80005802002010B5074C0220E1688847E1681C
:103F9000012088470120FFF70BFD03490020087529
:103FA00010BD0000485900085802002070B5264D89
:103FB000014601206A689047244C607D10B10128B9
:103FC0002DD119E04020FFF7A6FB00F0030040F0E0
:103FD0001001402000F0C8F94120FFF79CFB00F0E1
:103FE0003E01412000F0C0F93520FFF794FB00F0BE
:103FF0003F0084F84E0012E094F86300012818D0C6
:10400000F721112000F0B0F94020FFF784FB00F009
:104010003F0000BF40F04001402000F0A5F9022021
:104020002075A96801208847BDE870400320FFF78C
:10403000BFBCF521112000F097F94020FFF76BFB82
:1040400000F03300E6E7000048590008580200205D
:104050002DE9FF4F81B01D46DDE90E4BDDE910680B
:104060008946DDF854A0129F0198FFF767FC484687
:10407000FFF7DAFC7848320A0199009231B1012940
:1040800075D180F85090032D55D9FEE780F81C902B
:104090000399C462C0E90815068680F8328080F86A
:1040A000347080F835A0169981630398FCF731FAD3
:1040B00000226A4BFCF796F9FCF757FA85B2290AF9
:1040C000042000F051F9E9B2052000F04DF9204636
:1040D000FCF71FFA02460B4600206149FCF782F903
:1040E000FCF743FA84B2210A022000F03DF9E1B264
:1040F000032000F039F92520009900F035F9F1B2DC
:10410000262000F031F93020FFF705FB00F06F00AA
:10411000B8F1000F01D0002100E08021084340EAFF
:104120000711302000F020F93120FFF7F4FA40F0B9
:10413000400131207DE001D1062500E0ED1DC0E900
:10414000155480F85DB0A0F85E6080F86080139927
:1041500080F86310149A80F8642080F8627080F808
:1041600065A0169A82660C2C02D90C2403E06FE03D
:10417000062C00D20624072D01D0062D03D10B2CCE
:104180000CD00C2C0AD0082D01D10C2C06D000220A
:1041900080F85C208146012902D00EE00122F7E779
:1041A0004420FFF7B8FA40F08001442000F0DCF82A
:1041B00099F86410242000F0D7F81D20FFF7ABFA1F
:1041C000290141EA4B0040EA0800C1B21D2000F07D
:1041D000CBF81E20FFF79FFA00F00B0040EA041016
:1041E00040EA8700C1B21E2000F0BEF82620FFF78B
:1041F00092FA00F0F70199F85C0041EAC000C1B200
:10420000262000F0B1F82020009900F0ADF8F1B2BE
:10421000212000F0A9F8062C4FF031000ED0FFF756
:104220007AFA00F0F8013120C91C00F09DF80A214B
:10423000372005B0BDE8F04F00F096B8FFF76BFAF5
:1042400000F0F8013120491D00F08EF80C21EFE755
:1042500005B0BDE8F08F00005802002080844E4079
:1042600080847E4130B50D464FF47A7189B002FBEF
:1042700001F4FFF729FB002005900690CDE9070423
:104280000521CDE90101039004904FF496500023DD
:1042900000901A4629461846FFF7DAFE3120FFF74C
:1042A0003AFA00F0BF01312000F05EF8F021402022
:1042B00000F05AF8A021412000F056F8084D2146A0
:1042C00001206A689047074902200875A968012003
:1042D000884709B00320BDE83040FFF769BB000004
:1042E000485900085802002010B50E4C607D002887
:1042F00016D0012814D1FA21112000F035F8402001
:10430000FFF709FA00F03F0040F08001402000F084
:104310002BF803202075BDE810400720FFF748BBAD
:1043200010BD00005802002070B50E4C207800250A
:1043300010B12570FEF71EFF607810B16570FFF7B1
:1043400069F8A07810B1A570FFF7D6F8E07800B151
:10435000E570A079002804D0A571BDE87040FFF792
:1043600047B970BD0801002013B5012201A900F072
:1043700001F81CBD70B5044615460E46002000F03D
:1043800017F844F0800000F015F8002404E0305DD8
:1043900000F010F8641CE4B2AC42F8D3BDE8704001
:1043A000012000F005B80A4601460020FFF7E2BFF1
:1043B000FEF74EBAFEF738BAFDF7C4B830B593B081
:1043C00028216846FBF7D7FE14210AA8FBF7D3FE85
:1043D000002401210F9410940804CDE900101194D9
:1043E0001294029402250491CDE907504FF4E01095
:1043F00009906846FDF70AFB0F20CDE90A0568021F
:10440000CDE90C400E9002210AA8FDF70DFA6803D1
:1044100011900F950FA8FDF791F913B030BD7047BB
:10442000F0B50268164B174C174D4FF08047984275
:1044300005D0B84203D0A04201D0A84203D122F057
:1044400070064A683243984205D0B84203D0A04271
:1044500001D0A84203D122F44074CA6822434C69B7
:1044600022F08002224302608A68C2620A68826285
:10447000984201D10969016301214161F0BD000049
:10448000002C0140000400400008004010B501F07D
:104490001F030121046A99408C430462016A9A4017
:1044A0001143016210BD10B5846842EA032224F46E
:1044B0007F440A432243826010BD826822F070026A
:1044C0000A4342F0070181607047000030B5026A7C
:1044D00022F001020262026A4368846924F07305D3
:1044E0000C682C4322F002058A682A430A4DA84230
:1044F0000BD122F00805CA6823F440732A434D69A2
:1045000022F004021D438B692B4343608461496898
:104510004163026230BD0000002C014030B5026AE8
:1045200022F010020262026A436884690D6824F472
:10453000E64444EA05248D6822F0200242EA05128E
:104540000B4DA8420ED1CD6822F0800242EA05123E
:104550004D6923F4406343EA85038D6922F04002EC
:1045600043EA85034360846149688163026230BD28
:10457000002C014030B5026A22F480720262036AA4
:104580004268C46923F4007324F073050C682C435B
:104590008D6843EA05230C4DA8420ED1CD6823F463
:1045A000006343EA05234D6922F4405242EA0512B2
:1045B0008D6923F4806342EA05124260C461496850
:1045C000C163036230BD0000002C014030B5026AB7
:1045D00022F480520262046A4268C3690D6823F4BF
:1045E000E64343EA05238D6824F4005444EA053485
:1045F000064DA84204D14D6922F4804242EA851258
:104600004260C36149680164046230BD002C01400E
:1046100010B5036A046A24F001040462846924F07A
:10462000F00444EA021423F00A020A43846102629D
:1046300010BD10B5036A23F0100303628369046A96
:1046400023F4704343EA023224F0A00343EA011149
:104650008261016210BD0000054A526803E01378D0
:10466000834200D151605269002AF8D1704700009E
:1046700028010020064900224968496904E00B78B6
:10468000834200D1CA6049690029F8D1704700000F
:104690002801002070B50D48002645686C690FE0C0
:1046A000607A60B1E068401CE0606168884206D3CF
:1046B000E660206900B18047207A00B166726469C3
:1046C000002C01D0002DEBD170BD0000280100208E
:1046D0002DE9F047194D884607462978012099466B
:1046E0001646002431B92870182000F0BBF9686024
:1046F00000B14461182000F0B5F900281BD0077004
:10470000C0F8048006724472C0E9034944616B68D2
:1047100059690A4604E01578FEB2B5420BD05269D9
:10472000002AF8D111B9586104E011464A69002AFB
:10473000FBD148614461BDE8F087000028010020FA
:10474000FFF798BF10B50446FFF794FF064840688E
:104750004169012004E00A78A24200D14872496907
:104760000029F8D110BD00002801002006490022D0
:104770004968496904E00B78834200D14A7249696B
:104780000029F8D1704700002801002010B5406AC8
:104790000021C185C184FDF773FE10BD0168CA68A0
:1047A00022F49072CA6001684A6922F001024A61EB
:1047B000202180F83A10704710B590F83A1022295D
:1047C00001D0022010BD82684FF480539A4201D17B
:1047D000016921B1816A9A421BD04AB10AE002689C
:1047E000816A5268C2F308020A80816A891C08E063
:1047F000026972B10268526802F07F020A70816A2F
:10480000491C8162C18D491E0904090CC18503D070
:1048100016E002685268F1E70168CA6822F02002D7
:10482000CA600168CA6822F48072CA6001684A6975
:1048300022F001024A61202180F83A10FDF76CFF56
:10484000002010BD70B5044600680169E26821F4DB
:104850004051114301612169A0680843616908431F
:104860002168CA6841F20C639A430243CA60206817
:104870004169A26921F44071114341611E492068D8
:10488000884202D1FDF77CF801E0FDF769F800EB02
:10489000C00101EB0012606864218000B2FBF0F3FC
:1048A000B3FBF1F36FF018067343B2FBF0F5B2FB04
:1048B000F0F605EB8305322303EB0515B5FBF1F5A7
:1048C000B6FBF1F605F0F00505EB0615B2FBF0F6C8
:1048D000B2FBF0F0B0FBF1F06FF01802504306EBC2
:1048E000800003EB0010B0FBF1F0216800F00F0036
:1048F0002844886070BD0000003801402DE9F04177
:10490000984617460E460446069D1DE0681C1BD0BF
:104910002DB1FCF711FEA0EB0800A84214D92068C5
:10492000C16821F4D071C1602068416921F00101A2
:104930004161202084F8390084F83A00002084F88E
:1049400038000320BDE8F0812068006836EA0000E6
:1049500004D00020B842D9D00020F3E70120F9E7C5
:104960000148FDF78FBD0000C4040020024800216B
:1049700080F8061141707047EC020020014890F861
:1049800006017047EC02002003480021A0F8041142
:10499000012180F806117047EC020020FEE70000BC
:1049A0000FB4054B10B503A9044A029800F056F95C
:1049B00010BC5DF814FB0000ED5500084C01002010
:1049C0000FB4084B10B504A902AA039800F046F9E9
:1049D000044602A9002000F0D8FC204610BC5DF877
:1049E00014FB00008B5300080907090E002804DBA4
:1049F00000F1E02080F80014704700F00F0000F193
:104A0000E02080F8141D704730B528B1144C031F06
:104A1000002021680A4605E0084630BD9A4203D8C6
:104A200010465268002AF9D1002800D041680BD006
:104A30000468A3EB0005A54204D11B681C4403468F
:104A4000046002E0436000E023603AB11C68D51ABC
:104A5000A54203D115682C441C6052685A6030BDD1
:104A6000500100202DE9F04782460F4C10480D4EB2
:104A70000E4F001B4FF0000820F007054FF0010912
:104A800000221146504600F0BDFD002802D13068DA
:104A900010B10020BDE8F0873C60C4E90058C6F8BA
:104AA0000090EDE7540100200C050020500100208B
:104AB0000807002002E008C8121F08C1002AFAD126
:104AC00070477047002001E001C1121F002AFBD18E
:104AD000704700002DE9FF5FDDE90220010DDDF8E0
:104AE00038B0024318D044F61050A1F2FF314143D0
:104AF0000D140F98012820D0A5EB0B00401C5FEA95
:104B0000000A4FF00004474EDFF81C91A0465046C3
:104B100016D5CAF1000728E00F98012443A2012806
:104B200008D0002100980F9BC0E90021C0E9024392
:104B3000BDE8FF9F6FEA0B01F4E7CBF10000DEE771
:104B4000074612E0F80707D022463346404649465A
:104B5000FBF7D6FB80468946224633461046194667
:104B6000FBF7CEFB04460E467F10002FEAD1DDE9AD
:104B70000201BAF1000F42464B4602DAFBF7C0FBD6
:104B800001E0FBF72FFC04460E460022284BFBF702
:104B90001DFD03D84FF0FF30014607E00022254BF2
:104BA00020463146FBF705FBFBF732FE102409E0F7
:104BB000002C0ADB0A220023FBF736FD019B303272
:104BC0001A55641E50EA0102F2D1641C019AC4F124
:104BD000110314440F9A012A03D0012208430DD176
:104BE0000AE0084304D000204FF0110B0F9080E73B
:104BF000A3EB0B056D1E0DE05B4504DD4FF00002DD
:104C000005F1010504E003DA4FF00002A5F101050A
:104C1000002AECD000980F99C0E90231C0E90045A4
:104C200086E70000000024400000F03F3000000054
:104C30000000F0430000E03F0146074A002000BFAB
:104C400000EB400312F833308B4204D0401CC0B25A
:104C50000828F5D3FF207047440000202DE9FF4FBE
:104C600095B09B468946064600250FE2252877D158
:104C700000242746F84A0121059400E0044316F871
:104C8000013F203B01FA03F01042F7D130782A2887
:104C900011D06FF02F033078A0F13002092A16D816
:104CA000059A44F0020402EB820203EB4202104434
:104CB000761C0590EFE759F8042B0592002A03DAD9
:104CC000504244F40054059044F00204761C3078BD
:104CD0002E2816D116F8010F44F004042A280DD00E
:104CE0006FF02F023078A0F13003092B09D807EBC1
:104CF000870302EB4303C718761CF3E759F8047BDC
:104D0000761C30786C280FD006DC4C2817D0682829
:104D10000DD06A2814D104E0742810D07A280FD15D
:104D20000DE044F400140AE044F4801401E044F47B
:104D300040147278824202D104F58014761C761CED
:104D4000307866280BD013DC582877D009DC00288F
:104D500075D04528F6D04628F4D047281AD19DE1D1
:104D600018E0632835D0642879D0652812D195E100
:104D7000702873D008DC6728F1D069286FD06E28BE
:104D80000DD06F2806D1B5E073282CD0752875D0CA
:104D9000782874D05A46179990476D1C75E1C4F372
:104DA0000250022809D003280DD0D9F80010042899
:104DB0000DD00D6009F1040967E1D9F80010EA1778
:104DC000C1E90052F6E7D9F800100D80F2E70D7046
:104DD000F0E719F8041B8DF8001000208DF8010091
:104DE000EA46012003E059F804AB4FF0FF306107B9
:104DF0004FF0000102D40DE008F101018846B942EC
:104E00000FDA8045F8DB1AF808100029F4D108E021
:104E100008F1010188468142FADB1AF808100029DE
:104E2000F6D105985B46A0EB080721463846179A4D
:104E300000F094FA284400EB080507E04DE029E172
:104E40000DE01AF8010B5A4617999047B8F101087E
:104E5000F7D25B4621463846179A13E142E00A2210
:104E60000092C4F302524FF0000A022A08D059F807
:104E700004CB032A4FEAEC710AD00DE029E02AE0C6
:104E800009F1070121F00702F2E802C1914609E0A9
:104E90000FFA8CFC4FEAEC71042A03D14FFA8CFC18
:104EA0004FEAEC71002907DA0A460021DCF1000C18
:104EB00061EB02012D2202E0220504D52B228DF8A0
:104EC0000420012203E0E20701D02022F7E7904608
:104ED00059E00A2102E010220DE010214FF0000AF3
:104EE00000910BE010224FF0000A44F00404082760
:104EF000009203E008224FF0000A0092C4F302522D
:104F0000022A05D059F804CB0021032A08D009E071
:104F100009F1070121F00702F2E802C1914605E01C
:104F20001FFA8CFC042A01D10CF0FF0C4FF0000892
:104F3000220728D5702806D0009B83F0100353EA7F
:104F40000A0305D00EE040228DF80420012208E07B
:104F50005CEA010206D030228DF804208DF80500AD
:104F600002229046009B83F0080353EA0A030AD109
:104F70005CEA010201D1620705D530228DF80420D8
:104F80004FF001087F1E582804D034A003900EA8CB
:104F900002900DE036A0F9E753466046009AFBF711
:104FA00043FB84460398825C0298401E0290027084
:104FB0005CEA0100F0D1029806A9081A00F1200A63
:104FC000600702D524F4803400E00127574502DD54
:104FD000A7EB0A0000E0002000EB0A010090059812
:104FE0004144401A0590E00306D45B462146179AD7
:104FF000059800F0B3F90544002706E001A85A46D9
:10500000C05D179990476D1C7F1C4745F6DBE00398
:105010000CD55B462146179A059800F09FF9054488
:1050200004E030205A46179990476D1C0099481E9D
:1050300000900029F5DC08E0029802995A460078B1
:10504000491C0291179990476D1CBAF10001AAF111
:10505000010AF1DC65E1000009280100303132333A
:1050600034353637383961626364656600000000A4
:10507000303132333435363738394142434445468E
:105080000000000000F058F90544761C3078002834
:105090007FF4ECAD19B02846BDE8F08F620700D46C
:1050A000062709F1070222F0070CFCE80223E1467B
:1050B00003F000485FEA080C02D00FF2702C0DE0FC
:1050C0005FEA045C02D50FF2682C07E05FEAC47C5B
:1050D00002D00FF2602C01E0AFF2700C4FF0FF38FD
:1050E00023F00043CDF850C065280CD006DC4528DD
:1050F00009D046281DD047283DD13DE0662818D06C
:1051000067287ED138E00021112F01DB112000E05B
:10511000781CCDE9000106A90EA8FFF7DBFCDDE94C
:105120000F010E9A03910021009207F1010A0491E8
:105130004DE04FF000400097CDE9011006A90EA800
:10514000FFF7C8FCDDE90F0203920E9B11990022C4
:10515000DDF80CA00093049211B9791C00EB010A50
:10516000B7EB0A0004D4C0F1FF3007F1010A049044
:10517000AAEB0700019044E0012F00DA012700218B
:10518000112F01DD112000E03846CDE9000106A90C
:105190000EA8FFF79FFCDDE90F010E9A0391002195
:1051A00004910092BA4621070CD40399514500DAC4
:1051B0008A46BAF1010F05DD009AAAF10101515C9E
:1051C000302908D0B84202DA10F1040F06DA0121C2
:1051D000CDE9011015E0AAF10101E9E7002805DC9D
:1051E000049901440491AAEB000102E0411C5145DD
:1051F00000DD8A460499401A401C01904FF000409F
:105200000290200704D40198504501DBCDF80480BA
:1052100000208DF84F0002980DF14F07B0F1004FBC
:1052200025D02B200E9002984FF0020800280CDAAF
:10523000404202902D200E9007E00A210298FBF7D1
:10524000DDF93031029007F8011DB8F10001A8F135
:105250000108F2DC02980028EFD1791E0E98087040
:10526000307800F0200040F0450007F8020D12A849
:10527000C01B00F107081498007800B1012000EB72
:105280000A01019801EBE07105984144401A401E63
:105290000590E00306D45B462146179A059800F076
:1052A0005DF805441498007818B15A46179990474C
:1052B0006D1CE00324D55B462146179A059800F043
:1052C0004DF805441CE00498002807DBDDE90301E4
:1052D000884203DD0098405C179901E0179930205F
:1052E0005A469047049805F10105401C0490019826
:1052F000401E019004D12E205A46179990476D1CEC
:10530000BAF10001AAF1010ADDDC05E017F8010B92
:105310005A46179990476D1CB8F10001A8F1010891
:10532000F4DC5B462146179A0598ABE62D00000099
:105330002B000000200000002DE9F041044600256C
:105340001E461746880404D405E039462020B0479D
:105350006D1C641EF9D52846BDE8F0812DE9F041A9
:10536000044600251E469046C80301D5302700E0BC
:105370002027880404D505E041463846B0476D1C17
:10538000641EF9D52846BDE8F0810A68531C0B60FD
:10539000107070477047FEF7C7BF000010B5FFF7E9
:1053A000EDFA00280AD00648064A90F80211926ADF
:1053B000401C9047BDE81040FFF7D8BA10BD000070
:1053C000EC0200206059000810B5064C0649206820
:1053D000401C2060884203D1FBF748FC002020607D
:1053E00010BD000000000020E0930400002000F049
:1053F00015BA7047704770474FF400510148FCF7E9
:105400008EB8000000100140704770477047FFF7EA
:10541000BBBA00002DE9F041C1F30A52A2F2FF36F7
:105420002F4A304B0D460446142E2FDA002E12DA86
:10543000FAF7BFFE00221346FBF7C8F84CD2002D46
:10544000BCBF4FF00045002446DB55EA040018BFFE
:10545000254D19D140E0DFF894C02CFA06F705EA93
:10546000070C5CEA040C08BFBDE8F081FAF7A1FE66
:1054700000221346FBF7AAF82ED2002D03DD4FF4CD
:105480008010F0400544BD43002425E0332EC8BF02
:10549000BDE8F081A6F1140C4FF0FF3727FA0CF7A6
:1054A0003C4208BFBDE8F081FAF727FF002213460F
:1054B000FBF78CF810D2002D0DDD142E08BF6D1CEB
:1054C00009D0C6F13400012101FA00F02044A042C5
:1054D00038BF6D1C0446BC4329462046BDE8F08118
:1054E0009C7500883CE4377E0000F03FFFFF0F0012
:1054F000FBF7F8BE10B50446FCF72CFA0349B0FBE5
:10550000F1F16143491EFDD210BD000000093D00CC
:105510002DE9F041C1F30A52A2F2FF362F4A304B77
:105520000D460446142E2FDA002E12DAFAF741FE49
:1055300000221346FBF74AF84CD2002DA4BF0024EA
:10554000254647DA25F00040204318BF254D41D0BD
:1055500018E0DFF894C02CFA06F705EA070C5CEABD
:10556000040C08BFBDE8F081FAF723FE00221346C1
:10557000FBF72CF82ED2002D03DA4FF48010F04008
:105580000544BD43002425E0332EC8BFBDE8F081AB
:10559000A6F1140C4FF0FF3727FA0CF73C4208BF76
:1055A000BDE8F081FAF7A9FE00221346FBF70EF8DA
:1055B00010D2002D0DDA142E08BF6D1C09D0C6F1D3
:1055C0003400012101FA00F02044A04238BF6D1CD4
:1055D0000446BC4329462046BDE8F0819C750088FE
:1055E0003CE4377E0000F0BFFFFF0F0013B5FF2340
:1055F000012269460248FDF7B3F800981CBD00007F
:10560000C40400202DE9F0410B3020F00706104DB6
:1056100019E02068B04215D3B0420AD9871B201D7B
:10562000D4F80480FAF78EFDA019C0E9007828604C
:1056300004E060682860201DFAF784FD201D2660C4
:10564000BDE8F081251D2C68002CE2D10020F7E791
:1056500050010020FBF77EFFFEF7B0FEFDF746F994
:10566000FDF7C4F9FDF74AFAFDF7E2F9FDF716F97F
:105670001248FBF737FB4FF4FA7405E010A0FFF770
:105680008FF92046FBF72EFEFBF7F8F90028F5D13D
:10569000FBF772F900211148FCF7A4FEFDF786FB29
:1056A0004220FEF738F801460DA0FFF779F911A066
:1056B000FFF776F900F07CF8FCE70000F403002027
:1056C000444854313120636865636B6564206661CA
:1056D000696C65642121210D0A0000007C04002012
:1056E0004C6F72612056657273696F6E3A25642142
:1056F0000D0A00004D6173746572205374617274F9
:10570000210D0A0004E000BF11F8013B00F8013B45
:10571000521E92B2F8D27047FBF70EBF2DE9F04D42
:1057200007460E46FBF730F804460D463A46334628
:10573000FAF7E3FDDFF86CA0DFF86CB01B4B07460F
:10574000884616F0004F4FF000020AD0FAF726FF05
:105750000AD900225B4638464146FAF737FF1BD28A
:1057600012E0FAF71BFF08D20022534620462946D2
:10577000FAF7C0FD04460D460EE000225B463846AF
:105780004146FAF723FF07D8002253462046294610
:10579000FAF70FFD04460D463146204665F31E011B
:1057A000BDE8F08D0000F03F0000E03F0000E0BFEA
:1057B00070B50A4D002400BF04EB440005EB8001E6
:1057C000487830B1FF2801D000204870D1E90101AC
:1057D0008847641CE4B2052CEED370BD04000020A1
:1057E00070B515460E46FFF727FA0446FF2810D07D
:1057F0003046FAF78EFE0022064BFAF7F3FDFAF771
:10580000B4FE054904EB440201EBC2014860886024
:105810008D8170BD0000F03F440000202DE9F04173
:105820000025104F2E4600BF05EB450007EBC004D6
:105830006078012810D1A08960B1A0F57F41FF39BF
:1058400001D0401EA0816670D4E904018847A06899
:10585000606001E0667066606D1CEDB2082DE3D3F8
:10586000BDE8F08144000020000C23000D1E000E56
:10587000D2001A01001FAA0024070027120028C125
:10588000002994002AC10030D800358F003B020067
:1058900040000041300123FF280A000017000000EB
:1058A0001C0C00000F0000003C0F0000070000006F
:1058B00050140000160000009C1800000E000000AC
:1058C000781E000006000000A0280000150000005F
:1058D000D43000000D000000F03C00000500000086
:1058E0004051000014000000A86100000C000000FE
:1058F000447A000004000000E4A20000130000004D
:1059000050C300000B00000024F40000030000005E
:105910008545010012000000A08601000A00000079
:1059200048E80100020000002C8B0200110000007A
:10593000400D03000900000090D0030001000000AA
:10594000E093040000000000D1460008594600081A
:10595000454700086D470008414700089546000884
:10596000813000087D2E00083D390008C938000844
:1059700025310008D9360008B93C0008514000081C
:10598000652E0008892E0008A53700085D3F000835
:10599000853F0008C93A0008E9420008654200084E
:1059A0006537000869430008173700087543000889
:1059B0002737000809390008E13900080000000015
:1059C00000000000010203040607080900000000AF
:1059D00001020304F45900080000002058010000EF
:1059E00064080008785A000858010020B009000037
:1059F000C44A00085162FF13ED535B08010C1A956D
:105A00000C5A020C1A9D0C5A030C1A970C5A040CCF
:105A10001AC90C5122015AF404811B09544C191063
:105A20004BE80304812AF75899305AFF4C1AF918A9
:105A30000A1105481AF3180A1106181A0B600A1100
:105A400007181A0D181A0310320A290469602AF57A
:105A5000B859142904811A0F30C11309341B08EDF9
:105A60000413BD351B08C9041AD504D1996C290B40
:085A70008210D324F4000000B1
:04000005080000ED02
:00000001FF
