:020000040800F2
:10000000900B002001010008C71A000865190008BC
:10001000C51A0008CD0800080537000800000000D8
:10002000000000000000000000000000611D00084A
:10003000CF08000800000000F11B00087133000821
:100040001B0100081B0100081B0100081B01000820
:100050001B0100081B0100081B010008D108000853
:100060001B0100081B0100081B0100081B01000800
:100070001B0100081B0100081B0100081B010008F0
:100080001B0100081B0100081B0100081B010008E0
:100090001B0100081B0100081B0100081B010008D0
:1000A0001B0100081B0100081B0100081B010008C0
:1000B0001B0100081B0100081B0100081B010008B0
:1000C0001B0100081B0100081B0100081B010008A0
:1000D0001B010008C93600081B0100081B010008AD
:1000E0001B0100081B0100081B010008DFF80CD0F1
:1000F00000F094FB0048004779430008900B002073
:100100000648804706480047FEE7FEE7FEE7FEE7B1
:10011000FEE7FEE7FEE7FEE7FEE7FEE7BF33000887
:10012000ED000008202A04DB203A21FA02F0002129
:10013000704721FA02F3D040C2F1200291400843F7
:100140001946704740EA01039B0703D009E008C93C
:10015000121F08C0042AFAD203E011F8013B00F88C
:10016000013B521EF9D27047D2B201E000F8012BD8
:10017000491EFBD270470022F6E710B513460A4627
:1001800004461946FFF7F0FF204610BD2DE9FE4F4B
:10019000804681EA0300C00F0C46009021F0004128
:1001A00023F00045B8EB0200A94105D240462146A4
:1001B00090461C460B46024623F00040104347D0B1
:1001C000270DC7F30A00C3F30A510290401A0190A9
:1001D00040286BDAC3F3130040F4801B009892466A
:1001E00020B10023D2EB030A63EB0B0B01985946B5
:1001F000C0F14002504600F036FA06460D46504621
:100200005946019A00F03EFA10EB080061410024C3
:1002100087EA115284EAE7731A4340D0009A62B326
:10022000019A012A4FEA075215DC001B61EB02011B
:100230004FF0004202EA0752CDE90042001C41F5AE
:10024000801132462B4600F03EFA03B0BDE8F08F35
:1002500040462146F9E7001B61EB0201001C41F515
:10026000801300185B412018A2F5001747EB03012B
:1002700040EAD570B6196D4111E06D084FEA3606B7
:1002800045EAC0754FEA0752001B61EB0201001CF2
:1002900041F5801149084FEA3000001951413246BA
:1002A0002B4603B0BDE8F04F00F0FEB900980122E4
:1002B00040000023D0EB020263EBE073009821467C
:1002C0004FEAE074B8EB000061EB0401E9E783F06A
:1002D00000435BE781F0004158E72DE9FE4F81EADA
:1002E000030404F0004421F0004100944FF0000B9F
:1002F00023F0004350EA01045ED052EA03045BD0CD
:10030000C3F30A54C1F30A552C44A4F2F334019404
:10031000A0FB0254C1F3130141F48011C3F3130392
:1003200043F4801301FB024400FB034E840A970A46
:1003300044EA815447EA8357A4FB076802958D0A73
:1003400005FB07854FEA932C04FB0C542705029DFF
:100350004FEA065847EA1637B5EB08056EEB070C6F
:10036000870E920E47EA811742EA8312A7FB020129
:10037000B6EB0B0164EB00042B0D43EA0C335E1863
:1003800044EB1C50DA465146E7FB0201C5F3130467
:100390004FEA0B3343EA14534FEA0432019C43EA19
:1003A0000603A4F10C040294009CCDE900B400F013
:1003B0008AF903B0BDE8F08F00200146F9E72DE986
:1003C000F04D81EA030404F0004B21F0004514468F
:1003D0004FF0000A23F0004150EA050220D054EA11
:1003E00001021DD0C5F30A570246C5F31303C1F33A
:1003F0001300C1F30A5640F4801543F48013A7EBB1
:100400000608101BD64608F2FD3873EB050002D330
:1004100008F1010801E092185B41B8F1000F03DA1E
:1004200000200146BDE8F08D00204FF48011064603
:1004300084460EE0171B73EB050705D3121B63EB15
:10044000050306434CEA010C49084FEA30009218B4
:100450005B4150EA0107EDD152EA030012D082EA73
:10046000040083EA0501084305D0101BAB4106D206
:100470000122002306E000224FF0004302E06FF06B
:10048000010253101AEB06004CEB085110EB0A0066
:1004900041EB0B01BDE8F04D00F006B970B521F05D
:1004A000004303430CD0C1F30A550024D5EB0405E7
:1004B00064EB0403D617AD1AB34102DB00200146FA
:1004C00070BD201841EB025170BD0EB5C10F80EA1E
:1004D000E0700844CA07002140F233438DE80E0063
:1004E0000A460B4600F0EFF803B000BD0EB540F22F
:1004F000334102910021CDE900110A460B4600F07C
:10050000E2F803B000BD70B5C1F30A5201F0004536
:100510000024C1F3130140F2FF3341F480119A42E9
:1005200001DA002070BD40F233439A42A2F2334216
:1005300003DC5242FFF7F6FD00E090402C43F1D07F
:10054000404270BDC1F30A5210B5C1F3130140F22D
:10055000FF3341F480119A4201DA002010BD40F2CD
:1005600033439A42A2F2334203DC5242FFF7DAFDF0
:1005700010BD904010BD000030B5041E71F10004A4
:1005800004DB4FF00044404264EB0101141E73F1A0
:10059000000405DB1C464FF00043524263EB0403AA
:1005A0008B4208BF824230BD30B5041E71F1000499
:1005B00004DB4FF00044404264EB0101141E73F170
:1005C000000405DB1C464FF00043524263EB04037A
:1005D000994208BF904230BD30B50B46014600201D
:1005E0002022012409E021FA02F59D4205D303FAF5
:1005F00002F5491B04FA02F52844151EA2F1010276
:10060000F1DC30BD2DE9F05F0546002092469B46A7
:1006100088460646814640241BE028464146474618
:100620002246FFF77FFD53465A46C01A914110D328
:1006300011461846224600F016F82D1A67EB0108FD
:100640004F4622460120002100F00DF817EB00096B
:100650004E41201EA4F10104DFDC484631462A4603
:100660004346BDE8F09F202A04DB203A00FA02F15D
:10067000002070479140C2F1200320FA03F3194390
:1006800090407047202A06DBCB17203A41FA02F04F
:1006900043EAE07306E041FA02F3D040C2F12002DF
:1006A000914008431946704710B5141E73F10004B9
:1006B00008DA401C41F1000192185B411A4301D154
:1006C00020F0010010BD2DE9F04D92469B4611B17E
:1006D000B1FA81F202E0B0FA80F220329046FFF7E0
:1006E000C2FF04460F4640EA0A0041EA0B015346A6
:1006F0005A46084313D0114653EA010019D0C8F1F5
:1007000040025046FFF70EFD05460E46504659463C
:100710004246FFF7A8FF084305D0012004E0204629
:100720003946BDE8F08D0020054346EAE0762C43CB
:1007300037430A986305E40AA0EB08000022FD0A8B
:1007400044EA47540A3002D500200146E9E7010592
:1007500010196941DDE9084500196941BDE8F04D0E
:10076000A2E700002DE9F041054621F000400C46CB
:10077000284309D0C4F30A5040F23341884205DDD2
:1007800028462146BDE8F0812846FBE740F2FE31CD
:10079000884210DC0CDB4FEA043040EA155050EA86
:1007A000053105D0104804F0004101430020E9E77D
:1007B00000200146E6E7A0F233404642C6F140027F
:1007C00028462146FFF74FFF074688462846214620
:1007D0003246FFF7A7FC43463A46FFF765FF32462D
:1007E000BDE8F041FFF73FBF0000F03FC1F30A5200
:1007F000C1F3130140F2FF3341F480119A4202DA4F
:1008000000200146704740F233439A42A2F233423D
:1008100002DC5242FFF786BCFFF725BF064C074DAE
:1008200006E0E06840F0010394E8070098471034C0
:10083000AC42F6D3FFF75EFCA4460008C4460008AD
:1008400070B58C1810F8015B15F0070301D110F892
:10085000013B2A1106D110F8012B03E010F8016BBF
:1008600001F8016B5B1EF9D12B0705D40023521E42
:100870000DD401F8013BFAE710F8013BCB1A921CAA
:1008800003E013F8015B01F8015B521EF9D5A142A8
:10089000D8D3002070BD00000A4800214170A0F8A4
:1008A000041180F80611A0F8021107480168CA680F
:1008B00042F02002CA600068416941F001014161D3
:1008C00070470000F003002050050020FEE770474D
:1008D000022000F07FB87047094A002152F83130F9
:1008E000834208D802EBC1039B68834203D902EB21
:1008F000C10000797047491CC9B21529EED3FEE743
:100900006845000810B590F821100024022903D092
:100910000421816301243DE001680A6822F00E028F
:100920000A6001680A6822F001020A601A4A016836
:10093000914201D1012121E0174A1432914201D1A3
:1009400010211BE0144A2832914201D1891515E08B
:10095000114A3C32914201D189140FE00E4A5032C3
:10096000914202D14FF4803108E00B4A6432914247
:1009700002D14FF4801101E04FF08071064A083A2D
:100980005160012180F82110002180F82010416B76
:1009900001B18847204610BD0800024070B50446EA
:1009A00000F022F90546601C02D004480078044497
:1009B00000F01AF9401BA042FAD370BD400100209C
:1009C000022804D102484068002800D00047704740
:1009D00038010020044910B50A68024202D00860BC
:1009E000FFF7EEFF10BD0000140401402DE9F84FA1
:1009F000DFF8B891002409F1040A0AF1040B234638
:100A00000F270BF1040EC9E00125A5402A40AA4298
:100A10007DD1674ED1F804C0ACEB0608B44532D0A6
:100A200014DCBCF1030F3AD009DCBCF1000F2AD072
:100A3000BCF1010F1CD0BCF1020F31D11DE0BCF1A3
:100A4000110F17D0BCF1120F2AD119E0B8F5881F89
:100A500019D006DCB8F5803F15D0B8F5801F1FD13E
:100A600011E0B8F5001F0ED0B8F5041F18D10AE048
:100A7000CB6815E0CB681B1D12E0CB6808330FE094
:100A8000CB680C330CE08B682BB1012B4FF00803C3
:100A900003D0456104E0042302E0056100E0002387
:100AA000FF2A01D8064601E000F104064FEA84055A
:100AB00001D9A5F12005D6F8008007FA05FC28EA3F
:100AC0000C0803FA05F548EA0508C6F800804D68E9
:100AD000ED0062D5374DAE6946F00106AE61AD69F5
:100AE00024F0030605F001050095334D06EB050CD7
:100AF000DCF80850A607360F07FA06F825EA0805BD
:100B0000DFF8B880404503D14FF0000817E044E01B
:100B1000DFF8AC80404502D14FF001080FE0DFF86C
:100B2000A480404502D14FF0020808E0DFF8988029
:100B3000404502D14FF0030801E04FF0040808FAE5
:100B400006F848EA0508CCF808804D68D9F8006036
:100B5000ED034D4601D5164300E096432E604D68E7
:100B6000DAF80060AD03554601D5164300E0964320
:100B70002E604D68DBF80060ED025D4601D516433E
:100B800000E096432E604D68DEF80060AD027546C9
:100B900001D5164300E096432E60641C0D682A467A
:100BA000E5407FF431AFBDE8F88F0000000401405C
:100BB0000000111000100240000001400008014038
:100BC000000C01400010014000140140C26821EAFD
:100BD00002030A4043EA0241016170470AB1016120
:100BE00070470904FBE70000014880687047000077
:100BF00040010020024881680278114481607047FA
:100C000040010020074810B5016841F01001016063
:100C1000032000F075F8002000F006F800F024F83A
:100C2000002010BD0020024070B50D4D04464FF469
:100C30007A712878B1FBF0F00A490968B1FBF0F04D
:100C400000F06FFC48B9102C07D200222146501E3C
:100C500000F036F800206C6070BD012070BD00000F
:100C6000400100204C0100200C4808B5816941F08A
:100C700001018161816901F001010091C16941F0C7
:100C80008051C161C06900F0805000900448416803
:100C900021F0E06141F08061416008BD0010024038
:100CA00000000140002809DB00F01F0201219140F3
:100CB0004009800000F1E020C0F8001170470000FA
:100CC000F0B40E4B1B680C46C3F30223C3F10705B7
:100CD000042D00D90425191D072901D2002300E0A5
:100CE000DB1E012606FA05F1491E214099409E406F
:100CF000761E16403143F0BC02F016BD0CED00E04C
:100D0000064900F0070208684FF6FF03184040EA62
:100D10000220034A10430860704700000CED00E019
:100D20000000FA052DE9F0470F46050061D0434E5B
:100D3000306800F00700B84209D2306820F00700A0
:100D400038433060306800F00700B84251D128685D
:100D50003B4C810712D5400703D5606840F4E06042
:100D600060602878000703D5606840F460506060D8
:100D70006068A96820F0F000084360602878C00728
:100D800028D06868012810D02168022810D089076F
:100D900000292EDA616821F0030101436160FFF749
:100DA00023FF804641F288390DE021688903EFE78F
:100DB0008901EDE7FFF718FFA0EB0801494502D9CB
:100DC0000320BDE8F0876068696800F00C00B0EBB4
:100DD000810FEFD1306800F00700B8420BD93068BE
:100DE00020F0070038433060306800F00700B84258
:100DF00001D00120E5E72878400705D56068E9685B
:100E000020F4E060084360602878000706D5606839
:100E1000296920F4605040EAC100606000F038F8B1
:100E20006168084AC1F30311515CC8400649086073
:100E300006480068FFF7F8FE0020C2E700200240E5
:100E4000001002408C4600084C01002044010020A4
:100E50000448054900684968044AC1F30221515C0D
:100E6000C84070474C010020001002409C4600081A
:100E70000448054900684968044AC1F3C221515C2D
:100E8000C84070474C010020001002409C460008FA
:100E900012A185B00FC98DE80F0014A0144A006894
:100EA00004905168134801F00C03042B10D0082B58
:100EB0000ED1C1F38343C9031DF803000AD551685D
:100EC00004AAC1F34041515C0A4A5043B0FBF1F01F
:100ED00005B0704708494843FAE7000002030405DB
:100EE000060708090A0B0C0D0E0F10100102000076
:100EF0000010024000127A0000093D002DE9F84F71
:100F0000040070D02078C04DC00749D06868C0F395
:100F10008100012807D06868C0F38100022809D148
:100F20006868C00306D52868800339D56068002842
:100F3000E7D035E06068B0F5803F0BD010B1B0F578
:100F4000A02F11D0286820F480302860286820F471
:100F5000802002E0286840F480302860606890B10A
:100F6000FFF742FE06460AE0286840F48020286029
:100F7000F0E700BFFFF738FE801B642873D82868AD
:100F80008003F7D50CE0FFF72FFE064605E000BF13
:100F9000FFF72AFE801B6428F0D828688003F7D466
:100FA00020789A4E80074FF001094FF0000839D59C
:100FB000686810F00C0F07D06868C0F38100022841
:100FC00009D16868C00306D42868800714D5206951
:100FD000012808D110E02069B0B1C6F80090FFF7F1
:100FE00003FE074605E00AE1FFF7FEFDC01B0228ED
:100FF000C4D828688007F7D52868616920F0F80010
:1010000040EAC10028600DE0C6F80080FFF7ECFD63
:10101000074604E0FFF7E8FDC01B022823D8286834
:101020008007F7D4207800072CD57948A169D9B179
:10103000C0F80090FFF7D8FD074604E0FFF7D4FDA5
:10104000C01B02280FD8686A8007F7D571484FF493
:10105000FA510068B0FBF1F0009000BF0098411E0B
:101060000091FAD20EE080E0C0F80080FFF7BCFDEE
:10107000074604E0FFF7B8FDC01B022875D8686A70
:101080008007F7D42078400760D5E8690027C000C2
:1010900008D4E86940F08050E861E869012700F071
:1010A000805000905C480168C90513D401688346EC
:1010B00041F480710160FFF797FD824606E000BFB2
:1010C000FFF792FDA0EB0A0064284ED8DBF8000081
:1010D000C005F5D5E06801280AD008B1052813D06D
:1010E000286A20F001002862286A20F0040002E04B
:1010F000286A40F001002862E06841F2883B98B11C
:10110000FFF772FD82460BE0286A40F00400286277
:10111000EEE700BFFFF768FDA0EB0A0159455AD87A
:10112000286A8007F6D50CE0FFF75EFD824605E0F1
:10113000FFF75AFDA0EB0A0159454CD8286A8007F1
:10114000F6D41FB1E86920F08050E861E06988B307
:101150006968C1F38101022944D00228C6F8608081
:1011600004D0FFF741FD044638E034E0FFF73CFDD2
:10117000074604E0FFF738FDC01B02282BD828687B
:101180008001F7D4206AB0F5803F05D16868A16876
:1011900020F4003008436860D4E908010843696816
:1011A00021F4741108436860C6F86090FFF71CFDD5
:1011B000044606E025E000BFFFF716FD001B0228ED
:1011C00009D828688001F7D51BE000BFFFF70CFDA8
:1011D000001B022802D90320BDE8F88F286880018F
:1011E000F4D40EE00128F7D06868226A00F4803158
:1011F000914204D1616A00F47010884201D001204C
:10120000EAE70020E8E70000001002400000424248
:10121000800442424C0100200070004070B5040080
:1012200009D0606A002540B125616561A56294F826
:10123000510040B10CE0012070BD6068B0F5827FC4
:10124000F4D0E561F2E784F85050204600F040F811
:10125000022084F851002068016821F040010160FB
:10126000A088218900F4827001F404410843A18917
:1012700001F400610843217C01F002010843217D53
:1012800001F001010843218B01F400710843217F23
:1012900001F03801084394F8201001F08001084360
:1012A000218D01F40051084321680860A0690421E0
:1012B00001EA1040216848602068C16921F400619A
:1012C000C1616565012084F85100002070BD0000F7
:1012D00030B585B000240094019402940394006812
:1012E0001449884223D11448816941F480518161B5
:1012F000816901F480510491816941F004018161A7
:1013000080690E4D00F004000490A020009002209F
:1013100001900320039069462846FFF767FB4020B1
:10132000CDE90004694628460294FFF75FFB05B04B
:1013300030BD0000003001400010024000080140B4
:101340002DE9F84F044690F8500000270A9E1D46EC
:1013500092468B464FF0010901280ED0012084F8F7
:101360005000FFF741FC804694F851006168012865
:101370000CD0B1F5827F07D102E00220BDE8F88FE2
:10138000A16809B9042801D00227C2E0BBF1000F0F
:1013900027D0BAF1000F24D01DB394F851000428CF
:1013A00002D0052084F8510000206065C4F838A000
:1013B000E587A587C4F830B0E586A586206460641B
:1013C00020680168490603D4016841F040010160CA
:1013D000E068B0F5006F606805D0E8B3012D46D035
:1013E0007FE0012795E008B1012D39D1206B2168FC
:1013F0000088C860206B801C2063E08E401EE08661
:101400002EE02068816889070FD5E18E69B1B9F1B6
:10141000010F0AD1216B0988C160206B801C2063F9
:10142000E08E401EE0864FF0000920688168C90701
:101430000CD0E18F51B1C068A16B0880A06B801CFB
:10144000A063E08F401EE0874FF00109FFF7CCFB5F
:10145000A0EB0800B04200E009E001D3701C50D1BD
:10146000E08E0028CDD1E08F0028CAD13FE0206B6C
:10147000216800780873206B401C2063E08E401EBA
:10148000E0862EE02068816889070FD5E18E69B17A
:10149000B9F1010F0AD1216B09780173206B401C4F
:1014A0002063E08E401EE0864FF0000920688168CE
:1014B000C9070CD0E18F51B1C068A16B0870A06B57
:1014C000401CA063E08F401EE0874FF00109FFF74A
:1014D0008BFBA0EB0800B04202D3701C01D010E0DF
:1014E0007EB1E08E0028CDD1E08F0028CAD14246DF
:1014F0003146204600F0C8FB28B101272020606556
:1015000007E0032705E0A06818B92068C168806873
:101510000090012084F85100002084F850003846E3
:101520002CE710B5401EB0F1807F01D3012010BD23
:101530004FF0E02460610F21601702F0F5F8002001
:10154000A06107202061002010BD704770B50268BF
:1015500004461068D168536910F00F0F53D003F0A0
:10156000010501F490762E435FD0C20705D0CA056D
:1015700003D5E26B42F00102E263420705D5DA07C8
:1015800003D0E26B42F00202E263820705D5DA077C
:1015900003D0E26B42F00402E263020707D501F0D8
:1015A00020022A4303D0E26B42F00802E263E26BBE
:1015B000002A34D0800604D5880602D5204601F0E2
:1015C000AFFF20684069E16BC0F3801001F00801B3
:1015D0000143204624D001F095FF20684169490667
:1015E0001AD5416921F040014161606BA0B12D49DC
:1015F0004163606BFFF786F9002810D0606B416B88
:10160000BDE87040084783060FD58B060DD52046F0
:10161000BDE8704001F084BF2046FFF796FF70BD23
:10162000FFF793FF0020E06370BD03062BD50B0688
:1016300029D594F839002128F6D1A068B0F5805F4B
:1016400001D12069B0B1206A411C21622168007873
:101650004860E08C401E0004000CE084E4D1206867
:10166000C16821F08001C1602068C16841F040017B
:10167000C16070BD206A0088C0F308005060206A15
:10168000801C2062E5E74006F3D54806F1D5D16815
:10169000204621F04001D160202184F8391000F06B
:1016A0001EF970BDF534000870B5040004D094F83C
:1016B0003900002510B106E0012070BD84F83850D3
:1016C000204600F023F8242084F839002068C168FF
:1016D00021F40051C160204601F068FF20680169D3
:1016E00021F4904101612068416921F02A014161A2
:1016F0002068C16841F40051C160E563202084F88E
:10170000390084F83A00002070BD000030B585B083
:1017100000240094019402940394006818498842BC
:101720002CD11848816941F480418161816901F4BB
:1017300080410491816941F0040181618069124D09
:1017400000F0040004904FF400700090022001901B
:101750000320039069462846FFF748F92815CDE98C
:101760000004694628460294FFF740F9002201214F
:101770002520FFF7A5FA2520FFF794FA05B030BD24
:1017800000380140001002400008014090F83A3053
:10179000202B22D1F9B1F2B190F83830012B1CD0B6
:1017A00081628285C2850021C163222280F83A20AD
:1017B00080F838100168CA6842F48072CA60016813
:1017C0004A6942F001024A610068C16841F02001A3
:1017D000C160002070470120704702207047000060
:1017E000104910B588421BD10F4A10461178B0F845
:1017F00004010D290DD0531CC154B2F80401401C42
:10180000A2F80401BDE81040012207490548FFF78E
:10181000BDBFA2F8020101F06BFF00205070F1E79C
:1018200010BD000050050020F00300202DE9F84312
:10183000044690F839001F4616460D4620284CD124
:10184000C5B1BEB194F83800012846D0012084F813
:1018500038004FF00008C4F83C80212084F839009B
:10186000FFF7C2F9A6848146E684A068B0F5805FE0
:1018700003D004E00120BDE8F883206928B12E469A
:101880005FF0000584F838800EE00026FAE780213A
:10189000204601F0E7FEA0B9AEB116F8010B2168B1
:1018A0004860E08C401EE084E08C4B464FF0000224
:1018B00000970028EBD14FF04001204601F0D2FE06
:1018C00030B10320D7E735F8020BC0F30800E6E794
:1018D000202084F839000020CDE70220CBE77047B4
:1018E000022803D1002901D001484160704700005F
:1018F000380100200EB501238DF8080000208DF876
:1019000004006420009001AA02A90348FFF718FD13
:101910009DF804000EBD0000F8040020044B20B127
:10192000012210211846FFF759B90022F9E70000FB
:1019300000080140044B20B1012201211846FFF7A5
:101940004DB90022F9E70000000C0140044B20B122
:10195000012204211846FFF741B90022F9E70000EF
:10196000000C0140FEE700002DE9F04385B00024A3
:1019700030480094019402940394816941F010016D
:101980008161816901F010010491816941F00401D4
:101990008161816901F004010491816941F00801CC
:1019A00081618069244F00F008004FF400550490D5
:1019B000002229463846FFF711F9DFF8808000221F
:1019C00010214046FFF70AF9DFF874900022052144
:1019D0004846FFF703F90126CDE90056022569467E
:1019E0003846CDE90245FFF701F816480095CDE9E4
:1019F000010469464046FEF7F9FF1020CDE90006D4
:101A000069464046CDE90245FEF7F0FF0520CDE9E5
:101A1000000669464846CDE90245FEF7E7FF002289
:101A200011460720FFF74CF90720FFF73BF905B0F7
:101A3000BDE8F083001002400010014000080140A2
:101A4000000C0140000011100F4810B50D49016055
:101A50004FF48271416000218160C1604FF40072D7
:101A60000161C0E90512C1610162416281620A211E
:101A7000C162FFF7D3FB002803D0BDE81040FEF79A
:101A80002ABF10BD00300140F80400200C4810B5FA
:101A90000A4901604FF4E1314160002181600C226C
:101AA000C160C0E904128161C161FFF7FDFD00283A
:101AB00003D0BDE81040FEF70EBF10BD0038014056
:101AC00050050020FEE7704710B5044606A001F05F
:101AD0001BFE0848416B14B14FF4FA6000E000208F
:101AE000BDE810400847000063616420646F6E65C4
:101AF0000D0A00003046000810B5104C0A4621803F
:101B0000618001460E48FEF71DFB6188481EF728DC
:101B10000ED8221D0A4802F045FBFF2362880849BF
:101B20000848FFF783FE0222C821104602F0C0FCDD
:101B30000548416BBDE81040002008472001002007
:101B4000D4020020500500203046000810B504A043
:101B500001F0DAFD0548416BBDE810400020084760
:101B60007278206572726F720D0A000030460008AC
:101B700010B504A001F0C8FD0648416BBDE8104057
:101B80000020084772782074696D656F75740D0ABE
:101B9000000000003046000810B507A001F0B4FDB9
:101BA0000222C821104602F083FC0648416BBDE8C2
:101BB0001040002008470000747820646F6E650DA7
:101BC0000A0000003046000810B504A001F09CFD9A
:101BD0000648416BBDE81040002008477478207427
:101BE000696D656F75740D0A0000000030460008CD
:101BF0007047000070B5092000F069FD0546062019
:101C000000F065FD0404072000F061FD44EA0024B3
:101C1000082000F05CFD2043FEF768FC0022184B12
:101C2000FEF75BFBFEF78EFC04460021092001F065
:101C300077FB3B2000F04BFD40F040013B2001F0E2
:101C40006FFB3B2000F043FD8006FAD40D4800F006
:101C500017FE3B2000F03BFD40F040013B2001F02F
:101C60005FFB3B2000F033FD8006FAD429460920B3
:101C700001F056FB2046BDE8704000F001BE0000B8
:101C800080844E4000A1BC3338B50B460092044618
:101C90000022802100F008F8002804D0606D40F098
:101CA00020006065032038BD2DE9F8431E469146AB
:101CB00088460446089DFEF797FF401B351AFEF73D
:101CC00093FF074625480068C0F3CB30684338E0EF
:101CD000701C37D0FEF788FFC01BA84203D215B195
:101CE000009860B32CE02068416821F0E001416079
:101CF0006068B0F5827F0BD1A068B0F5004F02D0CC
:101D0000B0F5806F04D12068016821F040010160C6
:101D1000A06AB0F5005F09D12068016821F4005184
:101D200001602068016841F400510160012084F8DD
:101D30005100002084F850000320BDE8F8830025FE
:101D4000401E00902068816838EA010004D000211C
:101D50004945BDD10020F0E70121F9E74C01002001
:101D600070470000F0B58BB000F056F822482149CA
:101D7000274D016021498160214941602149C160AD
:101D8000214901612149816129688847E968214821
:101D90008847A96801208847002442F2283005942A
:101DA0000694CDE90740012608270720CDE9016701
:101DB0000090CDE903460223D5F81CC02246142129
:101DC0003046E047CDE90846CDE90446069440F2A6
:101DD000FF300794CDE90204CDE900470123072233
:101DE000AC6902211846A047696B0BB00020BDE822
:101DF000F0400847991B0008D4030020F91A000896
:101E0000C91B0008711B00084D1B0008C91A0008F7
:101E100030460008D858F61900F054B90120704730
:101E20000349884201D2802070470020704700009B
:101E300040DD4A1F0148007D704700005C02002021
:101E40002DE9F34F0200714981B04FF000000BD033
:101E5000012A7DD10024486D2546072853D0082843
:101E600054D0092857D154E08A46C86AFEF73EFB91
:101E700006460F460298FEF739FB80468946302019
:101E800000F025FC30F0F9004FF0000401D0604D67
:101E900000E00025272000F01AFC20F0F800BAF836
:101EA0003010401C0844FEF721FB9AF83220012A2A
:101EB0004FF0000222D0564BFEF768F922462B461F
:101EC000FEF764F942464B46FEF760F99AF8342073
:101ED000012A4FF0000213D05FF00003FEF756F91D
:101EE0000322FEF7DBFA32463B46FEF768FA002291
:101EF000484BFEF7F2F902F079FA7FE00023DBE7C6
:101F00004FF08043EAE70024434D04E00024434DB2
:101F100001E0434D00243D4E012056F8587FB84063
:101F2000FEF7D3FA02460B4620462946FEF747FA4B
:101F300002460B4600203649FEF741FA04460D469C
:101F4000F088FEF7D3FA0022364BFEF71FF900E0C7
:101F500059E022462B46FEF7C0F98346009170797E
:101F6000001DFEF7C3FA80463079894600B1022091
:101F7000381A8000FEF7BAFA064602988A46C1006F
:101F800022487A4201EB820190F8622090F86000CA
:101F900001EB021100B11420081A1C30FEF7A6FA5A
:101FA00032465346FEF70BFA02F08EF842464B4695
:101FB000FEF793F9002207460E461346FEF7F4FAA1
:101FC00002D23846314601E0002001460022164B7D
:101FD000FEF7DCF822462B46FEF77FF902460B4659
:101FE00058460099FEF7D2F800220A4BFEF775F921
:101FF0000E4A0F4BFEF7CAF802F01CF903B0BDE819
:10200000F04FFEF79FBABDE8FE8F00005C02002093
:102010000000F03F00408F408084FE4080840E41ED
:1020200080841E4100001140000020402B8716D9FB
:10203000CEF7EF3F7047000070B51D491D4C0122DF
:10204000086040F6B83625681B4B31461046A84755
:1020500001222568184B31460220A8472468012236
:10206000154B31460320A04700F0AAFCFFF7C2FD44
:10207000002000F079FC0E480C3000F02BF80F4DDA
:10208000002400BF04EB4406A85D00F033FC701987
:102090008178407801F044F9641CE4B2102CF1D34B
:1020A000002000F027FC06490020087570BD0000E4
:1020B000F40000201846000885260008384500086E
:1020C0005C02002010B5FFF7B5FFBDE8104001200D
:1020D000FFF724BC01680220FFF702BC2DE9F041A4
:1020E0001E4617460C468046012500F003FC20469C
:1020F00000F0C6FB052000F037FC012002F098F844
:1021000002F072F9044606E0404600F007FBB842D0
:1021100001DD002504E002F067F9001BB042F3D3B3
:1021200000F0F8FE2846BDE8F08100002DE9F843F4
:1021300000258DF800509D4C9D4F9E4E207D01281E
:1021400014D0022872D003285AD1122000F0BFFA0E
:10215000C0076CD00521122001F0E2F83068002899
:102160004ED0816900294BD001201BE1607DB8B1C0
:10217000012845D14021122001F0D2F8122000F0B0
:10218000A6FA8DF800009DF8000080067ED520217B
:10219000122001F0C5F894F86600002877D088E096
:1021A00094F83400012832D13F2000F090FA8DF8E5
:1021B00000009DF80000800729D40B213E2001F08B
:1021C000AFF810213F2001F0ABF8F96802208847F2
:1021D00094F83600B0B10D2000F079FA40F04001DB
:1021E0000D2001F09DF8B96803208847306810B1D0
:1021F000006900B1804704F8405F6570A581658182
:10220000BDE8F883F968032088472575EEE7B4F840
:102210004A10DFF8A48111B9B4F84C0040B1B4F809
:102220004C00091AC9B240444A340FE09AE0AEE0CB
:1022300094F8320060B3322000F049FAA4F84A0062
:1022400014F84A1F6088091AC9B2404400F061FAC4
:1022500034F8020B24F84C09F9680220884794F8F6
:10226000360010B30D2000F032FA40F040010D208E
:1022700001F056F8B9680320884730680028BAD0C2
:102280008668002EB7D094F9422002E019E00FE0F2
:1022900005E0B4F84A1000234748B047ABE743488D
:1022A00001214A3000F035FACAE72575F968E2E7FE
:1022B0002575F9680220884730680028A0D0006999
:1022C0005FE0192000F003FA40B2A04684F87000E5
:1022D000010605D5C043401CC0F38500444201E01F
:1022E000C0F385041A2000F0F2F9344AD8F8183007
:1022F000002C06DA00EB20109342204405D99D38CB
:1023000004E0934200EB2010F9D8A438A8F872003A
:10231000132000F0DCF988F87400102008F166043E
:1023200000F0D5F901460D2000F0FAFFA17B22480C
:1023300000F0EFF914F8660900B92575F968022074
:10234000884730680028B9D08568002DB6D014F9C8
:10235000703FAC46B4F90220217901B01648BDE8BF
:10236000F0436047F96801208847607D012803D168
:102370000821122000F0D4FF2575306800289DD078
:10238000006800289AD001B0BDE8F043004704215E
:10239000122000F0C5FF306800288FD08169002925
:1023A0008CD0002001B0BDE8F04308475C0200205B
:1023B00018460008F40000205C01002040DD4A1FA0
:1023C0000149012008707047F800002070B5324CB8
:1023D0002046237D427DB0F84A10B0F84C00A4F5A9
:1023E0008075012B15D0022B12D1002A10D10A1AA8
:1023F000234694F84F10B3F84C30284618448A42CC
:1024000043DD00F0ACFF34F84C0FE1780844208045
:1024100070BDAAB1012AFBD12048C16802208847BB
:102420008021122000F07CFF002020751C480068ED
:102430000028EDD0C0680028EAD0BDE87040004711
:1024400041B938B994F83200A0B1322000F03FF918
:10245000A4F84A00B4F84A10B4F84C000A1A94F8E8
:102460004E108A420CDD284400F053F934F84C0F2A
:10247000A178CBE7084801214A3000F04AF9E9E7A2
:10248000D1B2284400F045F902E0D1B200F067FF74
:1024900034F84A0F608070BD5C02002018460008C6
:1024A000F40000200149012048707047F800002026
:1024B00070B52C4C2C4D2046227D417D90F8630058
:1024C000012A03D0022A00D109B970BDB9B101298E
:1024D000FBD10128F9D10221122000F021FF286848
:1024E0000028F2D040690028EFD01C2000F0EFF85F
:1024F000296800F03F004969BDE8704008476089DD
:10250000012560B394F840000128DED194F8410021
:102510000028DAD11548C1680320884704F8415FD4
:10252000112000F0D4F84008404260701C2000F0F8
:10253000CEF805461B2000F0CAF845EA0020FDF75A
:10254000D5FF00220A4BFDF7C8FEFDF7DCFFC4F8FB
:1025500003000C2000F0BBF84009E07170BD84F866
:102560004050D3E75C020020F40000201846000829
:1025700080844E400149012088707047F800002097
:1025800001490120C8707047F80000200548417DCE
:10259000002906D190F84010002902D1012180F8CD
:1025A000401070475C0200202DE9F047314CDFF805
:1025B000C8904FF00008207D01282CD0022857D168
:1025C00000F0FEF9FFF716FB002000F0CDF92B4ECE
:1025D000002500BF05EB4507F05D00F08BF9B81949
:1025E0008178407800F09CFE6D1CEDB2102DF1D387
:1025F000002000F07FF994F86C0000F0CDF984F829
:102600001480D9F80000002832D0406800282FD06C
:10261000BDE8F0470047607DD0B984F8408084F879
:102620004180A4F84C80A4F84A8045460B213E2006
:10263000363400F075FE10213F2000F071FE14F8D2
:1026400036090F4E012809D02575F1680320884707
:10265000D9F8000000280BD0C068D7E70D2000F0A3
:1026600036F840F040010D2000F05AFEB168EDE769
:10267000BDE8F0875C020020F40000203845000827
:10268000184600080149012088717047F8000020B1
:1026900070B50025012000F02DF9FF21112000F078
:1026A0003FFE052000F060F90024012001F0C0FD8C
:1026B0002C2000F00CF800F00100A040641C054341
:1026C000E4B2202CF1D300F025FC284670BD08B5FB
:1026D0000122694600F003F89DF8000008BD70B5BE
:1026E000044615460E46002000F03EFE04F07F0032
:1026F00000F03CFE002405E0002000F037FE3055DD
:10270000641CE4B2AC42F7D3BDE87040012000F095
:102710002BBE0A4601460020FFF7E1BF10B520B1ED
:10272000012808D04FF0FF3010BD1120FFF7CFFF78
:102730004008404210BD07480749806988424FF071
:102740001B0003D9FFF7C3FF9D3810BDFFF7BFFF84
:10275000A43810BD5C02002040DD4A1F73B53A4C1E
:1027600005460020617D11B1012969D12CE00020CE
:10277000A4F84C009DF80410A4F84A1094F8320014
:1027800050B1322000F0CCFD9DF80420501E3F28AF
:1027900007D884F84F200BE0012101A800F0DFFDED
:1027A000F2E72946294801F015FE202084F84F0061
:1027B00094F84F102846383400F0D1FDA08AE17D0E
:1027C0000844A08220683BE094F8650001284FF09F
:1027D000330021D0FFF77BFF00F0BE013320491CFE
:1027E00000F09EFD1D213B2000F09AFD9DF8041095
:1027F00084F87410222000F093FD00210E2000F0D8
:102800008FFD00210D2000F08BFD0120FFF75FFF01
:1028100030F0F80009D00DE0FFF759FF00F0BE01DD
:10282000332000F07DFD1921DDE700F087FB01205A
:1028300001F0FEFC9DF80410284600F090FDA06E0B
:1028400000F090FB7CBD00005C0200205C010020D9
:10285000032803D05FF00100FFF778B80020FBE702
:1028600006490A78824207D0087018B15FF000006C
:10287000FFF76CB80120FBE770470000380100202B
:102880000D4910B58861FDF731FE00220B4BFDF7B5
:1028900096FDFDF757FE0446C0F30741062000F001
:1028A0003FFDC4F30721072000F03AFDE1B2BDE887
:1028B0001040082000F034BD5C02002080844E40AF
:1028C00070B50D46044600F015F824B1012C0DD169
:1028D0002946232006E0064890F83200002805D15A
:1028E00029463220BDE8704000F01ABD70BD0000DE
:1028F0005C02002010B504460120FFF7E8FE1949EC
:10290000000601D5012000E000204875C0B2A042B9
:1029100026D04C75012C0FD000F0FCFA0120FFF7F7
:10292000D6FE00F07F01012000F0FAFC00214020DB
:1029300000F0F6FC30210EE000F0ECFA0120FFF789
:10294000C6FE40F08001012000F0EAFC002140209A
:1029500000F0E6FC0021BDE81040412000F0E0BCA2
:1029600010BD00005C02002010B5040010D0002053
:10297000FFF776FF2046FFF76BFF0120FFF7A7FE6A
:1029800000F0F8012143BDE81040012000F0C8BC70
:102990000120FFF765FFF0E710B504460120FFF7BF
:1029A000A9FF064880F86C400CB1342100E01221E8
:1029B000BDE81040392000F0B3BC00005C020020EC
:1029C00010B50020FEF7B6FF012001F031FC012018
:1029D000FEF7B0FFBDE81040062001F029BC000062
:1029E00070B504460920FFF772FE06464D20FFF73A
:1029F0006EFE054621488069FFF712FA06F07F0156
:102A0000084340F0700001062BD5112C02DD45F083
:102A1000070502E005F0F8052D1DE943490703D03D
:102A2000022C0CDA02240DE0052C01DA052402E068
:102A3000142C00DD142400F0F001641F05E0112CBB
:102A400000DD112400F0F001A41E04F00F0001438A
:102A5000092000F065FC2946BDE870404D2000F0DB
:102A60005FBC4FF0FF318C4201DA0C4602E00E2CC5
:102A700000DD0E2400F0F001641CE6E75C0200209B
:102A80002DE9F041774C07460026607D10B1012802
:102A900024D124E014F8366F4020FFF718FE00F030
:102AA000030040F00C01402000F03AFC4120FFF709
:102AB0000EFE40F0C101412000F032FC3520FFF74E
:102AC00006FE00F03F0020761E210D2000F028FCBD
:102AD0000020A072E072E082A082363C86E094F88A
:102AE000650001284FF0330025D0FFF7F0FD00F01E
:102AF000BE013320491C00F013FC1D213B2000F0D7
:102B00000FFC606D09284FF031007DD2FFF7DFFD2B
:102B100000F07F01312000F003FC0021302000F0A4
:102B2000FFFB606D092847D2DFE800F00E161E2675
:102B30002E3641414100FFF7CAFD40F041013320EC
:102B400000F0EEFB1921D9E748212F2000F0E8FB27
:102B500041F68261A06926E044212F2000F0E0FBCD
:102B600042F6B401A0691EE044212F2000F0D8FBFA
:102B700043F60451A06916E044212F2000F0D0FB59
:102B800045F25E11A0690EE044212F2000F0C8FB41
:102B900047F61221A06906E044212F2000F0C0FB77
:102BA000A0694AF2C6210844FFF76AFE04E040210A
:102BB0005FF02F0000F0B4FB94F8630094F86660B7
:102BC000012830D01F21112000F0AAFB4020FFF780
:102BD0007EFD00F03F01402000F0A2FB00210F200D
:102BE00000F09EFB00210D2000F09AFB4FF4807155
:102BF0001D48FDF7C0FA01201C4D207547B16A68D9
:102C000039460220904700E007E0A9680220884783
:102C1000607D90B1FEB105201EE0FFF758FD40F049
:102C200080013120C6E71D21112000F079FB4020F2
:102C3000FFF74DFD00F03301CDE70520FFF794FECF
:102C4000002E0DD16A68E16B03209047A968BDE8AA
:102C5000F041032008470620BDE8F041FFF784BE9D
:102C6000BDE8F0815C0200205C01002018460008ED
:102C70002DE9FC5F9B4614468A468046DDF8449069
:102C80000D9F0F9EFFF736FE380A9D4D0090B8F15C
:102C9000000F06D0B8F1010F74D1BAF1030F73D948
:102CA000FEE745F824AFAC600C986860AE731098EE
:102CB000E87385F81090149868741598A874AF811B
:102CC0002046FDF713FC04460B46019122460020E6
:102CD0008C49FDF774FB0322FDF7E0FB80468B4631
:102CE0000E98FDF703FC42465B46FDF7F6FA00221C
:102CF000854BFDF7F2FAFDF725FCA861224600207E
:102D00008249019BFDF75BFBFDF71CFC84B2210AA5
:102D1000022000F005FBE1B2032000F001FB504669
:102D2000FDF7DAFD0146122000F0FAFA0C98FDF7E3
:102D3000D3FD0146132000F0F3FA2520009900F09E
:102D4000EFFAF9B2262000F0EBFA0EB1109900E08C
:102D5000FF21322000F0E4FA3020FFF7B8FC00F049
:102D60006F000EB1002100E08021084340EA091104
:102D7000302000F0D5FA3120FFF7A9FC40F04001E7
:102D80003120ACE0B9E0FFE702D14FF0060801E0E6
:102D90000AF1070828460C2CE0E9158480F809B0F0
:102DA000478106731099417380F80E901299C17390
:102DB0001399017414994174159985F8661001D915
:102DC0000C2402E0062C00D20624B8F1070F02D032
:102DD000B8F1060F03D10B2C4CD00C2C4AD0B8F113
:102DE000080F01D10C2C45D05FF0000185F85C1074
:102DF0001D20FFF76CFC4FEA081141EA4B003043FD
:102E0000C1B21D2000F08CFA1E20FFF760FC00F01C
:102E1000080040EA041141EA89000E99032202EAFF
:102E200011210843C1B21E2000F07AFA2620FFF7D4
:102E30004EFC00F0F70195F85C0041EAC000C1B219
:102E4000262000F06DFA0E98C1B21F2000F068FA3B
:102E50002020009900F064FAF9B2212000F060FA15
:102E60001EB12220109900F05BFA95F8630001284A
:102E700002D00EE00121B9E74420FFF728FC40F022
:102E80008001442000F04CFA95F86410242000F0F2
:102E900047FAB8F1090F02D0032136200FE01C4990
:102EA000A86988424FF002014FF0360003D900F0C4
:102EB00037FA642102E000F033FA7F213A2000F073
:102EC0002FFA062C4FF031000DD0FFF700FC00F078
:102ED000F8013120C91C00F023FA0A213720BDE88F
:102EE000FC5F00F01DBAFFF7F2FB00F0F8013120A3
:102EF000491D00F015FA0C21F0E7BDE8FC9F000029
:102F00005C0200200000F03F00408F4080847E4142
:102F100040DD4A1F10B5074C0220E1688847E16890
:102F2000012088470020FFF71FFD03490020087596
:102F300010BD0000184600085C02002010B5074CC8
:102F40000220E1688847E168012088470120FFF7F7
:102F50000BFD03490020087510BD0000184600084D
:102F60005C02002070B5264D014601206A6890473A
:102F7000244C607D10B101282DD119E04020FFF7CD
:102F8000A6FB00F0030040F01001402000F0C8F95B
:102F90004120FFF79CFB00F03E01412000F0C0F90A
:102FA0003520FFF794FB00F03F0084F84E0012E05C
:102FB00094F86300012818D0F721112000F0B0F92F
:102FC0004020FFF784FB00F03F0000BF40F04001CD
:102FD000402000F0A5F902202075A968012088474B
:102FE000BDE870400320FFF7BFBCF521112000F0C1
:102FF00097F94020FFF76BFB00F03300E6E7000095
:10300000184600085C0200202DE9FF4F81B01D46E4
:10301000DDE90E4BDDE910688946DDF854A0129F0A
:103020000198FFF767FC4846FFF7DAFC7848320A58
:103030000199009231B1012975D180F85090032D8A
:1030400055D9FEE780F81C900399C462C0E90815C1
:10305000068680F8328080F8347080F835A01699A2
:1030600081630398FDF742FA00226A4BFDF7A7F946
:10307000FDF768FA85B2290A042000F051F9E9B297
:10308000052000F04DF92046FDF730FA02460B46C8
:1030900000206149FDF793F9FDF754FA84B2210A43
:1030A000022000F03DF9E1B2032000F039F92520BB
:1030B000009900F035F9F1B2262000F031F9302006
:1030C000FFF705FB00F06F00B8F1000F01D0002101
:1030D00000E08021084340EA0711302000F020F989
:1030E0003120FFF7F4FA40F0400131207DE001D1BA
:1030F000062500E0ED1DC0E9155480F85DB0A0F88C
:103100005E6080F86080139980F86310149A80F8EC
:10311000642080F8627080F865A0169A82660C2C94
:1031200002D90C2403E06FE0062C00D20624072D00
:1031300001D0062D03D10B2C0CD00C2C0AD0082D5D
:1031400001D10C2C06D0002280F85C208146012998
:1031500002D00EE00122F7E74420FFF7B8FA40F072
:103160008001442000F0DCF899F86410242000F07D
:10317000D7F81D20FFF7ABFA290141EA4B0040EADE
:103180000800C1B21D2000F0CBF81E20FFF79FFA07
:1031900000F00B0040EA041040EA8700C1B21E2094
:1031A00000F0BEF82620FFF792FA00F0F70199F838
:1031B0005C0041EAC000C1B2262000F0B1F8202036
:1031C000009900F0ADF8F1B2212000F0A9F8062C2A
:1031D0004FF031000ED0FFF77AFA00F0F8013120FD
:1031E000C91C00F09DF80A21372005B0BDE8F04F5A
:1031F00000F096B8FFF76BFA00F0F8013120491D96
:1032000000F08EF80C21EFE705B0BDE8F08F00006C
:103210005C02002080844E4080847E4130B50D46A3
:103220004FF47A7189B002FB01F4FFF729FB00200B
:1032300005900690CDE907040521CDE90101039031
:1032400004904FF49650002300901A4629461846E1
:10325000FFF7DAFE3120FFF73AFA00F0BF01312024
:1032600000F05EF8F021402000F05AF8A021412043
:1032700000F056F8084D214601206A68904707493A
:1032800002200875A9680120884709B00320BDE81D
:103290003040FFF769BB0000184600085C020020C0
:1032A00010B50E4C607D002816D0012814D1FA21EB
:1032B000112000F035F84020FFF709FA00F03F0038
:1032C00040F08001402000F02BF803202075BDE87D
:1032D00010400720FFF748BB10BD00005C02002033
:1032E00070B50E4C2078002510B12570FEF71EFF3A
:1032F000607810B16570FFF769F8A07810B1A5701B
:10330000FFF7D6F8E07800B1E570A079002804D086
:10331000A571BDE87040FFF747B970BDF800002007
:1033200013B5012201A900F001F81CBD70B50446D7
:1033300015460E46002000F017F844F0800000F01B
:1033400015F8002404E0305D00F010F8641CE4B2CD
:10335000AC42F8D3BDE87040012000F005B80A4641
:1033600001460020FFF7E2BFFEF7D8BAFEF7C2BA67
:10337000FDF740BC30B58FB028216846FCF7FBFE56
:1033800014210AA8FCF7F7FE0225012004900095FD
:103390001020059000244FF4C010CDE90840079597
:1033A0006846FDF7ABFD0F200A90CDE90B540D9454
:1033B00001210AA80E94FDF7B5FC0FB030BD70478F
:1033C000054A526803E01378834200D15160526984
:1033D000002AF8D170470000180100200649002299
:1033E0004968496904E00B78834200D1CA604969A1
:1033F0000029F8D1704700001801002070B50D4871
:10340000002645686C690FE0607A60B1E068401C96
:10341000E0606168884206D3E660206900B18047B9
:10342000207A00B166726469002C01D0002DEBD1C6
:1034300070BD0000180100202DE9F047194D8846A5
:1034400007462978012099461646002431B928708C
:10345000182000F079F9686000B14461182000F08C
:1034600073F900281BD00770C0F8048006724472FC
:10347000C0E9034944616B6859690A4604E015785C
:10348000FEB2B5420BD05269002AF8D111B9586189
:1034900004E011464A69002AFBD148614461BDE855
:1034A000F087000018010020FFF798BF10B5044610
:1034B000FFF794FF064840684169012004E00A785C
:1034C000A24200D1487249690029F8D110BD00001C
:1034D00018010020064900224968496904E00B7878
:1034E000834200D14A7249690029F8D1704700002F
:1034F0001801002010B5406A0021C185C184FEF783
:1035000024F810BD0168CA6822F49072CA6001688C
:103510004A6922F001024A61202180F83A1070477E
:1035200010B590F83A10222901D0022010BD82680F
:103530004FF480539A4201D1016921B1816A9A42C4
:103540001BD04AB10AE00268816A5268C2F30802DD
:103550000A80816A891C08E0026972B102685268B7
:1035600002F07F020A70816A491C8162C18D491E86
:103570000904090CC18503D016E002685268F1E71E
:103580000168CA6822F02002CA600168CA6822F491
:103590008072CA6001684A6922F001024A612021F2
:1035A00080F83A10FEF71CF9002010BD70B50446F3
:1035B00000680169E26821F4405111430161216909
:1035C000A0680843616908432168CA6841F20C6336
:1035D0009A430243CA6020684169A26921F440719C
:1035E000114341611E492068884202D1FDF740FC29
:1035F00001E0FDF72DFC00EBC00101EB001260685B
:1036000064218000B2FBF0F3B3FBF1F36FF0180616
:103610007343B2FBF0F5B2FBF0F605EB8305322302
:1036200003EB0515B5FBF1F5B6FBF1F605F0F0057A
:1036300005EB0615B2FBF0F6B2FBF0F0B0FBF1F0D3
:103640006FF01802504306EB800003EB0010B0FB54
:10365000F1F0216800F00F002844886070BD000080
:10366000003801402DE9F041984617460E460446C1
:10367000069D1DE0681C1BD02DB1FDF7B5FAA0EB2F
:103680000800A84214D92068C16821F4D071C16033
:103690002068416921F001014161202084F839004E
:1036A00084F83A00002084F838000320BDE8F08157
:1036B0002068006836EA000004D00020B842D9D063
:1036C0000020F3E70120F9E70148FDF73FBF0000C4
:1036D000500500200249002081F8060170470000D3
:1036E000F0030020014890F806017047F003002025
:1036F00003480021A0F80411012180F80611704749
:10370000F0030020FEE700000FB4054B10B503A93D
:10371000044A029800F014F910BC5DF814FB000094
:1037200011430008500100200907090E002804DB9E
:1037300000F1E02080F80014704700F00F0000F165
:10374000E02080F8141D70472DE9F04782460F4CA9
:1037500010480D4E0E4F001B4FF0000820F00705DB
:103760004FF0010900221146504600F0DDFD00280F
:1037700002D1306810B10020BDE8F0873C60C4E998
:103780000058C6F80090EDE758010020940500208D
:10379000540100209007002002E008C8121F08C151
:1037A000002AFAD170477047002001E001C1121FC2
:1037B000002AFBD1704700002DE9FF5FDDE9022000
:1037C000010DDDF838B0024318D044F61050A1F2D4
:1037D000FF3141430D140F98012820D0A5EB0B00B9
:1037E000401C5FEA000A4FF00004474EDFF81C91CE
:1037F000A046504616D5CAF1000728E00F980124CC
:1038000043A2012808D0002100980F9BC0E90021A5
:10381000C0E90243BDE8FF9F6FEA0B01F4E7CBF17B
:103820000000DEE7074612E0F80707D022463346DD
:1038300040464946FCF751FD8046894622463346BC
:1038400010461946FCF749FD04460E467F10002F2E
:10385000EAD1DDE90201BAF1000F42464B4602DA35
:10386000FCF73BFD01E0FCF7AAFD04460E460022F2
:10387000284BFCF799FE03D84FF0FF30014607E0D4
:103880000022254B20463146FCF780FCFCF7AEFFBA
:10389000102409E0002C0ADB0A220023FCF7B2FE08
:1038A000019B30321A55641E50EA0102F2D1641CA9
:1038B000019AC4F1110314440F9A012A03D0012282
:1038C00008430DD10AE0084304D000204FF0110B4B
:1038D0000F9080E7A3EB0B056D1E0DE05B4504DD4B
:1038E0004FF0000205F1010504E003DA4FF0000299
:1038F000A5F10105002AECD000980F99C0E902312A
:10390000C0E9004586E70000000024400000F03FC9
:10391000300000000000F0430000E03F0146074A8D
:10392000002000BF00EB400312F833308B4204D07C
:10393000401CC0B20828F5D3FF2070473400002097
:103940002DE9FF4F95B09B468946064600250FE2BC
:10395000252877D100242746F84A0121059400E064
:10396000044316F8013F203B01FA03F01042F7D15F
:1039700030782A2811D06FF02F033078A0F1300270
:10398000092A16D8059A44F0020402EB820203EBDE
:1039900042021044761C0590EFE759F8042B05927B
:1039A000002A03DA504244F40054059044F0020423
:1039B000761C30782E2816D116F8010F44F0040436
:1039C0002A280DD06FF02F023078A0F13003092B98
:1039D00009D807EB870302EB4303C718761CF3E70C
:1039E00059F8047B761C30786C280FD006DC4C2804
:1039F00017D068280DD06A2814D104E0742810D09C
:103A00007A280FD10DE044F400140AE044F4801445
:103A100001E044F440147278824202D104F580142B
:103A2000761C761C307866280BD013DC582877D0AB
:103A300009DC002875D04528F6D04628F4D0472860
:103A40001AD19DE118E0632835D0642879D0652823
:103A500012D195E1702873D008DC6728F1D069286D
:103A60006FD06E280DD06F2806D1B5E073282CD00A
:103A7000752875D0782874D05A46179990476D1CD0
:103A800075E1C4F30250022809D003280DD0D9F8FB
:103A9000001004280DD00D6009F1040967E1D9F880
:103AA0000010EA17C1E90052F6E7D9F800100D80BE
:103AB000F2E70D70F0E719F8041B8DF800100020F4
:103AC0008DF80100EA46012003E059F804AB4FF0FD
:103AD000FF3061074FF0000102D40DE008F1010151
:103AE0008846B9420FDA8045F8DB1AF80810002939
:103AF000F4D108E008F1010188468142FADB1AF8A6
:103B000008100029F6D105985B46A0EB080721466E
:103B10003846179A00F094FA284400EB080507E0AD
:103B20004DE029E10DE01AF8010B5A46179990472C
:103B3000B8F10108F7D25B4621463846179A13E1DF
:103B400042E00A220092C4F302524FF0000A022A15
:103B500008D059F804CB032A4FEAEC710AD00DE0E3
:103B600029E02AE009F1070121F00702F2E802C189
:103B7000914609E00FFA8CFC4FEAEC71042A03D15C
:103B80004FFA8CFC4FEAEC71002907DA0A46002153
:103B9000DCF1000C61EB02012D2202E0220504D5CC
:103BA0002B228DF80420012203E0E20701D020221D
:103BB000F7E7904659E00A2102E010220DE01021BB
:103BC0004FF0000A00910BE010224FF0000A44F081
:103BD00004040827009203E008224FF0000A009234
:103BE000C4F30252022A05D059F804CB0021032A5B
:103BF00008D009E009F1070121F00702F2E802C14B
:103C0000914605E01FFA8CFC042A01D10CF0FF0C50
:103C10004FF00008220728D5702806D0009B83F0BB
:103C2000100353EA0A0305D00EE040228DF8042069
:103C3000012208E05CEA010206D030228DF804205F
:103C40008DF8050002229046009B83F0080353EA9A
:103C50000A030AD15CEA010201D1620705D53022CC
:103C60008DF804204FF001087F1E582804D034A09E
:103C700003900EA802900DE036A0F9E75346604687
:103C8000009AFCF7BFFC84460398825C0298401EB1
:103C9000029002705CEA0100F0D1029806A9081AAD
:103CA00000F1200A600702D524F4803400E00127E7
:103CB000574502DDA7EB0A0000E0002000EB0A01F7
:103CC000009005984144401A0590E00306D45B46F5
:103CD0002146179A059800F0B3F90544002706E03D
:103CE00001A85A46C05D179990476D1C7F1C474537
:103CF000F6DBE0030CD55B462146179A059800F0E9
:103D00009FF9054404E030205A46179990476D1CEE
:103D10000099481E00900029F5DC08E002980299FD
:103D20005A460078491C0291179990476D1CBAF1C8
:103D30000001AAF1010AF1DC65E100000928010097
:103D40003031323334353637383961626364656611
:103D500000000000303132333435363738394142D3
:103D6000434445460000000000F058F90544761C25
:103D7000307800287FF4ECAD19B02846BDE8F08F0C
:103D8000620700D4062709F1070222F0070CFCE8BD
:103D90000223E14603F000485FEA080C02D00FF26C
:103DA000702C0DE05FEA045C02D50FF2682C07E08E
:103DB0005FEAC47C02D00FF2602C01E0AFF2700C1D
:103DC0004FF0FF3823F00043CDF850C065280CD0E9
:103DD00006DC452809D046281DD047283DD13DE0C6
:103DE000662818D067287ED138E00021112F01DB2A
:103DF000112000E0781CCDE9000106A90EA8FFF70C
:103E0000DBFCDDE90F010E9A03910021009207F11E
:103E1000010A04914DE04FF000400097CDE90110F8
:103E200006A90EA8FFF7C8FCDDE90F0203920E9B5E
:103E300011990022DDF80CA00093049211B9791CAD
:103E400000EB010AB7EB0A0004D4C0F1FF3007F120
:103E5000010A0490AAEB0700019044E0012F00DA68
:103E600001270021112F01DD112000E03846CDE9A6
:103E7000000106A90EA8FFF79FFCDDE90F010E9ACD
:103E80000391002104910092BA4621070CD40399B2
:103E9000514500DA8A46BAF1010F05DD009AAAF110
:103EA0000101515C302908D0B84202DA10F1040F48
:103EB00006DA0121CDE9011015E0AAF10101E9E7D7
:103EC000002805DC049901440491AAEB000102E0FA
:103ED000411C514500DD8A460499401A401C01905E
:103EE0004FF000400290200704D40198504501DBB8
:103EF000CDF8048000208DF84F0002980DF14F0797
:103F0000B0F1004F25D02B200E9002984FF0020800
:103F100000280CDA404202902D200E9007E00A2182
:103F20000298FCF759FB3031029007F8011DB8F1F7
:103F30000001A8F10108F2DC02980028EFD1791EF7
:103F40000E980870307800F0200040F0450007F827
:103F5000020D12A8C01B00F107081498007800B1E8
:103F6000012000EB0A01019801EBE0710598414442
:103F7000401A401E0590E00306D45B462146179A7E
:103F8000059800F05DF805441498007818B15A4679
:103F9000179990476D1CE00324D55B462146179A7C
:103FA000059800F04DF805441CE00498002807DB54
:103FB000DDE90301884203DD0098405C179901E0C8
:103FC000179930205A469047049805F10105401C86
:103FD00004900198401E019004D12E205A46179952
:103FE00090476D1CBAF10001AAF1010ADDDC05E081
:103FF00017F8010B5A46179990476D1CB8F100014C
:10400000A8F10108F4DC5B462146179A0598ABE657
:104010002D0000002B000000200000002DE9F041E1
:10402000044600251E461746880404D405E0394698
:104030002020B0476D1C641EF9D52846BDE8F081EC
:104040002DE9F041044600251E469046C80301D5DF
:10405000302700E02027880404D505E04146384693
:10406000B0476D1C641EF9D52846BDE8F081704745
:10407000FFF736B910B5FFF735FB00280AD0064820
:10408000064A90F80211926A401C9047BDE8104021
:10409000FFF720BB10BD0000F003002030460008F1
:1040A000002000F023BA7047704770474FF400516A
:1040B0000148FCF78BBD00000010014070477047BD
:1040C0007047FFF715BB00002DE9F041C1F30A521C
:1040D000A2F2FF362F4A304B0D460446142E2FDA3B
:1040E000002E12DAFCF752F800221346FCF75CFAB5
:1040F0004CD2002DBCBF4FF00045002446DB55EAF2
:10410000040018BF254D19D140E0DFF894C02CFA07
:1041100006F705EA070C5CEA040C08BFBDE8F0816D
:10412000FCF734F800221346FCF73EFA2ED2002D9D
:1041300003DD4FF48010F0400544BD43002425E02A
:10414000332EC8BFBDE8F081A6F1140C4FF0FF3745
:1041500027FA0CF73C4208BFBDE8F081FCF7BAF83B
:1041600000221346FCF720FA10D2002D0DDD142E8C
:1041700008BF6D1C09D0C6F13400012101FA00F01E
:104180002044A04238BF6D1C0446BC43294620464B
:10419000BDE8F0819C7500883CE4377E0000F03F6C
:1041A000FFFF0F002DE9F74F81B000230298400771
:1041B00003D0002004B0BDE8F08F0298C008009042
:1041C0002EE00198D2E900BA00EBC305D2E90297CC
:1041D000D5E90010144CDFF854E0002609EB011C6F
:1041E00001EB04088CEA080C07EB51188CEA080C68
:1041F000A0EB0C0000EB04080BEB001C8CEA080C95
:104200000AEB50188CEA080C761CA1EB0C01A4EB0D
:104210000E04202EE2D3C5E900105B1C00989BB26F
:104220008342CED30298C5E72037EFC6B979379ECF
:10423000FCF7B4BB2DE9F041C1F30A52A2F2FF36FC
:104240002F4A304B0D460446142E2FDA002E12DA78
:10425000FBF79CFF00221346FCF7A6F94CD2002D79
:10426000A4BF0024254647DA25F00040204318BFAC
:10427000254D41D018E0DFF894C02CFA06F705EA86
:10428000070C5CEA040C08BFBDE8F081FBF77EFF79
:1042900000221346FCF788F92ED2002D03DA4FF4E2
:1042A0008010F0400544BD43002425E0332EC8BFF4
:1042B000BDE8F081A6F1140C4FF0FF3727FA0CF798
:1042C0003C4208BFBDE8F081FCF704F80022134629
:1042D000FCF76AF910D2002D0DDA142E08BF6D1C00
:1042E00009D0C6F13400012101FA00F02044A042B7
:1042F00038BF6D1C0446BC4329462046BDE8F0810A
:104300009C7500883CE4377E0000F0BFFFFF0F0083
:1043100013B5FF23012269460248FDF787FA00988A
:104320001CBD0000500500202DE9F0410B3020F0AD
:104330000706104D19E02068B04215D3B0420AD9E3
:10434000871B201DD4F80480FBF7FCFEA019C0E9F0
:104350000078286004E060682860201DFBF7F2FE0A
:10436000201D2660BDE8F081251D2C68002CE2D1BF
:104370000020F7E754010020FCF744FCFEF7FAFFA9
:10438000FDF7F2FAFDF760FBFDF780FBFCF784FA1E
:10439000FDF7E8FC4220FEF79AF9014604A0FFF77A
:1043A000B3F908A0FFF7B0F900F06AF8FCE70000E5
:1043B0004C6F72612056657273696F6E3A25642185
:1043C0000D0A00004D61737465722053746172743C
:1043D000210D0A0004E000BF11F8013B00F8013B89
:1043E000521E92B2F8D27047FCF7FEBB2DE9F04D99
:1043F00007460E46FCF7B6F904460D463A463346E4
:10440000FBF768FFDFF86CA0DFF86CB01B4B0746CA
:10441000884616F0004F4FF000020AD0FCF7ACF8C7
:104420000AD900225B4638464146FCF7BDF81BD24C
:1044300012E0FCF7A1F808D2002253462046294694
:10444000FBF745FF04460D460EE000225B4638466A
:104450004146FCF7A9F807D80022534620462946D2
:10446000FBF794FE04460D463146204665F31E01D7
:10447000BDE8F08D0000F03F0000E03F0000E0BF2D
:1044800070B50A4D002400BF04EB440005EB800129
:10449000487830B1FF2801D000204870D1E90101EF
:1044A0008847641CE4B2042CEED370BD00000020E9
:1044B00070B515460E46FFF731FA0446FF2810D0B6
:1044C0003046FCF713F80022064BFBF778FFFCF7A9
:1044D00039F8054904EB440201EBC20148608860E9
:1044E0008D8170BD0000F03F340000202DE9F041C7
:1044F0000025104F2E4600BF05EB450007EBC0041A
:104500006078012810D1A08960B1A0F57F41FF3902
:1045100001D0401EA0816670D4E904018847A068DC
:10452000606001E0667066606D1CEDB2082DE3D33B
:10453000BDE8F08134000020000C23000D1E000EA9
:10454000D2001A01001FAA0024070027120028C168
:10455000002994002AC10030D800358F003B0200AA
:1045600040000041300123FF280A0000170000002E
:104570001C0C00000F0000003C0F000007000000B2
:1045800050140000160000009C1800000E000000EF
:10459000781E000006000000A028000015000000A2
:1045A000D43000000D000000F03C000005000000C9
:1045B0004051000014000000A86100000C00000041
:1045C000447A000004000000E4A200001300000090
:1045D00050C300000B00000024F4000003000000A2
:1045E0008545010012000000A08601000A000000BD
:1045F00048E80100020000002C8B020011000000BE
:10460000400D03000900000090D0030001000000ED
:10461000E09304000000000039340008C1330008B2
:10462000AD340008D5340008A9340008FD33000873
:1046300039200008351E0008F528000881280008E8
:10464000DD20000891260008712C000809300008C0
:104650001D1E0008411E00085D270008152F0008D8
:104660003D2F0008812A0008A13200081D320008F1
:104670001D27000821330008CF2600082D3300082D
:10468000DF260008C1280008992900080000000062
:1046900000000000010203040607080900000000F2
:1046A00001020304C4460008000000205C01000071
:1046B00040080008544700085C010020340A00004C
:1046C000A83700081162FF13A1405B08010C1A6FA4
:1046D0000C5A020C1A750C5A030C1A710C51220157
:1046E0005AF404812ABD4019104BE80304812AAB17
:1046F0004C99305AFF4C1AAD180A1105481AA718E0
:104700000A1106181ABF180A1107182AC1A0191091
:10471000320A290469601AA9185A04142904816A02
:10472000C3C4694012231408A524140875251B0866
:1047300081041A8D04D11201A814013132333435A9
:10474000363738393938373635343332311F2182EC
:0447500010D324F46A
:04000005080000ED02
:00000001FF
